:100000001BC300000C94B92C0C948E2C0C94632C04
:100010000C94382C0C940D2C0C94E22B0C94B72BD4
:100020000C948C2B0C94E42C0C94E42C0C94E42C69
:1000300034C300000C94301D30C300002EC30000F8
:100040002CC300000C94302F28C3000026C30000EE
:1000500024C3000022C3000020C300000C94422BE4
:100060001CC300000C94263A0C94FD3916C3000002
:1000700014C3000012C3000010C300000EC3000030
:100080000C94032F0AC3000008C3000006C300003D
:1000900004C3000002C3000000C300000C94782DCC
:1000A000FCC20000FAC200000C94D62EF6C200007A
:1000B000F4C20000F2C20000F0C200000C94A92EAD
:1000C000ECC20000EAC20000E8C200000C94D4397F
:1000D0000C94AB39E2C200000C9482390C9459396B
:1000E000DCC200003707A903D30384048404970407
:1000F0002B078404950A950A950A950A950A950A8C
:10010000950A1705C5042A05950A950A950A520508
:10011000F1071306E50606078005950A950A950A74
:1001200073078107950A950A950A950AA107900712
:10013000950A950A950A950A950A950A950A950AC7
:10014000950A950A950A950ADA07E307950A950A2A
:10015000950A950A950A950A950A950A750805085B
:10016000950A950A950A950A950A9808950A990A92
:1001700055345C343934403447344E3463346A3453
:10018000C438C738B638BA38C038FE38CB38CF385C
:10019000D538D938DD38E338E738EB38FE38F13870
:1001A000F538F9382B3B303B353B3F3B493BC23BB5
:1001B000533B5B3B633B6D3B773B813B903B9A3BC7
:1001C000C23BA43BAE3BB83B084AD73B3BCE016E9B
:1001D00084BCBFFDC12F3D6C74319ABD56833DDA9E
:1001E0003D00C77F11BED9E4BB4C3E916BAAAABEAD
:1001F000000000803F07634236B79BD8A71A3968D2
:100200005618AEBAAB558C1D3CB7CC5763BD6DEDDF
:10021000FD753EF6177231BF000000803F080000F8
:1002200000BE922449123EABAAAA2ABECDCCCC4C29
:100230003E00000080BEABAAAAAA3E00000000BF9C
:10024000000000803F0000000000084178D3BB435D
:1002500087D1133D190E3CC3BD4282AD2B3E68ECE5
:100260008276BED98FE1A93E4C80EFFFBE01C4FF6C
:100270007F3F000000000000200000000000003070
:10028000007C82827C00310042FE02000032004687
:100290008A92620033004492926C0034001C64FE27
:1002A00004003500F292928C0036007C92924C0051
:1002B0003700C08E90E00038006C92926C003900DC
:1002C0006492927C006100042A2A1E006200FE12E1
:1002D000120C0063000C1212120064000C1212FEC9
:1002E0000065001C2A2A18006600103E5050006766
:1002F000000815151E006800FE101E0000690000B1
:100300002E0000006A0002012E00006B00FE08149F
:1003100012006C0000FE0200006D001E100E100E98
:100320006E001E10100E006F000C12120C007000F8
:100330001F12120C0071000C12121F0072001E0816
:10034000101000730012292512007400103E1200D4
:100350000075001C02021E007618040204180077C3
:1003600018061C0618007800120C0C1200790018F0
:1003700005051E007A0012161A120041007E8888B8
:100380007E004200FE92926C0043007C8282440018
:100390004400FE82827C004500FE9292820046006C
:1003A000FE9090800047007C82925C004800FE1026
:1003B00010FE00490082FE8200004A000C0202FC8E
:1003C000004B00FE1028C6004C00FE020202004D49
:1003D00000FE403040FE4E00FE403008FE4F007CE4
:1003E0008282827C5000FE9090600051007C828A64
:1003F000847A5200FE9894620053006492924C00FA
:10040000540080FE8080005500FC0202FC00560073
:10041000F00C020CF05700FE043804FE5800C638F9
:1004200038C60059C0201E20C0005A00869AB2C2A9
:10043000002C00010E0C00002E0000060600002516
:100440007254781E2A4E2100007A0000003F0020DE
:100450004A3000002D0010101010002B08083E0834
:1004600008002F00020C3040002A22140814220039
:100470003A0000140000002200C000C00000232841
:10048000FE28FE28002800007C820000290000824F
:100490007C00003B0002240000007E004080408081
:1004A000003B0002240000003D0028282828007C92
:1004B0000000FE0000003E0082442810003C0010B6
:1004C00028448200400000000000007C447C007C46
:1004D000005C547454547C70107C74545C7C545C88
:1004E00040407C7C547C74547C000400202020001C
:1004F0000000000020002300260029002C002F000F
:10050000320000010000030106010901050505058F
:10051000070508080808020202020A0A080804047B
:1005200004040101010101010101030303030303A9
:100530000303040707070C0C0C0C0C0C0C0C020238
:10054000020206060606060606060B0B0B0B0B0B35
:100550000B0B0102102020080810204010204080C2
:100560000201020108040201010204081020408077
:100570008040201008040201800402018040201005
:10058000080402010804020101020408102040804E
:1005900001020408102040803F065B4F666D7D0716
:1005A0007F6F777C395E7971BF86DBCFE6EDFD87A3
:1005B000FFEFF7FCB9DEF9F1004000002100240054
:1005C00027002A002D003000330001010000040143
:1005D00007010A0100002200250028002B002E0040
:1005E0003100340002010000050108010B01000088
:1005F0000A0B02090C0D0E0807030401000000009D
:1006000000000000000000000000000000000000EA
:1006100000000000000000000000121110000000A7
:1006200000000000000000000000000000000000CA
:1006300000000000FC53E95311241FBECFEFD1E2AC
:10064000DEBFCDBF00E00CBF13E0A0E0B2E0EAE8FF
:10065000FCEB00E00BBF02C007900D92A03CB1077D
:10066000D9F72EE0A0ECB3E001C01D92A63BB20783
:10067000E1F713E0CBE1D3E000E006C021970109E8
:10068000802FFE010E948F56CA31D10780E00807F3
:10069000A9F70E94B0470C94345EB2CC2F923F92DF
:1006A0004F925F926F927F928F929F92AF92BF9282
:1006B000CF92DF92EF92FF920F931F93CF93DF932E
:1006C000CDB7DEB76D970FB6F894DEBF0FBECDBFC6
:1006D0001092580483E090E00E946345F82E84E075
:1006E00090E00E946345182F85E090E00E946345EA
:1006F000082FF092C803123009F4CAC720F4113051
:1007000059F00C94FA0D143009F4C4C7153011F4E3
:100710000C94A00D0C94FA0D813049F0873139F01A
:10072000843229F00E944A458F2D0E94234586E09D
:1007300090E00E946345182F402F50E04634510549
:1007400008F0F3C6FA018827EE58FF4F8F4F0C943C
:100750008F568091100490911104009739F0DC01BC
:1007600012962C91211771F00E94865A8EE090E02B
:100770000E94F1597C01612F0E94D93DF092110431
:10078000E092100480911004909111040E947B412A
:100790006B017C010E944A458091C8030E94234559
:1007A000C701B60170C787E090E00E946345909151
:1007B000E00B911304C09091E10B981751F1E12FD8
:1007C000F0E0EE0FFF1FED5FFC4F90819093DE0B8A
:1007D000E181E093DF0B1093E00B8093E10B82301B
:1007E00009F0E92F8E2F90E0FC01EE5AFA4FE491C8
:1007F000E093E20BFC01E45FFA4FE491F0E0EE0FCE
:10080000FF1FEE50FB4F859194919093E40B8093E2
:10081000E30B0E943E418CEC0E94D24084E40E9493
:10082000D2400E94362B6B017C0103E210E08091E4
:10083000E20BE091E30BF091E40B9181282F2095DE
:10084000922391839281982B9283D8011197F1F78B
:100850009081892311F40C94A30D0E943E418CECED
:100860000E94D2408EEB0E94D240DE01119667E0DA
:1008700070E003E210E0FFECEF2EF12C85E0B82EE3
:10088000BA0E48E050E031E020E0A090E20BE091A9
:10089000E30BF091E40BF89491819A299183D28033
:1008A0009A2C9094D920D282CB010197F1F7D18074
:1008B000992D9D21918392819A299283C801019754
:1008C000F1F790817894F7013197F1F78A2D892318
:1008D00009F0232B330F41505109B9F62D93BA1269
:1008E000D0CF6A8170E0762F66278981682B072E2A
:1008F000000C880B990B0E94AE5C20E030E040E8D1
:100900005DE30E940D5DBFC68091C30B811751F05E
:10091000612F81EC9BE00E948A3D60E08091C20BD8
:100920000E94C83A81EC9BE00E949A3DE3C287E0B6
:1009300090E00E946345082F8091240B811729F0D5
:10094000612F82E29BE00E948A3D013059F482E2ED
:100950009BE00E94A43D2091C0033091C1038A5EB8
:1009600091400CC0023071F482E29BE00E949A3DFB
:100970008A5E91402091C2033091C303BC01620F93
:10098000731F8BC060E070E088C0E0905A04F09064
:100990005B04E114F104E1F0D70191968C919197F9
:1009A0008117B1F187EF92E08D939C93F701E259A3
:1009B000FF4F808191810E94865A87EE92E0F70175
:1009C00091838083C7010E94622DC7010E94865ACD
:1009D0008CE790E00E94F1597C01612F0E94E93D73
:1009E0008CE492E0D70111969C938E9390968C9113
:1009F000F701E858FF4F8083F701878DE758FF4FD5
:100A00008083F0925B04E0925A04C7010E946A1C42
:100A1000E0915A04F0915B04E658FF4F60816093C7
:100A20000F048FEF860F8E3F08F07FC563C0809163
:100A3000C30B811751F0612F81EC9BE00E948A3D2E
:100A400060E08091C20B0E94C83A81EC9BE00E945A
:100A500029274FC08091C30B811779F0612F81EC5A
:100A60009BE00E948A3D60E08091C10B0E94C83AE1
:100A700060E08091C20B0E94C83A60E081EC9BE08C
:100A80000E94CA3D182F81EC9BE00E942927612F0C
:100A900070E0660F771F680F711D072E000C880B22
:100AA000990B2CC287E090E00E946345082F80914B
:100AB000C30B81130C94B40D8091C40B80130C9460
:100AC000B40D62E0013059F48091C10B0E94C83A24
:100AD00060E081EC9BE00E94CA3D80270AC08091C3
:100AE000C20B0E94C83A81EC9BE00E94292761E07A
:100AF0008627682F70E080E090E00E94AC5CC3C560
:100B00008091280B811709F48BC0612F86E29BE04E
:100B10000E948A3D8091270B9091260B9093C503EC
:100B20008093C4030E94A22761E086E29BE00E94BA
:100B3000AE3D80E78D8FBE01635E7F4F80E00E94F7
:100B40009E3480E28C8FBE01645E7F4F81E00E9404
:100B50009E3481E08093320B8B8FBE01655E7F4FA8
:100B600082E00E949E34CE0101967C0100E010E0FC
:100B70006C01C8010E94C15DD7018D937D010F5F9B
:100B80001F4F0A311105A9F72D813E814F815885EC
:100B900069817A818B819C810E94985629853A854A
:100BA0004B855C850E9498562D853E854F855889DA
:100BB0000E94985629893A894B895C890E949856E7
:100BC0002D893E894F89588D0E9498564B015C01B2
:100BD000898D682F70E080E090E00E94AE5C9B0100
:100BE000AC01C501B4010E94985620E030E04AE211
:100BF00053E40E9498560E94CB578A8D68130CC00C
:100C00008AE1F601A3E3BBE001900D928A95E1F73A
:100C100081E080932A0B02C010922A0B0E940535B6
:100C20000E94AF3F30C587E090E00E946345E82E08
:100C30008091190A811729F0612F87E19AE00E94BB
:100C40008A3DFE0131966F0185E0DF011D928A9594
:100C5000E9F760E087E19AE00E94AE3D64E170E070
:100C600080E090E00E940F3C61E087E19AE00E9402
:100C7000AE3D8BE990E00197F1F760E087E19AE003
:100C80000E94AE3D0E94362B4B015C0187E19AE049
:100C90000E942927811110C00E94362BDC01CB0154
:100CA00088199909AA09BB090397A105B10570F331
:100CB00010921B0A10921C0A0E94362B4B015C01F9
:100CC00087E19AE00E942927882361F00E94362B51
:100CD000DC01CB0188199909AA09BB090397A10571
:100CE000B10570F300E010E00E94362B4B015C016F
:100CF00087E19AE00E94292781110CC00E94362BBF
:100D0000DC01CB0188199909AA09BB090397A10540
:100D1000B10570F30E94EA3B4B015C010E94362B47
:100D20002B013C0187E19AE00E942927882361F08A
:100D30000E94362BDC01CB0184199509A609B7095D
:100D40000397A105B10570F30E94EA3BDC01CB01DA
:100D500088199909AA09BB09F80143E0F595E795B7
:100D60004A95E1F78997A105B10538F0EC0DFD1D15
:100D70009081990F9160908305C0EC0DFD1D8081DD
:100D8000880F80830F5F1F4F0832110509F0ACCF29
:100D900059814B81242F30E0250F311D8D8190E04A
:100DA0002817390721F450931B0A40931C0AE110BD
:100DB00003C010911B0A02C010911C0A0E944A45F0
:100DC0008F2D0E942345812FADC38091130A811777
:100DD000D1F0612F81E19AE00E948A3D8091110A51
:100DE0009091120A9093150A8093160A8091150A21
:100DF00060E00E94C83A8091160A8093110A80919F
:100E0000150A8093120A81E19AE020C080910D0AB0
:100E10008117D1F0612F8BE09AE00E948A3D80918A
:100E20000B0A90910C0A90930F0A8093100A8091FC
:100E30000F0A60E00E94C83A8091100A80930B0A62
:100E400080910F0A80930C0A8BE09AE00E94A43DE7
:100E50000E94EA461AC487E090E00E94634511119F
:100E600064C390918F0B983609F05FC38FC61A82C6
:100E700019821C821B821E821D826091E207709182
:100E8000E3076115710541F04091E6075091E707CE
:100E9000CE0101960E9401391D81E12EFE8084E081
:100EA0000E942345812F0E94234500E010E00E158B
:100EB0001F05A4F48D819E810817190748F48981C4
:100EC0009A81009729F0FC01E00FF11F808101C099
:100ED00080E00E9423450F5F1F4FE9CF89819A81EF
:100EE0000E94865AD2C360E0812F0E94C83A812FA7
:100EF0000E94713ABC01990F880B990B0E94AE5C5D
:100F0000C2C3E12FF0E0EE0FFF1FE05EFD4F108146
:100F100060E0812F0E94C83A812F0E94CB3BEACF2C
:100F200087E090E00E94D4467C0160E0812F0E941F
:100F3000C83AA701FF0C660B770B812F0E94713412
:100F40004EC387E090E00E946345082F61E0812F47
:100F50000E94C83A60E0812F0E94993A83E090E0B5
:100F60000197F1F761E0812F0E94993A83E290E0C6
:100F70000197F1F760E0812F0E94993A60E0802F9D
:100F80000E94C83A40E355E760E070E0802F0E947D
:100F900071346B017C0165E070E080E090E00E94BC
:100FA0000F3C0E944A458091C8030E942345C70117
:100FB000B601A4CF60915D0470915E0480915F04DE
:100FC0009091600460C38091070A811729F0612F16
:100FD00085E09AE00E948A3D85E09AE00E942927F8
:100FE000A1C28091F009811729F0612F8EEE99E05E
:100FF0000E948A3D10915C0487E090E00E94634566
:1010000091E0181390E0892F8DC211113EC387E043
:1010100090E00E946345182F88E090E00E946345AD
:101020001130B9F4813049F46091880970918909CF
:1010300080918A0990918B09D2C2823009F025C330
:10104000609178097091790980917A0990917B0972
:101050001AC31230B9F4813049F4609108097091D3
:10106000090980910A0990910B09B9C2823009F0EF
:101070000CC36091F8087091F9088091FA0890917A
:10108000FB0801C31330B9F4813049F4609188083A
:101090007091890880918A0890918B08A0C2823053
:1010A00009F0F3C2609178087091790880917A080C
:1010B00090917B08E8C2143009F0E7C2813049F40E
:1010C000609108087091090880910A0890910B08B6
:1010D00086C2823009F0D9C26091F8077091F90791
:1010E0008091FA079091FB07CEC2123719F48091D4
:1010F000530418C2153709F0C8C2EEECF5E025918B
:101100003491E8EEF5E0A591B4919FB7F894F90118
:101110008081877F80838C91877F8C939FBFE6E05F
:10112000F5E0A591B4918C9183FB882780F9FAC1F1
:1011300087E090E00E946345082F88E090E00E94DD
:101140006345B82EE091C603F091C703309769F468
:1011500081E190E00E94F1597C01612F0E94D93D0C
:1011600088E3D70114968C9311C08281811791F086
:10117000CF010E94865A81E190E00E94F1597C01E2
:10118000612F0E94D93D88E3F7018483F092C70361
:10119000E092C603013091F5B1100DC08091C603F5
:1011A0009091C7030E948F258091C6039091C70339
:1011B0000E943B25B3C1F1E0BF120EC08091C6036F
:1011C0009091C7030E948F258091C6039091C70319
:1011D0000E943B25672FA5C122E0B21611F060E006
:1011E000A0C18091C6039091C7030E948F25809172
:1011F000C6039091C7030E943B2593C1023079F743
:101200008090C6039090C703C4010E948F2581116E
:10121000E0C4D40119960D911C911A971B96ED907C
:10122000FC901C971D96CD90DC901E97003BB4E07F
:101230001B0708F0E6C0E4EAEE16E6E0FE0608F05A
:10124000E0C0F0EBCF16F4E0DF0608F0DAC0C0161D
:10125000D10608F04BC0E016F10608F447C047017C
:10126000800E911E8C0C9D1C3601660C771C2DE2A5
:10127000821621E09206F0F0B70180E090E00E9433
:10128000AC5C1B012C01B80180E090E00E94AC5CDA
:1012900020E030E040EC5FE30E940D5D9B01AC017B
:1012A000C201B1010E946F58181624F46E147F0415
:1012B00008F491C46E147F0440F46016710628F49B
:1012C00089E78816910408F08AC40139114008F4AE
:1012D00080C4A5E4EA16A2E0FA0608F47AC4B1E4F0
:1012E000CB16B1E0DB0608F0F3C073C4E016F106DC
:1012F00080F5CE14DF0468F50E0D1F1D0C0D1D1DAD
:101300000D3D110508F465C4B70180E090E00E942E
:10131000AC5C2B013C01B60180E090E00E94AC5C2B
:101320002AE939E949E150E40E940D5D6B017C0135
:101330009B01AC01C301B2010E94A85C87FD51C4AE
:10134000A7019601C301B2010E946F5887FF49C4EB
:1013500040C4CE14DF0420F00C151D0508F43DC474
:10136000E016F106E0F1C016D106C8F1C701800F02
:10137000911F8C0D9D1D8139914008F42AC4B7013D
:1013800080E090E00E94AC5C2B013C01B80180E061
:1013900090E00E94AC5C2DEC3CEC4CE050E40E94F0
:1013A0000D5D9B01AC01C301B2010E946F5818167C
:1013B0000CF013C4B60180E090E00E94AC5C2DEC10
:1013C0003CEC4CE050E40E940D5D9B01AC01C3017C
:1013D000B2010E946F5818160CF0FFC3FCC3C6017F
:1013E000800F911FE816F90608F0F3C30E0D1F1DBC
:1013F000C00ED11EFDEBCF16F2E0DF0608F068C08C
:10140000E8C3EC14FD0420F40C151D0508F4E5C335
:10141000E016F10620F4CE14DF0408F4E2C3D40190
:101420001F96ED91FC915097C801BF010E9468562C
:10143000462F362FC701BF010E946856262FC601CE
:10144000BF010E946856962F493028F0253020F5BC
:101450006230E8F4C6C3433008F0C8C3253018F43E
:10146000633008F4B6C32B3018F0953008F4B3C3DA
:10147000353090F4253018F49B3008F0AEC334308A
:1014800089F02830A0F0983008F0A7C30BC04B308B
:1014900018F0953008F4A5C3273048F0973008F0CD
:1014A0009CC305C02A3018F0963008F096C3465009
:1014B000433028F4263060F0923050F490C3393035
:1014C00038F0393029F0283018F4923008F489C304
:1014D000BB2031F160E0B2E0BB1204C081E06230B9
:1014E000E1F41CC0E4E0BE1204C081E06430A9F461
:1014F00015C0F5E0BF1204C081E0653071F40EC084
:1015000027E0B21204C081E0673039F407C089E0F7
:10151000B81207C081E0693009F080E0682F01C08F
:1015200061E0862F0E945F47B0C060E070E0CB01B1
:10153000AAC087E090E00E946345F82E88E090E022
:101540000E946345082F103109F04CC0E091C90397
:10155000F091CA031FEF180F309779F488E190E0FB
:101560000E94F159DC011C931196FC929093CA03DE
:101570008093C9030E94A22702C0F18210830091C8
:10158000C9031091CA03F80181810E949827D801EC
:101590006C9185E497E00E942B2A63E285E497E052
:1015A0000E942B2A80E00E943B2764E0F8018181A1
:1015B0000E9474338E010F5F1F4F7E01F5E0EF0E26
:1015C000F11C85E497E00E94E029D8018D938D01FC
:1015D000AE15BF05B1F769817A818B819C810E942C
:1015E000024753C0113109F050C089E090E00E94D9
:1015F000D446E091C903F091CA031FEF100F309752
:1016000071F488E190E00E94F159FC011083F182AD
:101610009093CA038093C9030E94A22702C0F1825B
:1016200010830091C9031091CA03D80111968C91BF
:101630000E949827F801608185E497E00E942B2A98
:1016400064E285E497E00E942B2A80E00E943B2719
:1016500064E0D80111968C910E9474338E010F5F63
:101660001F4F7E01B5E0EB0EF11C85E497E00E9470
:10167000E029F80181938F01EE15FF05B1F769812B
:101680007A818B819C810E942E470E943745B2C28D
:10169000CAD256C2109294091092950910929609D6
:1016A00010929709109214091092150910921609B8
:1016B00010921709109294081092950810929608AB
:1016C000109297081092140810921508109216089C
:1016D0001092170880E090E0A0E2B1E480937C09CA
:1016E00090937D09A0937E09B0937F091092DA0947
:1016F0001092D80921E020936E0910926F09109280
:101700008C0910928D0910928E0910928F091092F7
:10171000ED091092EC0980918C0990918D09A091AE
:101720008E09B0918F094091880950918909609183
:101730008A0970918B09841B950BA60BB70B1816A1
:1017400019061A061B061CF42093D90902C0109230
:10175000D90980E090E0A0E2B1E48093FC08909386
:10176000FD08A093FE08B093FF0810925A0910924A
:10177000580921E02093EE081092EF0810920C090E
:1017800010920D0910920E0910920F0910926D0916
:1017900010926C0980910C0990910D09A0910E098D
:1017A000B0910F09409108095091090960910A0907
:1017B00070910B09841B950BA60BB70B1816190615
:1017C0001A061B061CF42093590902C010925909ED
:1017D00080E090E0A0E2B1E480937C0890937D08E3
:1017E000A0937E08B0937F081092DA081092D80870
:1017F00021E020936E0810926F0810928C081092CE
:101800008D0810928E0810928F081092ED08109299
:10181000EC0880918C0890918D08A0918E08B09171
:101820008F08409188085091890860918A087091CA
:101830008B08841B950BA60BB70B181619061A06F6
:101840001B061CF42093D90802C01092D90880E02E
:1018500090E0A0E2B1E48093FC079093FD07A09391
:10186000FE07B093FF0710925A081092580821E023
:101870002093EE071092EF0710920C0810920D08BB
:1018800010920E0810920F0810926D0810926C08BA
:1018900080910C0890910D08A0910E08B0910F084E
:1018A000409108085091090860910A0870910B084E
:1018B000841B950BA60BB70B181619061A061B06E8
:1018C0001CF42093590802C01092590860E070E09F
:1018D0008EE699E00E94EA1D60E070E08EEE98E0EE
:1018E0000E94EA1D60E070E08EE698E00E94EA1D2A
:1018F00060E070E08EEE97E00E94EA1D10926E09A3
:101900001092EE0810926E081092EE0781E00E948D
:10191000543380E090E00E94FF3289E00E9454330B
:1019200080E090E00E94FF3282E00E94543380E029
:1019300090E00E94FF328AE00E94543380E090E001
:101940000E94FF3283E00E94543380E090E00E94C6
:10195000FF328BE00E94543380E090E00E94FF321F
:1019600084E00E94543380E090E00E94FF328CE0DB
:101970000E94543380E090E00E94FF3261E081EFEA
:101980009BE00E948A3D04EF11E01093F80B009356
:10199000F70B80E090E00E94C82762E081EF9BE0B7
:1019A0000E948A3D1093F80B0093F70B80E090E0C3
:1019B0000E94C82763E081EF9BE00E948A3D10935C
:1019C000F80B0093F70B80E090E00E94C82764E0DA
:1019D00081EF9BE00E948A3D1093F80B0093F70B78
:1019E00080E090E00E94C82710922A0A10922B0AE9
:1019F00010922C0A10922D0A10922E0A10922F0A81
:101A00001092300A1092310A1092460A1092470A38
:101A10001092480A1092490A10923E0A10923F0A08
:101A20001092400A1092410A10926B0A10926C0AAE
:101A300010926D0A10926E0A10926F0A1092700A3C
:101A40001092710A1092720A1092870A1092880AF4
:101A50001092890A10928A0A10927F0A1092800AC4
:101A60001092810A1092820A1092AC0A1092AD0A6A
:101A70001092AE0A1092AF0A1092B00A1092B10AF8
:101A80001092B20A1092B30A1092C80A1092C90AB0
:101A90001092CA0A1092CB0A1092C00A1092C10A80
:101AA0001092C20A1092C30A1092ED0A1092EE0A26
:101AB0001092EF0A1092F00A1092F10A1092F20AB4
:101AC0001092F30A1092F40A1092090B10920A0B6A
:101AD00010920B0B10920C0B1092010B1092020B38
:101AE0001092030B1092040B40E050E0BA018EE11B
:101AF0009AE00E94FE3C40E050E0BA018FE59AE097
:101B00000E94FE3C40E050E0BA0180EA9AE00E9468
:101B1000FE3C40E050E0BA0181EE9AE00E94FE3CBB
:101B20008EE19AE00E94622F8FE59AE00E94622F78
:101B300080EA9AE00E94622F81EE9AE00E94622F72
:101B40000E94664757C00E94362BDC01CB018C19DE
:101B50009D09AE09BF098E3E9240A105B10510F462
:101B60000C9417040C942D04E12FF0E0EE0FFF1FEE
:101B7000ED5FFC4F80818093C10B81818093C20B0C
:101B80001093C30B0093C40B0C946105813049F48E
:101B90008090570B9090580BA090590BB0905A0B17
:101BA00015C0823049F480905B0B90905C0BA09044
:101BB0005D0BB0905E0B0AC0833041F480905F0BE8
:101BC0009090600BA090610BB090620BC501B401C6
:101BD0005ACD69E007C065E005C067E003C064E076
:101BE00001C062E0BB2009F4FACA75CC463008F4A3
:101BF0003ACC52CC6D960FB6F894DEBF0FBECDBF77
:101C0000DF91CF911F910F91FF90EF90DF90CF90D8
:101C1000BF90AF909F908F907F906F905F904F900C
:101C20003F902F9008952F923F924F925F926F9224
:101C30007F928F929F92AF92BF92CF92DF92EF925C
:101C4000FF920F931F93CF93DF93CDB7DEB7CB54A3
:101C5000D1090FB6F894DEBF0FBECDBF082F86E0C6
:101C600090E00E946345182F083209F49FC058F590
:101C70000A3009F453C090F4053009F482C030F4FE
:101C8000033011F40C9474160C94D91B083009F429
:101C90006DC1093009F45CC20C94D91B0E3111F4EA
:101CA0000C94A51630F4043111F40C9486160C949F
:101CB000D91B003211F40C94B116013211F40C94BA
:101CC000BE160C94D91B0D33B1F198F4023311F404
:101CD0000C94961728F4093209F447C30C94D91BC5
:101CE000043311F40C94A9170C3309F407C20C94B3
:101CF000D91B013411F40C94631930F40E3311F430
:101D00000C94F2170C94D91B043411F40C94771929
:101D1000053411F40C94791A0C94D91B87E090E0E7
:101D20000E94D4467C01812F0E945433C7010E9437
:101D3000FF320C94D91B81110C94D91B87E090E0E1
:101D40000E946345182F88E090E00E94D4466627E1
:101D50007727681B790B113011F40C94B3181230EB
:101D600031F48EEE98E00E9475240C94D91B133048
:101D700011F40C94BD18143011F00C94D91B0C9470
:101D8000C41886E090E00E94D44666277727681B37
:101D9000790B8EE699E00E94752488E090E00E941D
:101DA000D44666277727681B790BDBCF87E090E066
:101DB0000E94D4467C0189E090E00E9494464B0149
:101DC0005C01113091F561E070E0CE0101960E9456
:101DD000153DBE016F5F7F4F8EE19AE00E94DD45A9
:101DE000B501A4018EE19AE00E94FE3CB701FF0C10
:101DF000880B990B0E94AE5C6B017C01AB01BC01AE
:101E00008EE19AE00E94AF318EE19AE00E94A33207
:101E10008EE19AE00E949332B701A6018EE19AE02A
:101E20000E94C62F8EE19AE033C01230A9F562E01D
:101E300070E0CE0101960E94153DBE016F5F7F4F9D
:101E40008FE59AE00E94DD45B501A4018FE59AE097
:101E50000E94FE3CB701FF0C880B990B0E94AE5C00
:101E60006B017C01AB01BC018FE59AE00E94AF31B0
:101E70008FE59AE00E94A3328FE59AE00E949332A8
:101E8000B701A6018FE59AE00E94C62F8FE59AE080
:101E90000E945D2F0C94D91B133091F563E070E024
:101EA000CE0101960E94153DBE016F5F7F4F80EA13
:101EB0009AE00E94DD45B501A40180EA9AE00E9403
:101EC000FE3CB701FF0C880B990B0E94AE5C6B01C6
:101ED0007C01AB01BC0180EA9AE00E94AF3180EA4C
:101EE0009AE00E94A33280EA9AE00E949332B701FE
:101EF000A60180EA9AE00E94C62F80EA9AE0C8CF45
:101F0000143011F00C94D91B64E070E0CE010196FE
:101F10000E94153DBE016F5F7F4F81EE9AE00E94E7
:101F2000DD45B501A40181EE9AE00E94FE3CB701B7
:101F3000FF0C880B990B0E94AE5C6B017C01AB011E
:101F4000BC0181EE9AE00E94AF3181EE9AE00E94DE
:101F5000A33281EE9AE00E949332B701A60181EE8E
:101F60009AE00E94C62F81EE9AE092CF87E090E03F
:101F70000E946345C82E88E090E00E946345082FC8
:101F800089E090E00E946345F82E8AE090E00E948C
:101F90006345E82E8BE090E00E946345D82E809147
:101FA000D10B81130C946A1B8091D20B8C110C9471
:101FB0006A1B20C022E0C2120C94A91B8091D00B96
:101FC000282F30E0F901EE5AFA4FE491E093DD0B4F
:101FD000F901E45FFA4FE491F0E0EE0FFF1FEC52DD
:101FE000FA4F259134913093DA0B2093D90B61E0AD
:101FF0000E94C83A002329F10150202F30E080913F
:10200000D30B9091D40B2817390700F5802F880F38
:10201000080F10E0E091D50BF091D60BE00FF11F07
:10202000E082E091D50BF091D60BE00FF11FF18229
:102030008091D50B9091D60BFC01E00FF11FD2825D
:1020400005C04D2D6E2D8F2D0E9466328091D30BD1
:102050009091D40BAC01440F551F8A01080F191F32
:10206000E090D50BF090D60BA801B7018091D70B6B
:102070009091D80B0E94065C892B11F40C94D91B0B
:10208000A091D90BB091DA0B8091DD0B3FB7F8949A
:102090002C91982F90959223822BF701AF01400F3E
:1020A000511FE417F50781F0219168E08C9300C07F
:1020B00027FF9C93220F00C000C000C008F49C932F
:1020C00000C06A9599F7EDCF3FBF4091D30B509177
:1020D000D40BCA01880F991F480F591F6091D50B67
:1020E0007091D60B8091D70B9091D80B0E94135C06
:1020F0008BEC97E00197F1F70C94D91B87E090E007
:102100000E946345082F123111F00C94D91B0E94D4
:102110007945053060F40093530483E990E00E9410
:10212000C026801711F40C94D91B602F0BC010929D
:10213000530483E990E00E94C026882311F40C9494
:10214000D91B60E083E990E00E94BE260C94D91B65
:102150008091C70B811761F11093C70BE12FF0E05D
:10216000EE0FFF1FED5FFC4F81818093C60B9081C6
:102170009093C50B8093CD0B9093CE0B61E00E94A2
:10218000C83A61E08091CE0B0E94C83A80E4809307
:10219000C90B80EC8093CA0B8AE88093CB0B80E25A
:1021A00089838A838B838C83CE0101960E941F32A0
:1021B00087E090E00E94B6466B017C0119821A828A
:1021C0001B821C8220E030E0A9010E94A85C87FFEE
:1021D0000BC0F7FAF094F7F8F09481E2898361E09C
:1021E00027966FAF279703C027961FAE2797BDEF9F
:1021F0002B2E33243A9403E010E028961FAE289744
:1022000017FD4CC0B8016F5F7F4F072E000C880B85
:10221000990B0E94AE5C9B01AC0160E070E080E233
:1022200091E40E947A584B015C019B01AC01C7010B
:10223000B6010E945E570E94F7572B013C01B8017E
:10224000012E000C880B990B0E94AE5C9B01AC0127
:1022500060E070E080E291E40E947A582C966CAFC6
:102260007DAF8EAF9FAF2C97A5019401C301B20142
:102270000E940D5D9B01AC01C701B6010E949756FB
:102280002C962CAD3DAD4EAD5FAD2C970E945E57A8
:102290000E94F7570E94C657CB0123C020E030E0D0
:1022A00040E251E4C701B6010E940D5DA2E02A168A
:1022B000310484F020E030E040E251E40E940D5D02
:1022C000B2E02B16310431F020E030E040E251E47E
:1022D0000E940D5D0E94C657CB016AE070E00E942B
:1022E0007C561816190644F0002331F02896EFADFD
:1022F0002897EE2329F10FC001110DC0E1E0F0E0B5
:10230000EC0FFD1F27962FAD2797E20FF11D60E11F
:10231000680F60830AC0E1E0F0E0EC0FFD1F279634
:102320006FAD2797E60FF11D808327967FAD279726
:102330007F5F27967FAF279781E028968FAF2897FA
:1023400027969FAD2797943050F401501109AFEFB5
:102350002A1A3A0A0C3FBFEF1B0709F051CFCE01F2
:1023600001960E941F320C94D91B8091920B811709
:10237000B1F1E12FF0E0EE0FFF1FED5FFC4F808128
:102380008093940B91819093950B1093920B61E045
:102390000E94C83A61E08091950B0E94C83A61E0C2
:1023A0008091940B0E94993A61E08091950B0E9474
:1023B000993A80E40E9462288CE80E946228E8E949
:1023C000FBE080E18E0F11928E13FDCF81E08093B0
:1023D000960B1092970B88E99BE00E94052887E0F6
:1023E00090E00E946345813009F07AC188E090E076
:1023F0000E946345F82E89E090E00E946345B82E64
:102400008AE090E00E946345082F880F110BFBECD7
:102410008F2EF3E09F2EC12CD12CC016D1065CF478
:10242000C6010B960E946345F40181934F01FFEFB3
:10243000CF1ADF0AF2CFF801E553FC4F10820F2DBF
:10244000FF0C110B81E08093970BE12CF12CF7012D
:10245000E553FC4F8081F701E057F44F882321F0CA
:1024600023E1E216F10481F4F092AC0BE092AB0BA5
:10247000158E2AEFB7012603A001279F500D1124C6
:102480000417150764F005C0858F7FEFE71AF70A78
:10249000DECF0131110524F000E110E001C08A0116
:1024A0001093A90B0093A80B8B2D80310CF08FE0BB
:1024B000282F87FD2FEF2093AA0B101611060CF082
:1024C00069C040E050E0842F4017510759F04F5F3A
:1024D0005F4F4131510509F4CFC0FA01E057F44F85
:1024E0001782F1CF403109F4C7C090E037E0E0E255
:1024F000BE2E492F50E04E155F050CF042C0A12CB6
:10250000BA016355744F6B013A9DD0011124BD018E
:1025100068587D4FFB011491103429F1FB01949010
:10252000F6010081002E000C110BE92DF0E00E17D2
:102530001F07B9F400E010E01196FD01E00FF11F54
:10254000E858FD4FD490E82FF0E0E057F44FD086E4
:102550008F5F803141F00F5F1F4F0630110569F723
:1025600002C0A394D1CFFB016491603429F4FA0135
:10257000E057F44FB58E91509F5F803109F0B9CF8D
:102580007BC0E82FF0E0E057F44F10868F5F80317A
:10259000C1F772C00417150741F4E8E9FBE080E1D8
:1025A0008E0F11928E13FDCF67C0EE27FF27E01B21
:1025B000F10BCF0166E070E00E947C56382FF0935B
:1025C000A90BE093A80BAB0190E087E070E2972E97
:1025D0004E155F050CF047C0812CBA016355744F4E
:1025E0006B01889DD0011124BD0168587D4FFB010E
:1025F000B490F0E4BF1619F1FB017490F601A080CD
:102600000A2C000CBB08E72DF0E0AE16BF06A1F4C3
:10261000FD01E30FF11D37FDFA95E758FD4FD4900A
:10262000E92FF0E0E057F44FD0869F5F903130F40F
:102630003F5F363069F702C08394D3CF30E0FB01AF
:102640006491603431F4FA01E057F44F958E4150B3
:1026500051094F5F5F4F903108F4BACF1093A90B27
:102660000093A80B09C0E92FF0E0E057F44F108663
:102670009F5F9031C1F7F2CF822F220F990B27E095
:1026800030E0281B390BE8E9FBE037FD14C090E18E
:102690009E0F8081022E01C0880F0A94EAF7819371
:1026A0009E13F7CF8091960B81110FC3E8E9FBE0F1
:1026B00090E19E0F0FC0079740E14E0F208130E060
:1026C000082E02C0359527950A94E2F721934E1300
:1026D000F5CFE8CF8081809581939E13FBCFF5C223
:1026E000823009F09DC088E090E00E946345E82EAA
:1026F00089E090E00E946345F82E6FEDC62E63E0FE
:10270000D62E0AE010E0C8010E946345D6018D93E1
:102710006D010F5F1F4F0A311105A9F7BFE0BE150C
:1027200014F40C94D91BE7E0EF1514F40C94D91BA6
:102730008091960B6F2D0F2C000C770B4E2DEE0C0D
:10274000550B2FED33E090E1920F28E030E0261B8F
:10275000370B882391F18FEFE82E01C0EE0C2A95FC
:10276000EAF7DA01A856B44FEFEDF3E04F5D5340BE
:1027700000271127061B170B9A012E0F3F1F37FD4D
:1027800017C02C91DE2CD2221F1454F48081282FE4
:1027900030E0062E02C0359527950A94E2F706C070
:1027A0002081002E01C0220F0A94EAF72D292C93D4
:1027B000119631969E13E0CF88C28FEFE82E01C0AC
:1027C000EE0C2A95EAF7DA01A856B44FEFEDF3E0E4
:1027D0004F5D534000271127061B170B9A012E0F40
:1027E0003F1F37FD18C02C91DE2CD2228081282F6C
:1027F00030E0209530951F143CF4062E02C035952C
:1028000027950A94E2F705C0002E01C0220F0A9412
:10281000EAF72D292C93119631969E13DFCF55C2DE
:10282000833009F099C088E090E00E946345182F3A
:1028300089E090E00E946345082F8AE090E00E94C2
:102840006345582F4AE0802F642F0E945C56282F42
:1028500030E0F901EE0FFF1F2E0F3F1FF901E55386
:10286000FB4FE491E093980BF901E453FB4FE491A3
:10287000E093990BF901E353FB4F249120939A0BBA
:1028800010929B0B292F30E0F901EE0FFF1F2E0F46
:102890003F1FF901E553FB4FE491E0939C0BF901D5
:1028A000E453FB4FE491E0939D0BF901E353FB4F9D
:1028B000249120939E0B852F0E945C56282F30E098
:1028C000F901EE0FFF1F2E0F3F1FF901E553FB4FDC
:1028D000E491E093A10BF901E453FB4FE491E09301
:1028E000A20BF901E353FB4F24912093A30B109209
:1028F000A40B292F30E0F901EE0FFF1F2E0F3F1F11
:10290000F901E553FB4FE491E093A50BF901E45382
:10291000FB4FE491E093A60BF901E353FB4F2491A5
:102920002093A70B112331F088E280939F0B8093B3
:10293000A00B04C010929F0B1092A00B8091960BDD
:102940008111C3C1E8E9FBE090E19E0F8081809591
:1029500081939E13FBCFB9C1843009F02AC788E068
:1029600090E00E94B6466B017C014B015C01B7FA16
:10297000B094B7F8B09420E030E0A9010E94A85CC0
:1029800087FF09C027968FAE279728969FAE289776
:102990003A2C2B2C08C02796CFAE27972896DFAE6F
:1029A00028973E2C2F2C03E0BAE08B2E912C20E0B0
:1029B0003EE34CE156E4C701B6010E946F5887FD23
:1029C00005C089E023968FAF23970FC020E030EE3B
:1029D00049E754ECC701B6010E94A85C18167CF0C8
:1029E0008BE023968FAF239789E024968FAF2497AF
:1029F00025968FAF259726968FAF2697EEC020E0BD
:102A000030E0A901C701B6010E94A85CA82EAA1C4B
:102A1000AA24AA1C10E060E070E080E09FE3101799
:102A200041F020E030E040E251E40E945E571F5F39
:102A3000F6CF9B01AC0127966FAD279728967FAD07
:102A40002897832D922D0E9498562B013C010E94BD
:102A5000CB579B01AB0110E0CA01B4010E9468563C
:102A6000E1E0F0E0EC0FFD1FE10FF11D8AE0689F4F
:102A70004019112440831F5FAB01672B69F7812F39
:102A80008A0DB82EB00E94E09B1518F404E0081BD4
:102A90008ECF8CE023968FAF239724968FAF249709
:102AA00025968FAF259726968FAF2697B90180E0A0
:102AB00090E00E94AC5C9B01AC01C301B2010E949A
:102AC00097562B013C0184E0F82EFB18AA2059F000
:102AD000E2E4F0E0EC0FFD1FEF0DF11D8BE08083D1
:102AE00085E0F82EFB18F10E8F2D811B112369F064
:102AF000E2E4F0E0EC0FFD1FE80FF11DDE01A10F95
:102B0000B11D8C9180831150EFCF002309F465C073
:102B1000A3E0FA120EC020E030E040E251E4C3012D
:102B2000B2010E940D5D0E94C657672B21F58CE013
:102B300062CFB2E0FB120EC020E030E048EC52E47D
:102B4000C301B2010E940D5D0E94C657672B99F424
:102B50008CE04ECFE1E0FE120EC020E030E04AE70C
:102B600054E4C301B2010E940D5D0E94C657672B59
:102B700011F48CE03ACF11E01F0DE2E4F0E0EC0F2D
:102B8000FD1FEF0DF11D8AE08083015030F120E040
:102B900030E040E251E4C301B2010E940D5D4B01FF
:102BA0005C010E94C657FF24F394F10EE2E4F0E0CA
:102BB000EC0FFD1FE10FF11D6083072E000C880B49
:102BC000990B0E94AE5C9B01AC01C501B4010E944F
:102BD00097562B013C011F2DD8CF23968FAD2397FD
:102BE00090E0FC01EE0FFF1F8E0F9F1FFC01E553CD
:102BF000FB4FE491E093980BFC01E453FB4FE4910D
:102C0000E093990BFC01E353FB4FE491E0939A0BA3
:102C100010929B0B24968FAD249790E0FC01EE0F51
:102C2000FF1F8E0F9F1FFC01E553FB4FE491E093C4
:102C30009C0BFC01E453FB4FE491E0939D0BFC01E2
:102C4000E353FB4FE491E0939E0B10929F0B25966C
:102C50008FAD259790E0FC01EE0FFF1F8E0F9F1F99
:102C6000FC01E553FB4FE491E093A00BFC01E4531E
:102C7000FB4FE491E093A10BFC01E353FB4FE49184
:102C8000E093A20B1092A30B26968FAD269790E0AF
:102C9000FC01EE0FFF1F8E0F9F1FFC01E553FB4F42
:102CA000E491E093A40BFC01E453FB4FE491E09327
:102CB000A50BFC01E353FB4FE491E093A60B1092AC
:102CC000A70B8091960B882329F088E99BE00E944E
:102CD00005286FC5E8E9FBE090E19E0F80818095B3
:102CE00081939E13FBCFF1CF8091C30B811729F005
:102CF000612F81EC9BE00E948A3D87E090E00E947A
:102D0000634561E0811113C060E011C08091C30B85
:102D1000811729F0612F81EC9BE00E948A3D87E0BA
:102D200090E00E946345823038F4682F617081EC36
:102D30009BE00E94BC3D3DC561E0823009F460E04B
:102D400081EC9BE00E94AE3D34C561E00E94C83A30
:102D500087E090E00E946345682F812F0E94993A96
:102D600028C561E00E94C83A87E090E00E94634570
:102D7000682F70E0812F0E94043B1BC587E090E024
:102D80000E946345982EF4EBF81708F412C5812FC2
:102D900090E0EFEEF3E020E030E0419151914817F0
:102DA000590789F0452B41F4F901EE0FFF1FE1515E
:102DB000FC4F9183808307C02F5F3F4F2C3031053C
:102DC00061F720E030E0F901EE0FFF1F2E0F3F1FEB
:102DD000F901E250F44F008121818281E02EF12C33
:102DE0006701CC0CDD1CA6014E0D5F1DBA016F5AA8
:102DF000784F5B01DB019C9197FD48C0003308F0E0
:102E0000D8C461E0812F0E94C83AE12FEF77D50145
:102E10001C911078E12BEC93802F6CE00E945C56A3
:102E2000BCE08B9FB001112440E050E09A01260FD6
:102E3000371FF901EE0FFF1F2E0F3F1FF901EF5A49
:102E4000F84F908197FD17C04F5F5F4F4C30510591
:102E500069F7813009F081C41092800082E080938C
:102E600081001092850010928400B19A80916F00C9
:102E7000826080936F00F601EE0DFF1DEF5AF84F50
:102E800080818068808380E020E003C0003308F008
:102E900090C448E552E05A01A81AB10887FDB394DE
:102EA000AA0CBB1CAA0CBB1C88E890E0821B9109F1
:102EB00027FD93958C01000F111F000F111F280192
:102EC000012E000C66087708C5010B2C000CAA0B1C
:102ED000BB0B9C01AD012419350946095709A92DE1
:102EE000B0E00E94F35D24EB30E040E050E00E944F
:102EF000D75DDA01C901840D951DA61DB71D801788
:102F000091072CF08C01A816B9060CF48501C801B4
:102F10000297880F991F2FB7F894F601EE0DFF1D49
:102F2000EF5AF84F928381832FBF43C40E94362B00
:102F30000E94AC5C20E030E04AE754E40E945E5717
:102F400060936104709362048093630490936404BB
:102F500030C481112EC487E090E00E94D4468C01D9
:102F600089E090E00E94D446BC01990F880B990B30
:102F70000E94AE5C90582AE939E949E15EE30E947B
:102F80000D5D6B017C0160931F047093200480939E
:102F9000210490932204B801110F880B990B0E9411
:102FA000AE5C2DEC3CEC4CE45EE30E940D5D609366
:102FB0003F04709340048093410490934204C701FE
:102FC000B6010E94C6579B0177FF04C02227332712
:102FD000261B370B223031050CF4EBC381E08093C4
:102FE0001204E7C387E090E00E946345082F113088
:102FF00009F048C088E090E00E9494466B017C0193
:103000008CE090E00E94D44697FF03C09195819593
:103010009109013069F4BC01990F880B990B0E944A
:10302000AE5C8B019C01B701A6018EE699E048C118
:10303000023049F4BC01990F880B990B0E94AE5CD9
:103040008B019C0139C1033069F4BC01990F880BD5
:10305000990B0E94AE5C8B019C01B701A6018EE624
:1030600098E02EC1043009F0A4C3BC01990F880B6D
:10307000990B0E94AE5C8B019C01B701A6018EEEFC
:1030800097E01EC1123009F065C088E090E00E9410
:10309000D4460130B1F4BC01990F880B990B0E9402
:1030A000AE5C21E020936E0920936F0960937C0948
:1030B00070937D0980937E0990937F091092D809BF
:1030C00078C30230B1F4BC01990F880B990B0E94B0
:1030D000AE5C21E02093EE082093EF086093FC089B
:1030E0007093FD088093FE089093FF081092580992
:1030F00060C30330B1F4BC01990F880B990B0E9497
:10310000AE5C21E020936E0820936F0860937C08EA
:1031100070937D0880937E0890937F081092D80862
:1031200048C3043009F045C3BC01990F880B990BC3
:103130000E94AE5C21E02093EE072093EF0760939E
:10314000FC077093FD078093FE079093FF07109292
:1031500058082FC31330E1F488E090E00E94D44671
:10316000BC01013021F48EE699E00C94B30E0230DC
:1031700011F40C94B10E033021F48EE698E00C9417
:10318000B30E043009F015C38EEE97E00C94B30E25
:10319000143069F5813049F4109294091092950920
:1031A000109296091092970904C3823049F4109244
:1031B0001409109215091092160910921709F9C2F4
:1031C000833049F410929408109295081092960852
:1031D00010929708EEC2843009F0EBC210921408E6
:1031E000109215081092160810921708E2C21530B6
:1031F00009F0DFC288E090E00E9494466B017C01F8
:103200008CE090E00E94D4460130D1F4BC01990FCB
:10321000880B990B0E94AE5C4B015C018B019C01F9
:10322000B701A6018EE699E00E941656442755275D
:10323000BA014C195D096E097F09950184013EC0F0
:10324000023091F4BC01990F880B990B0E94AE5C7F
:103250004B015C0144275527BA014C195D096E09E1
:103260007F099501840122C0033049F4BC01990F04
:10327000880B990B0E94AE5C4B015C0113C00430BB
:1032800009F097C2BC01990F880B990B0E94AE5CA4
:103290004B015C01F094E094D094C094C11CD11C0B
:1032A000E11CF11C95018401B701A6018EE699E0AD
:1032B0000E94165695018401B701A6018EEE98E092
:1032C0000E94165676C287E090E00E94D4467C01A8
:1032D000612F81EF9BE00E948A3D84EF91E0909303
:1032E000F80B8093F70BC7010E94C82762C287E0E2
:1032F00090E00E946345082F113009F077C08130BB
:10330000D9F480910D0490910E04009769F483E044
:1033100090E00E94F1598C0161E00E94DD3E109323
:103320000E0400930D0403C061E00E94C63E80912C
:103330000D0490910E0457C08230D9F480910B0493
:1033400090910C04009769F483E090E00E94F15999
:103350008C0162E00E94DD3E10930C0400930B048C
:1033600003C062E00E94C63E80910B0490910C0461
:103370003AC08330D9F48091090490910A040097EF
:1033800069F483E090E00E94F1598C0163E00E94AF
:10339000DD3E10930A040093090403C063E00E9419
:1033A000C63E8091090490910A041DC0843009F042
:1033B00000C28091070490910804009769F483E0AB
:1033C00090E00E94F1598C0164E00E94DD3E109370
:1033D00008040093070403C064E00E94C63E809185
:1033E0000704909108040E94AC3EE3C1123009F03A
:1033F000E0C188E090E00E946345F82E0130E1F4DE
:1034000080910D0490910E04892B79F483E090E073
:103410000E94F1598C0161E00E94DD3E10930E0480
:1034200000930D04C8010E94AC3E6F2D70E08091A6
:103430000D0490910E045AC00230E1F420910B0467
:1034400030910C04232B79F483E090E00E94F15931
:103450008C0162E00E94DD3E10930C0400930B048B
:10346000C8010E94AC3E6F2D70E080910B049091DA
:103470000C043CC00330E1F42091090430910A04AB
:10348000232B79F483E090E00E94F1598C0163E0F2
:103490000E94DD3E10930A0400930904C8010E94B3
:1034A000AC3E6F2D70E08091090490910A041EC01B
:1034B000043009F07EC12091070430910804232BC9
:1034C00079F483E090E00E94F1598C0164E00E945D
:1034D000DD3E1093080400930704C8010E94AC3E2F
:1034E0006F2D70E080910704909108040E94823E45
:1034F00060C187E090E00E946345D82E88E090E0AC
:103500000E946345082F113009F04CC089E090E01B
:103510000E9494464B015C018DE090E00E94D446ED
:103520007C0197FF03C0F194E194F108E091C90395
:10353000F091CA030150309771F488E190E00E9445
:10354000F159FC010083D1829093CA038093C9038F
:103550000E94A22702C0D18200830091C90310916A
:10356000CA03D8018C9116968C93169782E0179611
:103570008C9380E090E0A0E8BFE3F801808791871A
:10358000A287B38784869586A686B786B701FF0C87
:10359000880B990B0E94AE5CF801608B718B828B5B
:1035A000938B3DC01230E9F589E090E00E94D4464B
:1035B0007C01E091C903F091CA030150309779F47E
:1035C00088E190E00E94F159DC010C931196DC92A5
:1035D0009093CA038093C9030E94A22702C0D1829C
:1035E00000830091C9031091CA03F801808186838A
:1035F00083E0878380E090E0A0E8BFE38087918745
:10360000A287B387B701FF0C880B990B0E94AE5CB1
:10361000D8011C966D937D938D939C931F97C80141
:1036200050C0133039F589E090E00E94D4467C0107
:10363000E091C903F091CA030150309771F488E119
:1036400090E00E94F159FC010083D1829093CA035B
:103650008093C9030E94A22702C0D1820083E09117
:10366000C903F091CA038081868384E18783F18650
:10367000E08626C0143009F09CC0E091C903F091A7
:10368000CA030150309771F488E190E00E94F1592B
:10369000FC010083D1829093CA038093C9030E94E6
:1036A000A22702C0D1820083E091C903F091CA032E
:1036B0008081868382E18783108611861286138635
:1036C000CF010E94212562E070E080E090E00E943E
:1036D0000F3C6FC01093D10BC092D20BE12FF0E0E2
:1036E000EE0FFF1FED5FFC4F81818093D00B808137
:1036F0008093CF0B40E060E080E00E94663220E0E3
:1037000030E092E081E04091D30B5091D40B24172C
:10371000350710F00C94DA0FE22FEE0FE20FF0E015
:10372000A091D70BB091D80BAE0FBF1F9C93A09167
:10373000D70BB091D80BAE0FBF1F11961C924091C2
:10374000D70B5091D80BE40FF51F82832F5F3F4FAB
:10375000DACF8091CF0B0C94E00F823061F410929D
:10376000900080939100109295001092940088BB75
:103770008093710080CB833069F41092A00082E0C6
:103780008093A1001092A5001092A40089BB8093A1
:10379000720071CB81116FCB1092200182E0809377
:1037A000210110922501109224018ABB809373009D
:1037B00062CBC55BDF4F0FB6F894DEBF0FBECDBF47
:1037C000DF91CF911F910F91FF90EF90DF90CF90FD
:1037D000BF90AF909F908F907F906F905F904F9031
:1037E0003F902F900895BF92CF92DF92EF92FF9279
:1037F0000F931F93CF93DF931F92CDB7DEB78C014A
:10380000D42EB52EC22EFC01848169830E94982794
:10381000698185E497E00E942B2A813011F580E0D0
:103820000E943B27811125C06C2DF80184810E94E4
:103830007433ED2CFB2C00E010E0D12C909122058C
:1038400080912305981779F00C151D0564F40F5F1E
:103850001F4F85E497E00E94E029F70181937F01E3
:10386000EDCF8FEF06C081E00C151D0509F480E057
:1038700081950F90DF91CF911F910F91FF90EF9065
:10388000DF90CF90BF900895CF93DF931F921F9248
:10389000CDB7DEB74983FC0184816A830E949827F3
:1038A0006A8185E497E00E942B2A813069F441E027
:1038B00050E0BE016F5F7F4F85E497E00E94FC29D6
:1038C00081E00E943B2701C08FEF0F900F90DF91A6
:1038D000CF910895CF93DF93EC0188E690E09FA30A
:1038E0008EA38BA18823A1F089A140E855E260E076
:1038F00070E08F3019F48EE695E004C0803129F431
:1039000088EA96E00E94C2269DC08BE096E0FACF3E
:103910001B8E1A8E198E188E1F8A1E8A8DE991E0D1
:103920009D8F8C8F8C8596EF980F943048F02EECFD
:10393000280F243028F022EC280F283008F062C02D
:103940002DEB30E03F8B2E8B2BE931E0398F288F28
:103950002CE231E03B8F2A8F943060F02EEC280F60
:10396000243040F022EC280F283008F471C0A0E089
:10397000B0E070C0A8E6B0E0E8E6F0E02081943066
:1039800018F08E53883010F081E001C084E0822B63
:103990008C938C8596EF980F943058F02EEC280F6E
:1039A000243038F022EC280F283030F020E030E0CE
:1039B00005C02BE630E002C02DE630E03C8B2B8BBF
:1039C000943010F49AEF0BC0823381F0833381F08E
:1039D000843381F092EC980F983070F492EC980F49
:1039E00081E001C0880F9A95EAF707C088E005C01A
:1039F00084E003C082E001C081E08D8B8C8D9D8DC1
:103A00000197F1F78A8D9B8D892BE1F08091450D0F
:103A10009091460D8C179D07A9F0009711F00E9418
:103A2000622D8E8D8E7F8E8F1092430D1092440DDD
:103A3000D093460DC093450DEB89FC8990818D890B
:103A4000892B808360E08F8DDF91CF910C94C83AF1
:103A5000A8E6B0E0283008F48FCFE0E0F0E08ECFA9
:103A60001F920F920FB60F9211240BB60F920F9365
:103A70001F932F933F934F935F936F937F938F93F6
:103A80009F93AF93BF93CF93EF93FF9382E00E94F6
:103A9000713AC82F8091BB049091BC040196909319
:103AA000BC048093BB0480912105843618F085E026
:103AB0008093B6049091B604933079F018F4923064
:103AC00039F072C0943011F1953009F44AC06CC0DD
:103AD000C1116AC01092210529C0C13009F064C02B
:103AE000E091210581E08E0F80932105F0E0809127
:103AF000BB049091BC04EB54FB4F80871092BC0434
:103B00001092BB0484E08093B6044EC0C11114C06F
:103B1000E091210581E08E0F80932105F0E08091F6
:103B2000BB049091BC04EB54FB4F80871092BC0403
:103B30001092BB0483E0E7CF8091BB049091BC045A
:103B40008536910588F185E08093B6040E94362B76
:103B50006093B7047093B8048093B9049093BA0447
:103B600023C00E94362B0091B7041091B804209115
:103B7000B9043091BA04DC01CB01801B910BA20B7C
:103B8000B30B893C9105A105B10540F010922105C8
:103B90001092BC041092BB0482E0B5CFC11104C0E6
:103BA0001092BC041092BB04FF91EF91CF91BF9192
:103BB000AF919F918F917F916F915F914F913F91C5
:103BC0002F911F910F910F900BBE0F900FBE0F9072
:103BD0001F901895EF92FF920F931F93CF93DF934F
:103BE000FC016F3F710519F014F06FEF70E0EB010D
:103BF00061307F4F14F4C1E0DFEF808591858C1731
:103C00009D07D1F1D187C087D583C483DF01A05937
:103C1000BF4FCF018F589F4F7C018F0101591F4F1C
:103C2000D7FF12C060E08C910E94993A8FE090E03B
:103C30000197F1F761E0F70180810E94993A6627C8
:103C400077276C1B7D0B0EC061E08C910E94993A26
:103C50008FE090E00197F1F760E0F70180810E942A
:103C6000993ABE01F8018081DF91CF911F910F91A8
:103C7000FF90EF900C94043BDF91CF911F910F9137
:103C8000FF90EF9008952F923F924F925F926F9224
:103C90007F928F929F92AF92BF92CF92DF92EF92DC
:103CA000FF920F931F93CF93DF93CDB7DEB72A9781
:103CB0000FB6F894DEBF0FBECDBF9A878987DC01AF
:103CC00096966D917D918D919C91999712960D91FB
:103CD0001C91139756962D913D914D915C9159975A
:103CE0002D833E834F8358870E94AE5C6B017C011D
:103CF000B801110F880B990B0E94AE5C2D813E819B
:103D00004F8158850E940D5D9B01AC01C701B60132
:103D10000E945E5720E030E044EB53E40E940D5DCA
:103D20000E94C657E985FA85628F738F848F958FBD
:103D30000E94362B09851A850A581F4FD801CD904D
:103D4000DD90ED90FC90DC01CB018C199D09AE0952
:103D5000BF094597A105B10508F467C00E94362B3D
:103D60006B017C01E985FA8586A097A0A0A4B1A487
:103D700082A193A1A4A1B5A122803380268937898D
:103D8000408D518D29833A834B835C83A501940137
:103D9000281B390B4A0B5B0BCA01B9010E94AE5CB0
:103DA0002B013C01D8018D919C91C81AD90AB6010A
:103DB00080E090E00E94AC5C9B01AC0160E070E0B0
:103DC0008AE794E40E945E579B01AC01C301B201F3
:103DD0000E940D5D20E030E040E752E40E940D5D5E
:103DE0006B017C01B101330C880B990B0E94AE5C16
:103DF00029813A814B815C810E940D5D9B01AC0160
:103E0000C701B6010E945E57E985FA85628773870C
:103E10008487958782A293A2A4A2B5A20E94362B82
:103E2000F8016083718382839383A985BA859C900E
:103E3000B1E09B1278C30E94362B09851A8506587B
:103E40001F4FF801C080D180E280F380DC01CB01FC
:103E50008C199D09AE09BF098997A105B10508F420
:103E600033C40E94362BD8016D937D938D939C9320
:103E70001397E985FA858181811179C2868D978DA5
:103E8000A0A1B1A1028D138D248D358DBC01CD0172
:103E9000601B710B820B930B0E94AE5C6B017C016B
:103EA000A984BA84FAE6AF0EB11CD5018C910985BC
:103EB0001A850C581F4F8111B4C1E985FA85E5595F
:103EC000FF4F808120E030E0A901882339F0C7014D
:103ED000B6010E94A85C87FF33C006C0C701B601C7
:103EE0000E946F58181664F5E985FA852285338596
:103EF00044855585EE5AFF4F60817181828193819F
:103F00000E940D5DDC01CB01B058E985FA85E65AC7
:103F1000FF4F80839183A283B3836081718182810B
:103F200093810E94C6579B01D8016D937C93F50144
:103F30009082A985BA8515967C936E931497EEC2EC
:103F400020E030E0A901C701B6010E946F582601A8
:103F50003701181624F077FA709477F87094E98591
:103F6000FA85668577858089918920E030E040EC8C
:103F700050E40E940D5D9B01AC01C301B2010E949F
:103F80006F5887FFC1C320E030E0A901C701B60127
:103F90000E946F5818165CF420E030E040E251E4D3
:103FA000C701B6010E946F5818165CF03AC120E0B4
:103FB00030E040E251ECC701B6010E94A85C87FFE7
:103FC00030C1E985FA85468457846088718820E08D
:103FD00030E040E251E4C701B6010E9497564B0120
:103FE0005C0120E030E040EC50E4C301B2010E94EB
:103FF0000D5DA50194010E940D5D20E030E0A90156
:104000000E946F5818169CF4A985BA851E966D916A
:104010007D918D919C91519720E030E040EC50E4EF
:104020000E940D5DA50194010E940D5D11C0E985FE
:10403000FA85668577858089918920E030E040ECBB
:1040400050E40E940D5DA50194010E940D5D905801
:104050000E94CA5820E030E040EC50E40E945E57D5
:104060002B013C01A985BA851A968D909D90AD9043
:10407000BC901D9720E030E0A901C701B6010E9465
:104080006F58A701960118160CF05058E985FA856B
:10409000EE5AFF4F80819181A281B38189839A83F7
:1040A000AB83BC83C701B6010E945E579B01AC0184
:1040B000C301B2010E940D5D9B01AC01C501B401B9
:1040C0000E9497569B01AC0169817A818B819C810A
:1040D0000E940D5D2B013C0120E030E040EA51ECF4
:1040E0000E94A85C87FD11C020E030E040EA51E466
:1040F000C301B2010E946F5818166CF4412C512C68
:1041000040EA642E41E4742E06C0412C512C50EA42
:10411000652E51EC752ED8016D917C91072E000C07
:10412000880B990B0E94AE5CA984BA84BAE5AB0EE9
:10413000B11CF501608371838283938360817181F7
:1041400082819381A30192010E949756D5016D93BC
:104150007D938D939C93139720E030E0A901C701D4
:10416000B6010E946F5887FD24C0F50160817181FE
:104170008281938120E030E048EC51E40E94A85C09
:1041800087FD12C0D5016D917D918D919C9120E0AC
:1041900030E04FE753E40E946F58181624F580E092
:1041A00090E0AFE7B3E42EC080E090E0A8ECB1E48B
:1041B00029C0D5016D917D918D919C9120E030E0D9
:1041C0004FE753EC0E94A85C87FD13C0F5016081A6
:1041D00071818281938120E030E048EC51EC0E94B3
:1041E0006F5818165CF0F50180819181A281B3812E
:1041F00009C080E090E0AFE7B3EC04C080E090E05D
:10420000A8ECB1ECF50180839183A283B383608134
:104210007181828193810E94C657F8017183608306
:10422000A2C081E0D5018C93E985FA85E258FF4F61
:104230000190F081E02D309769F0A985BA85A459E5
:10424000BF4F6C9170E0A985BA85AD58BF4F8C9176
:1042500090E01995E985FA85228533854485558551
:10426000EE5AFF4F60817181828193810E940D5DC2
:104270004B015C0120E030E040EA51EC0E94A85C78
:1042800087FD11C020E030E040EA51E4C501B401EF
:104290000E946F5818166CF4812C912C20EAA22EE3
:1042A00021E4B22E06C0812C912C30EAA32E31ECF1
:1042B000B32EE985FA85E65BFF4F2081318142818B
:1042C0005381C701B6010E940D5DE984FA84FAE5C5
:1042D000EF0EF11CD7016D937D938D939C931397F3
:1042E0006D917D918D919C91A50194010E949756AD
:1042F000F7016083718382839383608171818281FE
:10430000938120E030E04FE753EC0E94A85C87FDEA
:1043100013C0D7016D917D918D919C9120E030E08B
:104320004FE753E40E946F5818165CF0F701808144
:104330009181A281B38109C080E090E0AFE7B3EC46
:1043400004C080E090E0AFE7B3E4F701808391839D
:10435000A283B38360817181828193810E94C65759
:10436000D8016D937C93F80120813181D7C0A98554
:10437000BA8511968C911197813009F0CDC01A96AB
:104380006D917D918D919C911D971E962D913D91E2
:104390004D915C9151979A96CD90DD90ED90FC9067
:1043A0009D970E9497569B01AC01C701B6010E94E0
:1043B0000D5D6B017C0120E030E048EC51EC0E9487
:1043C000A85C87FD11C020E030E048EC51E4C70153
:1043D000B6010E946F5818166CF4C12CD12C88ECD1
:1043E000E82E81E4F82E06C0C12CD12C98ECE92EE1
:1043F00091ECF92E09851A850C581F4FF801608140
:104400007181072E000C880B990B0E94AE5CA98568
:10441000BA85DA966D937D938D939C93DD97DA96AA
:104420006D917D918D919C91DD97A70196010E94E0
:104430009756E985FA8562AF73AF84AF95AF5F0198
:10444000FAE6AF0EB11CD5018C91E985FA85882377
:1044500029F012AE13AE14AE15AE1FC06685778577
:104460008089918920E030E0A9010E94A85C811137
:1044700014C020E030E0A901C701B6010E946F58C6
:1044800018160CF0FBC120E030E040E751E4C70112
:10449000B6010E94A85C87FDFCC1A985BA85DA96A1
:1044A0006D917D918D919C91DD9720E030E04FE7FB
:1044B00053EC0E94A85C87FD15C0E985FA8562ADC2
:1044C00073AD84AD95AD20E030E04FE753E40E943A
:1044D0006F58181664F0E985FA8582AD93ADA4ADE6
:1044E000B5AD09C080E090E0AFE7B3EC04C080E078
:1044F00090E0AFE7B3E4E985FA8582AF93AFA4AF6C
:10450000B5AF62AD73AD84AD95AD0E94C6579B014A
:10451000D8016D937C9302C020E030E0E985FA85F4
:1045200035832483D1C0E985FA858081823009F002
:10453000C3C10E94362B09851A8506581F4FD80122
:10454000CD90DD90ED90FC90DC01CB018C199D09A4
:10455000AE09BF098997A105B10508F4B5C00E944D
:10456000362BF8016083718382839383A985BA8592
:1045700014966D917C91159716960D911C91179735
:10458000072E000C880B990B0E94AE5C2DEC3CECC6
:104590004CE45FE30E940D5D6B017C01B801110FDB
:1045A000880B990B0E94AE5C2DEC3CEC4CE45EE376
:1045B0000E940D5D9B01AC01C701B6010E94985697
:1045C00020E030E0A9010E946F5887FD2DC0E985E9
:1045D000FA856481758106811781072E000C880B8E
:1045E000990B0E94AE5C2DEC3CEC4CE45FE30E9426
:1045F0000D5D6B017C01B801110F880B990B0E94B6
:10460000AE5C2DEC3CEC4CE45EE30E940D5D9B0146
:10461000AC01C701B6010E94985620E030E040E0AE
:104620005FE30E94985630C0A985BA8514966D91B3
:104630007C91159716960D911C911797072E000CDB
:10464000880B990B0E94AE5C2DEC3CEC4CE45FE3D4
:104650000E940D5D6B017C01B801110F880B990B55
:104660000E94AE5C2DEC3CEC4CE45EE30E940D5DE0
:104670009B01AC01C701B6010E94985620E030E0D2
:1046800040E05FE30E9497560E94C657E985FA858D
:104690007583648384819581181619061CF48481BE
:1046A000958109C0A985BA8514968D919C9115971D
:1046B0009195819591090B973CF4E985FA8586815E
:1046C0009781892B09F4F1C0A985BA8514966D915B
:1046D0007C911597CD012A960FB6F894DEBF0FBED8
:1046E000CDBFDF91CF911F910F91FF90EF90DF90A1
:1046F000CF90BF90AF909F908F907F906F905F9082
:104700004F903F902F9066CAA985BA851A962D9131
:104710003D914D915C911D9729833A834B835C8336
:104720001E968D909D90AD90BC90519720E030E00A
:10473000A901C701B6010E946F58181624F0A701FD
:104740009601505802C0A7019601A985BA859A968C
:104750004D905D906D907C909D97C701B6010E9431
:104760005E579B01AC01C501B4010E940D5D9B0128
:10477000AC0169817A818B819C810E9497569B0153
:10478000AC01C301B2010E940D5D6B017C0120E010
:1047900030E048EC51EC0E94A85C87FD11C020E09D
:1047A00030E048EC51E4C701B6010E946F5818167A
:1047B0006CF4C12CD12C68ECE62E61E4F62E06C018
:1047C000C12CD12C78ECE72E71ECF72EF80160812A
:1047D0007181072E000C880B990B0E94AE5CA98595
:1047E000BA85DA966D937D938D939C93DD97DA96D7
:1047F0006D917D918D919C91DD97A70196010E940D
:104800009756E985FA8562AF73AF84AF95AF62AD15
:1048100073AD84AD95AD20E030E04FE753EC0E94DE
:10482000A85C87FD17C0A985BA85DA966D917D9140
:104830008D919C91DD9720E030E04FE753E40E949A
:104840006F58181664F0E985FA8582AD93ADA4AD72
:10485000B5AD09C080E090E0AFE7B3EC04C080E004
:1048600090E0AFE7B3E4E985FA8582AF93AFA4AFF8
:10487000B5AF62AD73AD84AD95AD70CD20E030E0E5
:1048800040E751ECC701B6010E946F5818160CF0B2
:1048900004CEA985BA85DA961D921D921D921C92AE
:1048A000DD9781E0F5018083F8CDA985BA8515965D
:1048B0001C921E92149708CF2A960FB6F894DEBF6A
:1048C0000FBECDBFDF91CF911F910F91FF90EF9061
:1048D000DF90CF90BF90AF909F908F907F906F9020
:1048E0005F904F903F902F90089522E0FC0120832D
:1048F0009B016F3F710519F014F02FEF30E021306C
:10490000FFEF3F0714F421E03FEFFC0137832683DC
:1049100008958F929F92AF92BF92CF92DF92EF92C3
:10492000FF921F93CF93DF93EC01FC01ED58FF4FF3
:10493000608315E0169FF0011124E85AFD4F808135
:104940007E019DE6E90EF11CD7018C934E01BEE677
:104950008B0E911C9181D4019C93119692819C9312
:104960005E01B0E7AB0EB11C9381D5019C936E0143
:10497000B1E7CB0ED11C9481F601908362E00E94D6
:10498000C83A62E0D4018C910E94C83A61E0F50116
:1049900080810E94C83A61E0D6018C910E94C83A99
:1049A0001EA21FA218A619A684EF91E099878887F6
:1049B000188289E090E09B838A8388E691E1ADE1EB
:1049C000B2E48E8B9F8BA88FB98FF70180818231E3
:1049D00019F4359610831AC0833111F484E003C0B2
:1049E000843131F483E0FE01EE58FF4F80830EC026
:1049F000853111F482E0F7CF833011F481E0F3CFF9
:104A0000823021F4FE01EE58FF4F108260E070E02A
:104A1000CE01E0D81EA21FA218A619A627D6CA58F2
:104A2000DF4F688379838A839B83DF91CF911F91C6
:104A3000FF90EF90DF90CF90BF90AF909F908F90BE
:104A400008950F931F93CF93DF93EC01898170D268
:104A50008E010A5F1F4F6896F80161918F0185E40E
:104A600097E0F9D40C171D07B9F781E0DF91CF91DA
:104A70001F910F9100C20F931F93CF93DF93FC01FF
:104A80008185928524E130E0B9010E946856162F95
:104A9000472F838594856EE170E00E946856D62F7B
:104AA000C72F85859685B9010E946856F62FE72F96
:104AB000812F942F8F3F910519F010F08FEF90E028
:104AC000A0E0B0E0BC01552744272D2F3C2F2F3FFD
:104AD000310519F010F02FEF30E0C901A0E0B0E08F
:104AE000BA2FA92F982F8827842B952BA62BB72B6D
:104AF0004F2F5E2F4F3F510519F010F04FEF50E050
:104B000060E070E08C019D01042B152B262B372BC8
:104B1000C901B801DF91CF911F910F910895EF92D4
:104B2000FF920F931F93CF93DF93CDB7DEB72897F4
:104B30000FB6F894DEBF0FBECDBF8C0160E00E94BF
:104B4000AE3D61E0C8010E94BC3DFCD140EC60E498
:104B500070E0C8010E94441C40E061E470E0C801BC
:104B60000E94441C40E162E470E0C8010E94441CC1
:104B700042E064E470E0C8010E94441C40E060E64A
:104B800070E0C8010E94441C41E061E670E0C80189
:104B90000E94441C198221E0CE0101967C01AC01E7
:104BA00062E9C8010E94F31B8981803EC1F560EA79
:104BB00070E080E090E00E940F3C88E0F7011192E5
:104BC0008A95E9F728E0A70160E5C8010E94F31B78
:104BD0008A8190E0982F88272981822BF80192877B
:104BE00081878C8190E0982F88272B81822B948756
:104BF00083878E8190E0982F88272D81822B96873E
:104C00008587888590E0982F88272F81822B908B2D
:104C1000878761E0C8010E94AE3D80E001C089E065
:104C200028960FB6F894DEBF0FBECDBFDF91CF91AF
:104C30001F910F91FF90EF9008956091590480911A
:104C40005804653561F481110AC0809157048F3F83
:104C5000D9F481E0809356048093580415C0609382
:104C60005704882389F080915604823019F46093A8
:104C7000550407C0833028F09091550491509093CB
:104C8000550490E00E944E45809156048F5F843316
:104C900018F48093560404C01092560410925804DD
:104CA00080915804882371F08091550481110AC0C5
:104CB00080915604843030F0109258040E944E03C4
:104CC0001092560481E00895CF92DF92EF92FF9206
:104CD0000F931F93CF93DF93EB017B0124E0E20E50
:104CE000F11C8B016C01C61AD70AC601800F911FF7
:104CF0000E94C15DF80181938F01EE15FF05A9F7B0
:104D0000CE01DF91CF911F910F91FF90EF90DF9037
:104D1000CF900895AF92BF92CF92DF92EF92FF9221
:104D20000F931F93CF93DF931F92CDB7DEB75C0134
:104D30007B018B016C0184E0C80ED11CF8016191EC
:104D40008F01C50169830E94C15D6981681719F0EF
:104D5000C5010E94C95DFFEFAF1ABF0AAC14BD04C4
:104D600069F7C7010F90DF91CF911F910F91FF90CD
:104D7000EF90DF90CF90BF90AF9008950C94C95DF5
:104D80000C94C15DCF92DF92EF92FF920F931F932D
:104D9000CF93DF93EC016A017B01E889F98982E016
:104DA00080834115514E61057105B1F060E079E0F5
:104DB0008DE390E0A70196010E94035E89019A01AC
:104DC0000150110921093109369527951795079545
:104DD000980101151041A8F0E889F989108260E86E
:104DE00074E88EE190E0A70196010E94035EDA016B
:104DF000C9010197A109B109B695A795979587951E
:104E00009C01EC85FD853083EE85FF852083188E1F
:104E1000EC89FD8986E08083EA89FB898081806155
:104E20008083EA89FB89808188608083EA89FB89A5
:104E3000808180688083EA89FB8980818F7D80837F
:104E4000DF91CF911F910F91FF90EF90DF90CF9066
:104E50000895CF93DF93EC0160E089810E94C83A06
:104E600089810E94713A21E0892B09F420E0822F88
:104E7000DF91CF910895382F20916D059091220CEC
:104E8000213208F049C080914A058111FCCF42E0EF
:104E900040934A05309349053FEF309348051092FF
:104EA000470520934605ADE4B5E046E255E0FA013A
:104EB0003E2F341B321718F43D913193F9CF1092E5
:104EC000250520912505990F922B9093250590910A
:104ED0002405913061F4109224059091250590935A
:104EE000BB009091BC0093FDF8CF95EC01C095EE0E
:104EF0009093BC0090914A059230E1F3909148055F
:104F00009F3F79F080914805803241F080914805BB
:104F1000803331F084E005C081E003C082E001C04D
:104F200083E010924C0510926D0510924B05089588
:104F300091E090934B058093220C10924C051092B7
:104F40006D050895109223051092220510924C05CC
:104F500010926D0510924A0581E0809349051092E8
:104F6000240561E084E10E94993A61E085E10E94B4
:104F7000993AE9EBF0E080818E7F808380818D7F9C
:104F8000808388E48093B80085E48093BC00089512
:104F9000CF93DF938F3F910519F014F08FEF90E0DE
:104FA000EC01C1308FEFD80714F4C1E0DFEF80913E
:104FB000F70B9091F80B8C179D0721F1D093F80B0C
:104FC000C093F70BD7FD0BC061E081EF9BE00E941F
:104FD000AE3D8FE090E00197F1F7BE010DC060E0BB
:104FE00081EF9BE00E94AE3D8FE090E00197F1F7EA
:104FF000662777276C1B7D0B8091F10BDF91CF919A
:105000000C94043BDF91CF910895EF92FF920F93A0
:105010001F93CF93DF938C0161E08091940B0E94EA
:10502000993A60E08091950B0E94993AC8E0D0ECE3
:1050300060E08091940B0E94993A6D2F617080918D
:10504000950B0E94993A61E08091940B0E94993AE5
:10505000D695C15069F7E801780180E1E80EF11CAE
:10506000099118E060E08091940B0E94993A602FBA
:1050700060788091950B0E94993A61E08091940B41
:105080000E94993A000F115069F7CE15DF0541F7DC
:1050900060E08091940B0E94993A60E08091950BBA
:1050A0000E94993A61E08091940B0E94993A61E0E4
:1050B0008091950BDF91CF911F910F91FF90EF9011
:1050C0000C94993ACF93DF93D82F61E08091940BA1
:1050D0000E94993A60E08091950B0E94993AC8E04D
:1050E00060E08091940B0E94993A6D2F61708091DD
:1050F000950B0E94993A61E08091940B0E94993A35
:10510000D695C15069F760E08091940B0E94993A5E
:1051100060E08091950B0E94993A61E08091940B38
:105120000E94993A61E08091950BDF91CF910C94A8
:10513000993ACF93DF93C5ECDBE060E088850E946D
:10514000993A60E089850E94993A61E088850E94D9
:10515000993A61E08985DF91CF910C94993ACF9388
:10516000DF93D82FC8E060E08091CD0B0E94993A80
:10517000D0FF02C061E001C060E08091CE0B0E94D0
:10518000993AD69561E08091CD0B0E94993AC15031
:1051900051F760E08091CD0B0E94993A61E08091D7
:1051A000CE0B0E94993A61E08091CD0B0E94993A12
:1051B00060E08091CE0B0E94C83AC8EC8091CE0B83
:1051C0000E94713A892B69F0C150C1F761E080916A
:1051D000CE0B0E94C83A60E08091CE0B0E94993AB3
:1051E000ECCF61E08091CE0BDF91CF910C94C83A67
:1051F00008952091450D3091460D2817390771F417
:105200009091440D8091430D981741F0E091440D29
:10521000F0E0EE56F24F808190E008958FEF9FEF1F
:10522000089508951F93CF93DF93DC015C962D9131
:105230003C915D972115310539F481E090E013969A
:105240009C938E9312973DC05196ED91FC9152978D
:1052500050969C915097892F80951FB75E964C91E0
:105260005E9741FB772770F941FD6095F894408186
:10527000772311F0492B01C048234083E90121978E
:10528000F1F748E0508160FF02C0592B01C058235C
:105290005083E9012197F1F76695415099F77723FB
:1052A00021F090818923808303C08081982B908393
:1052B0001FBF5C968D919C915D970197F1F721E05E
:1052C00030E0C901DF91CF911F9108952091450DE4
:1052D0003091460D2817390769F48091430D2091CC
:1052E000440D90E0805C9F4F821B910960E470E068
:1052F0000C947C5680E090E008952091450D30910B
:10530000460D28173907B9F49091440D8091430D4B
:10531000981789F0E091440DF0E0EE56F24F80814D
:105320002091440D30E02F5F3F4F2F7333272093A0
:10533000440D90E008958FEF9FEF089585ED8093E1
:10534000BC008091BC0084FDFCCF10924A050895FA
:1053500040916D0D262F30E0240F311D2132310593
:10536000DCF420914A052430C9F4FC0180E090E08F
:10537000861758F430916D0D2191DC01A55BB24F79
:10538000A30FB11D2C930196F3CF80916D0D680F83
:1053900060936D0D80E0089581E0089582E00895A6
:1053A0000895E091230580912205E81730F4F0E09C
:1053B000E952F24F808190E008958FEF9FEF0895BA
:1053C0009091230580912205981750F4E92FF0E081
:1053D000E952F24F208130E09F5F9093230502C095
:1053E0002FEF3FEFC90108958091220590E02091B1
:1053F0002305821B91090895CF92DF92EF92FF92CD
:105400000F931F93CF93DF937C01262F972F8A0151
:1054100080914B05882391F0C62FD72F6E01C40EC3
:10542000D51ECC15DD0569F06991D701ED91FC9190
:105430000190F081E02DC7011995F3CF642F822FE1
:1054400087DFC801DF91CF911F910F91FF90EF90FF
:10545000DF90CF900895CF93DF931F92CDB7DEB743
:10546000698320914B052223D1F020916D052032D4
:1054700040F021E030E0FC013383228380E090E0C3
:1054800014C080914C05E82FF0E0E35BFA4F99815E
:1054900090838F5F80934C0580936D0504C061E01D
:1054A000CE01019655DF81E090E00F90DF91CF9122
:1054B0000895CF92DF92EF92FF920F931F93CF93B5
:1054C000DF936C018B017A01EC01C95BD24F8881BB
:1054D00087FF04C0FB011182108224C08CE08C9DE8
:1054E00090018D9D300D11248881A901480F511D17
:1054F00087FD5A958091E10790E04817590794F489
:105500008881A901480F511D87FD5A95CA01FA01EA
:10551000EE0FFF1F8E0F9F1FFC01EF5AF84F808187
:1055200087FD19C088818F5F88838CE08C9D9001F6
:105530008D9D300D11248881A901480F511D87FDD3
:105540005A958091E10790E048175907BCF488818B
:105550008C3044F113C08881280F311D87FD3A95A6
:10556000F901EE0FFF1F2E0F3F1FF901EF5AF84F01
:10557000808160E08F770E94993AD4CFF8018081D2
:105580009181049680349C4918F480E49CE904C01D
:10559000F801808191810496F701918380838FEFD8
:1055A000888345C0F801408151818881B901680F25
:1055B000711D87FD7A95CB01FB01EE0FFF1F8E0F4A
:1055C0009F1FFC01EF5AF84F81819281840F951F34
:1055D000F701918380838881A901480F511D87FDC0
:1055E0005A95CA01FA01EE0FFF1F8E0F9F1FFC0193
:1055F000EF5AF84F808187FF1AC08881280F311D2C
:1056000087FD3A95F901EE0FFF1F2E0F3F1FF9019D
:10561000EF5AF84F808161E08F77DF91CF911F9132
:105620000F91FF90EF90DF90CF900C94993ADF911B
:10563000CF911F910F91FF90EF90DF90CF90089541
:10564000CF93DF93EC018B85813011F460E001C0D2
:1056500061E08A810E94993A61E08B810E94993AC7
:1056600060E08B81DF91CF910C94993A2FB7F89439
:105670006091D30D7091D40D8091D50D9091D60D80
:105680002FBF08951F920F920FB60F9211242F93E0
:105690003F938F939F93AF93BF938091D30D90913E
:1056A000D40DA091D50DB091D60D3091D20D23E03F
:1056B000230F2D3720F40196A11DB11D05C026E84A
:1056C000230F0296A11DB11D2093D20D8093D30DFF
:1056D0009093D40DA093D50DB093D60D8091F70D76
:1056E0009091F80DA091F90DB091FA0D0196A11DC0
:1056F000B11D8093F70D9093F80DA093F90DB09321
:10570000FA0DBF91AF919F918F913F912F910F9083
:105710000FBE0F901F9018951F920F920FB60F9209
:1057200011240BB60F922F933F934F935F936F9378
:105730007F938F939F93AF93BF93EF93FF93E091EA
:105740001402F09115021995FF91EF91BF91AF915D
:105750009F918F917F916F915F914F913F912F9189
:105760000F900BBE0F900FBE0F901F9018951F92B9
:105770000F920FB60F9211240BB60F922F933F93F7
:105780004F935F936F937F938F939F93AF93BF9349
:10579000EF93FF93E0911202F09113021995FF919C
:1057A000EF91BF91AF919F918F917F916F915F9199
:1057B0004F913F912F910F900BBE0F900FBE0F9006
:1057C0001F9018951F920F920FB60F9211240BB6CF
:1057D0000F922F933F934F935F936F937F938F938A
:1057E0009F93AF93BF93EF93FF93E0910802F091E3
:1057F00009021995FF91EF91BF91AF919F918F9100
:105800007F916F915F914F913F912F910F900BBEC0
:105810000F900FBE0F901F9018951F920F920FB60A
:105820000F9211240BB60F922F933F934F935F93D8
:105830006F937F938F939F93AF93BF93EF93FF9358
:10584000E0910602F09107021995FF91EF91BF9147
:10585000AF919F918F917F916F915F914F913F9108
:105860002F910F900BBE0F900FBE0F901F901895A9
:105870001F920F920FB60F9211240BB60F922F9317
:105880003F934F935F936F937F938F939F93AF93C8
:10589000BF93EF93FF93E0911002F09111021995DD
:1058A000FF91EF91BF91AF919F918F917F916F91F8
:1058B0005F914F913F912F910F900BBE0F900FBEB4
:1058C0000F901F9018951F920F920FB60F921124F0
:1058D0000BB60F922F933F934F935F936F937F93EA
:1058E0008F939F93AF93BF93EF93FF93E0910E023B
:1058F000F0910F021995FF91EF91BF91AF919F9198
:105900008F917F916F915F914F913F912F910F9068
:105910000BBE0F900FBE0F901F9018951F920F9205
:105920000FB60F9211240BB60F922F933F934F9304
:105930005F936F937F938F939F93AF93BF93EF93F7
:10594000FF93E0910C02F0910D021995FF91EF91F8
:10595000BF91AF919F918F917F916F915F914F9187
:105960003F912F910F900BBE0F900FBE0F901F9085
:1059700018951F920F920FB60F9211240BB60F922B
:105980002F933F934F935F936F937F938F939F9347
:10599000AF93BF93EF93FF93E0910A02F0910B0254
:1059A0001995FF91EF91BF91AF919F918F917F9149
:1059B0006F915F914F913F912F910F900BBE0F9080
:1059C0000FBE0F901F9018951F920F920FB60F9257
:1059D00011240BB60F922F933F934F935F936F93C6
:1059E0007F938F939F93AF93BF93EF93FF93E09138
:1059F000450DF091460D309709F451C0968DA6855E
:105A0000B785858591FF04C09C91892329F447C0FF
:105A10009C91892309F043C0A389B4899C9185890D
:105A2000809589238C93868997890197F1F7608DFA
:105A3000718DA685B785558538E020E0CB010197AB
:105A4000F1F7822F90E095958795282F4C9145236B
:105A500009F02068315091F7868D81FD2095809165
:105A6000430D90E001968F7399273091440D3817BC
:105A700049F0A091430DB0E0AE56B24F2C93809305
:105A8000430D03C0868D8160868F828D938D019733
:105A9000F1F7A389B4899C918589892B8C93FF9117
:105AA000EF91BF91AF919F918F917F916F915F9196
:105AB0004F913F912F910F900BBE0F900FBE0F9003
:105AC0001F901895E091450DF091460DE817F907E4
:105AD00069F4A389B4899C918589809589238C93E5
