:1000000013C300000C94081A0C94DD190C94B21957
:100010000C9487190C945C190C9431190C940619E2
:100020000C94DB180C94331A0C94331A0C94331A76
:100030002CC300000C94292728C3000026C300000D
:1000400024C300000C94A81D20C300001EC30000A0
:100050001CC300001AC3000018C300000C949118C0
:1000600014C300000C94C2330C9499330EC30000E7
:100070000CC300000AC3000008C3000006C3000050
:100080000C947B1D02C3000000C30000FEC20000F0
:10009000FCC20000FAC20000F8C200000C94C71AAB
:1000A000F4C20000F2C200000C944E1DEEC200002B
:1000B000ECC20000EAC20000E8C200000C94211D5E
:1000C000E4C20000E2C20000E0C200000C94703301
:1000D0000C944733DAC200000C941E330C94F532B2
:1000E000D4C2000028079C03C50375047504880466
:1000F0001C0775046C086C086C086C086C086C08AC
:100100006C080205B60415056C086C086C083D0502
:10011000E2070406D606F70669056C086C086C0849
:10012000640772076C086C086C086C0892078107FA
:100130006C086C086C086C086C086C086C086C081F
:100140006C086C086C086C08CB07D4076C086C084A
:100150006C086C086C086C086C086C086508F6077D
:100160003D234423212328232F2336234B235223AB
:1001700060326332523256325C329A3267326B32BC
:100180007132753279327F32833287329A328D32D0
:1001900091329532C734CC34D134DB34E5345E351A
:1001A000EF34F734FF34093513351D352C3536352A
:1001B0005E3540354A355435084AD73B3BCE016E53
:1001C00084BCBFFDC12F3D6C74319ABD56833DDAAE
:1001D0003D00C77F11BED9E4BB4C3E916BAAAABEBD
:1001E000000000803F07634236B79BD8A71A3968E2
:1001F0005618AEBAAB558C1D3CB7CC5763BD6DEDF0
:10020000FD753EF6177231BF000000803F08000008
:1002100000BE922449123EABAAAA2ABECDCCCC4C39
:100220003E00000080BEABAAAAAA3E00000000BFAC
:10023000000000803F0000000000084178D3BB436D
:1002400087D1133D190E3CC3BD4282AD2B3E68ECF5
:100250008276BED98FE1A93E4C80EFFFBE01C4FF7C
:100260007F3F000000000000200000000000003080
:10027000007C82827C00310042FE02000032004697
:100280008A92620033004492926C0034001C64FE37
:1002900004003500F292928C0036007C92924C0061
:1002A0003700C08E90E00038006C92926C003900EC
:1002B0006492927C006100042A2A1E006200FE12F1
:1002C000120C0063000C1212120064000C1212FED9
:1002D0000065001C2A2A18006600103E5050006776
:1002E000000815151E006800FE101E0000690000C1
:1002F0002E0000006A0002012E00006B00FE0814B0
:1003000012006C0000FE0200006D001E100E100EA8
:100310006E001E10100E006F000C12120C00700008
:100320001F12120C0071000C12121F0072001E0826
:10033000101000730012292512007400103E1200E4
:100340000075001C02021E007618040204180077D3
:1003500018061C0618007800120C0C120079001800
:1003600005051E007A0012161A120041007E8888C8
:100370007E004200FE92926C0043007C8282440028
:100380004400FE82827C004500FE9292820046007C
:10039000FE9090800047007C82925C004800FE1036
:1003A00010FE00490082FE8200004A000C0202FC9E
:1003B000004B00FE1028C6004C00FE020202004D59
:1003C00000FE403040FE4E00FE403008FE4F007CF4
:1003D0008282827C5000FE9090600051007C828A74
:1003E000847A5200FE9894620053006492924C000A
:1003F000540080FE8080005500FC0202FC00560084
:10040000F00C020CF05700FE043804FE5800C63809
:1004100038C60059C0201E20C0005A00869AB2C2B9
:10042000002C00010E0C00002E0000060600002526
:100430007254781E2A4E2100007A0000003F0020EE
:100440004A3000002D0010101010002B08083E0844
:1004500008002F00020C3040002A22140814220049
:100460003A0000140000002200C000C00000232851
:10047000FE28FE28002800007C820000290000825F
:100480007C00003B0002240000007E004080408091
:10049000003B0002240000003D0028282828007CA2
:1004A0000000FE0000003E0082442810003C0010C6
:1004B00028448200400000000000007C447C007C56
:1004C000005C547454547C70107C74545C7C545C98
:1004D00040407C7C547C74547C000400202020002C
:1004E0000000000020002300260029002C002F001F
:1004F00032000001000003010601090105050505A0
:10050000070508080808020202020A0A080804048B
:1005100004040101010101010101030303030303B9
:100520000303040707070C0C0C0C0C0C0C0C020248
:10053000020206060606060606060B0B0B0B0B0B45
:100540000B0B0102102020080810204010204080D2
:100550000201020108040201010204081020408087
:100560008040201008040201800402018040201015
:10057000080402010804020101020408102040805E
:1005800001020408102040803F065B4F666D7D0726
:100590007F6F777C395E7971BF86DBCFE6EDFD87B3
:1005A000FFEFF7FCB9DEF9F1004000002100240064
:1005B00027002A002D003000330001010000040153
:1005C00007010A0100002200250028002B002E0050
:1005D0003100340002010000050108010B01000098
:1005E0000A0B02090C0D0E080703040100000000AD
:1005F00000000000000000000000000000000000FB
:1006000000000000000000000000121110000000B7
:1006100000000000000000000000000000000000DA
:1006200000000000FF4CEC4C11241FBECFEFD1E2C4
:10063000DEBFCDBF00E00CBF13E0A0E0B2E0E6E615
:10064000FEEA00E00BBF02C007900D92AA3BB10783
:10065000D9F72EE0AAEBB3E001C01D92AC39B20786
:10066000E1F713E0C3E1D3E000E006C02197010900
:10067000802FFE010E947D4FC231D10780E0080724
:10068000A9F70E94B7400C942257BACC4F925F92C0
:100690006F927F928F929F92AF92BF92CF92DF9292
:1006A000EF92FF920F931F93CF93DF93CDB7DEB7F7
:1006B0006D970FB6F894DEBF0FBECDBF1092460403
:1006C00083E090E00E946A3EF82E84E090E00E9471
:1006D0006A3E182F85E090E00E946A3E082FF09253
:1006E000C003123009F400C518F4113041F064C79A
:1006F000143009F4FBC4153009F418C75DC7813004
:1007000049F0873139F0843229F00E94513E8F2D13
:100710000E942A3E86E090E00E946A3E182F402FF9
:1007200050E04E33510508F0D7C4FA018827EE583F
:10073000FF4F8F4F0C947D4F8091FE039091FF03EC
:10074000009731F0FC012281211771F00E9474534F
:100750008EE090E00E94DF527C01612F0E9467379B
:10076000F092FF03E092FE038091FE039091FF035D
:100770000E94823A6B017C010E94513E8091C0032D
:100780000E942A3EC701B601AAC487E090E00E94F9
:100790006A3E9091830C911304C09091840C981739
:1007A00051F1E12FF0E0EE0FFF1FE250FD4F90817D
:1007B0009093810CE181E093820C1093830C8093E1
:1007C000840C823009F0E92F8E2F90E0FC01EE5B63
:1007D000FA4FE491E093850CFC01E450FB4FE49167
:1007E000F0E0EE0FFF1FEE51FB4F85919491909337
:1007F000870C8093860C0E94453A8CEC0E94D93974
:1008000084E40E94D9390E9485186B017C0103E2BF
:1008100010E08091850CE091860CF091870C91811D
:10082000282F2095922391839281982B9283D8012F
:100830001197F1F79081892309F47BC60E94453A0C
:100840008CEC0E94D9398EEB0E94D939DE011196C9
:1008500067E070E003E210E0EFECEE2EF12CF5E043
:10086000BF2EBA0E48E050E031E020E0A090850CA9
:10087000E091860CF091870CF89491819A299183EC
:10088000D2809A2C9094D920D282CB010197F1F793
:10089000D180992D9D21918392819A299283C801BB
:1008A0000197F1F790817894F7013197F1F78A2D4C
:1008B000892309F0232B330F41505109B9F62D93A9
:1008C000BA12D0CF6A8170E0762F66278981682BB3
:1008D000072E000C880B990B0E949C5520E030E0FD
:1008E00040E85DE30E94FB55FAC38091660C8117D6
:1008F00051F0612F84E69CE00E94263760E08091F1
:10090000650C0E94643484E69CE00E943637E3C2A2
:1009100087E090E00E946A3E082F8091C70B811704
:1009200029F0612F85EC9BE00E942637013059F4B5
:1009300085EC9BE00E9440372091BA033091BB03C5
:100940008A5E91400CC0023071F485EC9BE00E94FD
:1009500036378A5E91402091BC033091BD03BC01C3
:10096000620F731F85C060E070E082C0E0904804B1
:10097000F0904904E114F104C9F0F70181A1811755
:1009800091F182EF92E091838083E259FF4F808161
:1009900091810E94745382EE92E0F70191838083EB
:1009A000C7010E94B11AC7010E9474538CE790E0FE
:1009B0000E94DF527C01612F0E9477378CE492E025
:1009C000F7019183808380A1E858FF4F8083F7016E
:1009D000878DE758FF4F8083F0924904E0924804E6
:1009E000C7010E946326E0914804F0914904E6584B
:1009F000FF4F60816093FD038FEF860F8E3F08F0FD
:100A00006BC361C08091660C811751F0612F84E641
:100A10009CE00E94263760E08091650C0E9464345F
:100A200084E69CE00E9423304DC08091660C8117C3
:100A300079F0612F84E69CE00E94263760E0809187
:100A4000640C0E94643460E08091650C0E94643400
:100A500060E084E69CE00E945837182F84E69CE012
:100A60000E942330612F70E0660F771F680F711DA1
:100A7000072E000C880B990B32C287E090E00E9491
:100A80006A3E082F8091660C811362C58091670CC5
:100A900080135EC562E0013059F48091640C0E94BD
:100AA000643460E084E69CE00E94583780270AC0E6
:100AB0008091650C0E94643484E69CE00E9423309F
:100AC00061E08627682F70E080E090E00E949A55F0
:100AD00006C38091CB0B811709F493C0612F89EC79
:100AE0009BE00E9426378091CA0B9091C90B90938E
:100AF000BF038093BE031092370510923805109201
:100B00003A0510925B050E94F81B61E089EC9BE0BE
:100B10000E944A3780E78D8FBE01635E7F4F80E081
:100B20000E94862380E28C8FBE01645E7F4F81E04D
:100B30000E94862381E08093D50B8B8FBE01655E7A
:100B40007F4F82E00E948623CE0101967C0100E067
:100B500010E06C01C8010E94AF56F70181937F013C
:100B60000F5F1F4F0A311105A9F72D813E814F817B
:100B7000588569817A818B819C810E94864F298565
:100B80003A854B855C850E94864F2D853E854F8535
:100B900058890E94864F29893A894B895C890E942D
:100BA000864F2D893E894F89588D0E94864F4B0173
:100BB0005C01898D682F70E080E090E00E949C5578
:100BC0009B01AC01C501B4010E94864F20E030E0DA
:100BD0004AE253E40E94864F0E94B9508A8D6813FE
:100BE0000CC08AE1F601A6EDBBE001900D928A955A
:100BF000E1F781E08093CD0B02C01092CD0B0E94F3
:100C0000FB230E94B6386BC287E090E00E946A3EE8
:100C1000E82E8091BC0A811729F0612F8AEB9AE0B7
:100C20000E942637CE0101966C0185E0F6011192F3
:100C30008A95E9F760E08AEB9AE00E944A3764E11E
:100C400070E080E090E00E94AB3561E08AEB9AE0D2
:100C50000E944A378BE990E00197F1F760E08AEB58
:100C60009AE00E944A370E9485184B015C018AEB8A
:100C70009AE00E942330811110C00E948518DC0187
:100C8000CB0188199909AA09BB090397A105B105E8
:100C900070F31092BE0A1092BF0A0E9485184B0191
:100CA0005C018AEB9AE00E942330882361F00E9465
:100CB0008518DC01CB0188199909AA09BB0903979A
:100CC000A105B10570F300E010E00E9485184B010A
:100CD0005C018AEB9AE00E94233081110CC00E94D3
:100CE0008518DC01CB0188199909AA09BB0903976A
:100CF000A105B10570F30E9486354B015C010E948D
:100D000085182B013C018AEB9AE00E94233088234E
:100D100061F00E948518DC01CB0184199509A609B0
:100D2000B7090397A105B10570F30E948635DC0170
:100D3000CB0188199909AA09BB09F80133E0F59597
:100D4000E7953A95E1F78997A105B10538F0EC0DE3
:100D5000FD1D9081990F9160908305C0EC0DFD1DE4
:100D60008081880F80830F5F1F4F0832110509F0C3
:100D7000ACCF59814B81242F30E0250F311D8D815F
:100D800090E02817390721F45093BE0A4093BF0A18
:100D9000E11003C01091BE0A02C01091BF0A0E9468
:100DA000513E8F2D0E942A3E812F93C18091B60A19
:100DB0008117D1F0612F84EB9AE00E942637809151
:100DC000B40A9091B50A9093B80A8093B90A8091B9
:100DD000B80A60E00E9464348091B90A8093B40A32
:100DE0008091B80A8093B50A84EB9AE020C0809184
:100DF000B00A8117D1F0612F8EEA9AE00E9426375F
:100E00008091AE0A9091AF0A9093B20A8093B30A90
:100E10008091B20A60E00E9464348091B30A8093AA
:100E2000AE0A8091B20A8093AF0A8EEA9AE00E94DD
:100E300040370E94F13F55C187E090E00E946A3E32
:100E400011114AC19091320C983609F045C191C3F5
:100E50001A8219821C821B821E821D826091850863
:100E6000709186086115710541F040918908509193
:100E70008A08CE0101960E949D321D81E12EFE80DE
:100E800084E00E942A3E812F0E942A3E00E010E06A
:100E90000E151F05A4F48D819E810817190748F4CB
:100EA00089819A81009729F0FC01E00FF11F808170
:100EB00001C080E00E942A3E0F5F1F4FE9CF898169
:100EC0009A810E9474530DC160E0812F0E946434A6
:100ED000812F0E940D34BC01990F880B990B0E9441
:100EE0009C55FDC0E12FF0E0EE0FFF1FE05EFD4FCF
:100EF000108160E0812F0E946434812F0E94673549
:100F0000EACF87E090E00E94DB3F7C0160E0812F28
:100F10000E946434A701FF0C660B770B812F0E949F
:100F20005923C5C087E090E00E946A3E082F61E027
:100F3000812F0E94643460E0812F0E94353483E069
:100F400090E00197F1F761E0812F0E94353483E250
:100F500090E00197F1F760E0812F0E94353460E066
:100F6000802F0E94643440E355E760E070E0802FFA
:100F70000E9459236B017C0165E070E080E090E005
:100F80000E94AB350E94513E8091C0030E942A3ED0
:100F9000C701B601A4CF60914B0470914C048091BD
:100FA0004D0490914E049BC08091AA0A811729F0AC
:100FB000612F88EA9AE00E94263788EA9AE00E9428
:100FC000233087C08091930A811729F0612F81E92E
:100FD0009AE00E94263710914A0487E090E00E9430
:100FE0006A3E91E0181390E0892F73C0111179C007
:100FF00087E090E00E946A3E182F88E090E00E940F
:101000006A3E1130B9F4813049F460912B0A709135
:101010002C0A80912D0A90912E0A49C0823009F045
:1010200060C060911B0A70911C0A80911D0A90910A
:101030001E0A55C01230B9F4813049F46091AB09F1
:101040007091AC098091AD099091AE0930C08230A9
:1010500009F047C060919B0970919C0980919D099E
:1010600090919E093CC01330B1F4813049F46091F5
:101070002B0970912C0980912D0990912E0917C090
:10108000823079F560911B0970911C0980911D09CE
:1010900090911E0924C0143021F5813059F46091DB
:1010A000AB087091AC088091AD089091AE080E9499
:1010B000094017C08230A9F460919B0870919C0888
:1010C00080919D0890919E080AC0123751F480913A
:1010D00041040E94664005C060E070E0CB010E94C0
:1010E00035400E943E3E68C27ED220C21092370A2E
:1010F0001092380A1092390A10923A0A1092B709DF
:101100001092B8091092B9091092BA0910923709D1
:10111000109238091092390910923A091092B708C2
:101120001092B8081092B9081092BA0880E090E0C6
:10113000A0E2B1E480931F0A9093200AA093210AB1
:10114000B093220A10927D0A10927B0A21E020932C
:10115000110A1092120A10922F0A1092300A10925D
:10116000310A1092320A1092900A10928F0A8091DE
:101170002F0A9091300AA091310AB091320A409121
:101180002B0A50912C0A60912D0A70912E0A841B13
:10119000950BA60BB70B181619061A061B061CF49E
:1011A00020937C0A02C010927C0A80E090E0A0E2CA
:1011B000B1E480939F099093A009A093A109B093F3
:1011C000A2091092FD091092FB0921E020939109D8
:1011D000109292091092AF091092B0091092B109C1
:1011E0001092B2091092100A10920F0A8091AF0962
:1011F0009091B009A091B109B091B2094091AB09A9
:101200005091AC096091AD097091AE09841B950BAA
:10121000A60BB70B181619061A061B061CF420930A
:10122000FC0902C01092FC0980E090E0A0E2B1E469
:1012300080931F0990932009A0932109B09322095C
:1012400010927D0910927B0921E0209311091092E0
:10125000120910922F091092300910923109109240
:1012600032091092900910928F0980912F09909164
:101270003009A0913109B091320940912B09509168
:101280002C0960912D0970912E09841B950BA60BDA
:10129000B70B181619061A061B061CF420937C09B6
:1012A00002C010927C0980E090E0A0E2B1E480935B
:1012B0009F089093A008A093A108B093A208109251
:1012C000FD081092FB0821E02093910810929208EB
:1012D0001092AF081092B0081092B1081092B208A4
:1012E0001092100910920F098091AF089091B008E8
:1012F000A091B108B091B2084091AB085091AC08F0
:101300006091AD087091AE08841B950BA60BB70BCE
:10131000181619061A061B061CF42093FC0802C0B6
:101320001092FC0860E070E081E19AE00E94E327FF
:1013300060E070E081E999E00E94E32760E070E0FE
:1013400081E199E00E94E32760E070E081E998E0A4
:101350000E94E3271092110A10929109109211092C
:101360001092910881E00E94772280E090E00E9434
:101370001B2289E00E94772280E090E00E941B22DD
:1013800082E00E94772280E090E00E941B228AE0A7
:101390000E94772280E090E00E941B2283E00E945E
:1013A000772280E090E00E941B228BE00E9477224F
:1013B00080E090E00E941B2284E00E94772280E07F
:1013C00090E00E941B228CE00E94772280E090E057
:1013D0000E941B221092CD0A1092CE0A1092CF0AC0
:1013E0001092D00A1092D10A1092D20A1092D30A07
:1013F0001092D40A1092E90A1092EA0A1092EB0AAB
:101400001092EC0A1092E10A1092E20A1092E30A9A
:101410001092E40A10920E0B10920F0B1092100B08
:101420001092110B1092120B1092130B1092140BBE
:101430001092150B10922A0B10922B0B10922C0B62
:1014400010922D0B1092220B1092230B1092240B52
:101450001092250B10924F0B1092500B1092510BC3
:101460001092520B1092530B1092540B1092550B7A
:101470001092560B10926B0B10926C0B10926D0B1E
:1014800010926E0B1092630B1092640B1092650B0E
:101490001092660B1092900B1092910B1092920B7F
:1014A0001092930B1092940B1092950B1092960B36
:1014B0001092970B1092AC0B1092AD0B1092AE0BDA
:1014C0001092AF0B1092A40B1092A50B1092A60BCA
:1014D0001092A70B40E050E0BA0181EC9AE00E9424
:1014E0009A3640E050E0BA0182E09BE00E949A36D2
:1014F00040E050E0BA0183E49BE00E949A3640E06D
:1015000050E0BA0184E89BE00E949A3681EC9AE0B0
:101510000E94DA1D82E09BE00E94DA1D83E49BE0DA
:101520000E94DA1D84E89BE00E94DA1D0E946D4053
:1015300043C00E948518DC01CB018C199D09AE09BE
:10154000BF098E3E9240A105B10508F462C976C973
:10155000E12FF0E0EE0FFF1FE250FD4F80818093FE
:10156000640C81818093650C1093660C0093670C6A
:1015700091CA813049F48090FA0B9090FB0BA090B7
:10158000FC0BB090FD0B15C0823049F48090FE0B2F
:101590009090FF0BA090000CB090010C0AC083301B
:1015A00041F48090020C9090030CA090040CB09039
:1015B000050CC501B40193CD6D960FB6F894DEBF4E
:1015C0000FBECDBFDF91CF911F910F91FF90EF9094
:1015D000DF90CF90BF90AF909F908F907F906F9053
:1015E0005F904F9008952F923F924F925F926F922B
:1015F0007F928F929F92AF92BF92CF92DF92EF92A3
:10160000FF920F931F93CF93DF93CDB7DEB7CB54E9
:10161000D1090FB6F894DEBF0FBECDBF182F86E0FC
:1016200090E00E946A3ED82E103211F40C94C5133B
:1016300038F5193009F4A4C260F4153009F462C019
:10164000183009F45CC1133011F00C942D160C9471
:101650008A131B3009F446C2B0F1143111F40C9412
:10166000A2131E3111F00C942D1661E00E94643417
:1016700087E090E00E946A3E682F8D2D0C94BA138B
:10168000123311F40C941D1460F4183209F454C090
:10169000193209F481C3113211F00C942D160C94F7
:1016A000D2131C3309F4F4C130F4143311F40C9444
:1016B0002F140C942D161D3399F01E3311F40C9435
:1016C00078140C942D1687E090E00E94DB3F8C018B
:1016D0008D2D0E947722C8010E941B220C942D168A
:1016E00081110C942D1687E090E00E946A3E182F1D
:1016F00088E090E00E94DB3F66277727681B790B24
:101700000C94371586E090E00E94DB3F6627772730
:10171000681B790B81E19AE00E946E2E88E090E0D0
:101720000E94DB3F66277727681B790B81E999E0E8
:101730000E946E2E0C942D1687E090E00E94DB3FF5
:101740008C0189E090E00E949B3F4B015C0121E00D
:10175000D21232C061E070E0CE0101960E94B13633
:10176000BE016F5F7F4F81EC9AE00E94E43EB501BD
:10177000A40181EC9AE00E949A36B801110F880BFF
:10178000990B0E949C556B017C01AB01BC0181EC63
:101790009AE00E94272081EC9AE00E94BF2181EC10
:1017A0009AE00E94AC21B701A60181EC9AE00E9468
:1017B0003E1E81EC9AE034C062E0D61235C062E091
:1017C00070E0CE0101960E94B136BE016F5F7F4F7F
:1017D00082E09BE00E94E43EB501A40182E09BE030
:1017E0000E949A36B801110F880B990B0E949C55E4
:1017F0006B017C01AB01BC0182E09BE00E942720D1
:1018000082E09BE00E94BF2182E09BE00E94AC212D
:10181000B701A60182E09BE00E943E1E82E09BE0B1
:101820000E94D51D0C942D1673E0D71232C063E0D0
:1018300070E0CE0101960E94B136BE016F5F7F4F0E
:1018400083E49BE00E94E43EB501A40183E49BE0B5
:101850000E949A36B801110F880B990B0E949C5573
:101860006B017C01AB01BC0183E49BE00E9427205B
:1018700083E49BE00E94BF2183E49BE00E94AC21B3
:10188000B701A60183E49BE00E943E1E83E49BE037
:10189000C7CF84E0D8120C942D1664E070E0CE011E
:1018A00001960E94B136BE016F5F7F4F84E89BE0D6
:1018B0000E94E43EB501A40184E89BE00E949A36B0
:1018C000B801110F880B990B0E949C556B017C018C
:1018D000AB01BC0184E89BE00E94272084E89BE0E8
:1018E0000E94BF2184E89BE00E94AC21B701A601C1
:1018F00084E89BE00E943E1E84E89BE091CF87E055
:1019000090E00E946A3EC82E88E090E00E946A3E05
:10191000182F89E090E00E946A3E082F8AE090E04C
:101920000E946A3EF82E8BE090E00E946A3EE82E0C
:101930008091740C8D110C94EA158091750C8C11AA
:101940000C94EA1520C092E0C9120C9429168091DB
:10195000730C282F30E0F901EE5BFA4FE491E0932D
:10196000800CF901E450FB4FE491F0E0EE0FFF1F13
:10197000EC53FA4F2591349130937D0C20937C0CDD
:1019800061E00E946434112331F11150212F30E0C5
:101990008091760C9091770C2817390708F5812FE4
:1019A000880F180F812F90E0E091780CF091790C5E
:1019B000E80FF91FF082E091780CF091790CE80FB4
:1019C000F91F01832091780C3091790CF901E80F0F
:1019D000F91FE28205C04E2D6F2D802F0E947F21BE
:1019E0008091760C9091770CAC01440F551F8A01C1
:1019F000080F191FE090780CF090790CA801B7013E
:101A000080917A0C90917B0C0E94F454892B11F4F4
:101A10000C942D16A0917C0CB0917D0C8091800CC3
:101A20003FB7F8942C91982F90959223822BF70131
:101A3000AF01400F511FE417F50781F0219168E0D5
:101A40008C9300C027FF9C93220F00C000C000C0F1
:101A500008F49C9300C06A9599F7EDCF3FBF409181
:101A6000760C5091770CCA01880F991F480F591FA7
:101A70006091780C7091790C80917A0C90917B0C2C
:101A80000E9401558BEC97E00197F1F70C942D160D
:101A900087E090E00E946A3E182FE2E1DE120C948B
:101AA0002D160E94803E153060F41093410483E9A6
:101AB00090E00E94BA2F811711F40C942D16612F1B
:101AC0000BC01092410483E990E00E94BA2F882352
:101AD00011F40C942D1660E083E990E00E94B82F79
:101AE0000C942D1687E090E00E946A3EED2DF0E008
:101AF000EE0FFF1FE250FD4F813011F4008101C055
:101B0000018188E090E00E946A3E182F602F70E00B
:101B1000E5EEF3E020E030E08191919186179707A0
:101B200089F0892B41F4F901EE0FFF1FEB51FC4FB7
:101B30007183608307C02F5F3F4F2C30310561F701
:101B400020E030E0F901EE0FFF1F2E0F3F1FF901DB
:101B5000E756F34F80819181A28189839A83AB8379
:101B6000153B10F00C942D16298130E0F901EE0F91
:101B7000FF1F2E0F3F1FF901EC50F84F808151C617
:101B800080916A0C8D1561F1D0926A0CED2DF0E018
:101B9000EE0FFF1FE250FD4F81818093690C908111
:101BA0009093680C8093700C9093710C61E00E948C
:101BB000643461E08091710C0E94643480E480930D
:101BC0006C0C80EC80936D0C8AE880936E0C80E244
:101BD00089838A838B838C83CE0101960E9438216E
:101BE00087E090E00E94BD3F6B017C0119821A8260
:101BF0001B821C8220E030E0A9010E94965587FFDD
:101C00000BC0F7FAF094F7F8F09481E28983F1E0E1
:101C10002796FFAF279703C027961FAE27970DEF94
:101C2000202E33243A9403E010E028961FAE289724
:101C300017FD4CC0B8016F5F7F4F072E000C880B5B
:101C4000990B0E949C559B01AC0160E070E080E222
:101C500091E40E9468514B015C019B01AC01C701FA
:101C6000B6010E944C500E94E5502B013C01B80186
:101C7000012E000C880B990B0E949C559B01AC0116
:101C800060E070E080E291E40E9468512C966CAFB5
:101C90007DAF8EAF9FAF2C97A5019401C301B20118
:101CA0000E94FB559B01AC01C701B6010E94854F04
:101CB0002C962CAD3DAD4EAD5FAD2C970E944C5097
:101CC0000E94E5500E94B450CB0123C020E030E0D8
:101CD00040E251E4C701B6010E94FB5522E0221602
:101CE000310484F020E030E040E251E40E94FB55F2
:101CF000E2E02E16310431F020E030E040E251E421
:101D00000E94FB550E94B450CB016AE070E00E9433
:101D10006A4F1816190644F0002331F02896FFADDB
:101D20002897FF2329F10FC001110DC0E1E0F0E079
:101D3000EC0FFD1F27962FAD2797E20FF11D60E1F5
:101D4000680F60830AC0E1E0F0E0EC0FFD1F27960A
:101D50006FAD2797E60FF11D808327967FAD2797FC
:101D60007F5F27967FAF279781E028968FAF2897D0
:101D700027969FAD2797943050F401501109EFEF4B
:101D80002E1A3E0A0C3FFFEF1F0709F051CFCE017C
:101D900001960E94382161C78091350C8D15B9F1EB
:101DA000AD2DB0E0AA0FBB1FA250BD4F8C91809308
:101DB000370C11969C919093380CD092350C61E0C1
:101DC0000E94643461E08091380C0E94643461E0C8
:101DD0008091370C0E94353461E08091380C0E946C
:101DE000353480E40E9484308CE80E948430EBE338
:101DF000FCE080E18E0F11928E13FDCF81E0809385
:101E0000390C10923A0C8BE39CE00E94333087E04F
:101E100090E00E946A3E813009F07AC188E090E04B
:101E20000E946A3EF82E89E090E00E946A3EB82E39
:101E30008AE090E00E946A3E082F880F110BF1ECB7
:101E40008F2EF3E09F2EC12CD12CC016D1065CF44E
:101E5000C6010B960E946A3EF40181934F01FFEF89
:101E6000CF1ADF0AF2CFF801EF53FC4F10820F2D8B
:101E7000FF0C110B81E080933A0CE12CF12CF7015F
:101E8000EF53FC4F8081F701ED5CF34F882321F085
:101E900023E1E216F10481F4F0924F0CE0924E0C33
:101EA000158E4AEFB70146039001479F300D11246C
:101EB0000217130764F005C0858F7FEFE71AF70A52
:101EC000DECF0131110524F000E110E001C08901ED
:101ED00010934C0C00934B0C8B2D80310CF08FE049
:101EE000482F87FD4FEF40934D0C101611060CF054
:101EF00069C020E030E0822F2017310759F02F5FB2
:101F00003F4F2131310509F4CFC0F901ED5CF34FAA
:101F10001782F1CF203109F4C7C090E057E0E0E22A
:101F2000BE2E292F30E02E153F050CF042C0A12C0B
:101F3000B901605B734F6B015A9DD0011124BD0143
:101F400068597D4FFB011491103429F1FB019490E5
:101F5000F6010081002E000C110BE92DF0E00E17A8
:101F60001F07B9F400E010E01196FD01E00FF11F2A
:101F7000E859FD4FD490E82FF0E0ED5CF34FD086A8
:101F80008F5F803141F00F5F1F4F0630110569F7F9
:101F900002C0A394D1CFFB016491603429F4F9010C
:101FA000ED5CF34FB58E91509F5F803109F0B9CF52
:101FB0007BC0E82FF0E0ED5CF34F10868F5F80313F
:101FC000C1F772C00217130741F4EBE3FCE080E1B4
:101FD0008E0F11928E13FDCF67C022273327201B4F
:101FE000310BC90166E070E00E946A4F582F3093B0
:101FF0004C0C20934B0C9B0190E087E070E2972EF5
:102000002E153F050CF047C0812CB901605B734F62
:102010006B01889DD0011124BD0168597D4FFB01E2
:10202000B490F0E4BF1619F1FB017490F601A080A2
:102030000A2C000CBB08E72DF0E0AE16BF06A1F499
:10204000FD01E50FF11D57FDFA95E759FD4FD490BD
:10205000E92FF0E0ED5CF34FD0869F5F903130F4D4
:102060005F5F563069F702C08394D3CF50E0FB0125
:102070006491603431F4F901ED5CF34F958E215099
:1020800031092F5F3F4F903108F4BACF10934C0CB9
:1020900000934B0C09C0E92FF0E0ED5CF34F108684
:1020A0009F5F9031C1F7F2CF842F440F990B27E047
:1020B00030E0281B390BEBE3FCE037FD14C090E166
:1020C0009E0F8081022E01C0880F0A94EAF7819347
:1020D0009E13F7CF8091390C81110DC3EBE3FCE027
:1020E00090E19E0F0FC0079740E14E0F208130E036
:1020F000082E02C0359527950A94E2F721934E13D6
:10210000F5CFE8CF8081809581939E13FBCFF3C2FA
:10211000823009F09BC088E090E00E946A3EE82E81
:1021200089E090E00E946A3EF82E65EDC62E63E0DD
:10213000D62E0AE010E0C8010E946A3EF6018193A3
:102140006F010F5F1F4F0A311105A9F7FFE0FE1560
:102150000CF483C527E02F150CF47FC58091390C52
:102160006F2D0F2C000C770B4E2DEE0C550B25ED23
:1021700033E090E1920F28E030E0261B370B8823F4
:1021800091F18FEFE82E01C0EE0C2A95EAF7DA0103
:10219000A55CB34FE5EDF3E0455D53400027112703
:1021A000061B170B9A012E0F3F1F37FD17C02C91EE
:1021B000DE2CD2221F1454F48081282F30E0062E0A
:1021C00002C0359527950A94E2F706C02081002EBB
:1021D00001C0220F0A94EAF72D292C93119631960B
:1021E0009E13E0CF88C28FEFE82E01C0EE0C2A9537
:1021F000EAF7DA01A55CB34FE5EDF3E0455D534046
:1022000000271127061B170B9A012E0F3F1F37FDC2
:1022100018C02C91DE2CD2228081282F30E020950E
:1022200030951F143CF4062E02C0359527950A946C
:10223000E2F705C0002E01C0220F0A94EAF72D290B
:102240002C93119631969E13DFCF55C2833009F03F
:1022500099C088E090E00E946A3E182F89E090E0E3
:102260000E946A3E082F8AE090E00E946A3E582F42
:102270004AE0802F642F0E944A4F282F30E0F90156
:10228000EE0FFF1F2E0F3F1FF901E554FB4FE491A6
:10229000E0933B0CF901E454FB4FE491E0933C0CD8
:1022A000F901E354FB4F249120933D0C10923E0C16
:1022B000292F30E0F901EE0FFF1F2E0F3F1FF9010C
:1022C000E554FB4FE491E0933F0CF901E454FB4FDC
:1022D000E491E093400CF901E354FB4F24912093E7
:1022E000410C852F0E944A4F282F30E0F901EE0F54
:1022F000FF1F2E0F3F1FF901E554FB4FE491E093C0
:10230000440CF901E454FB4FE491E093450CF901CE
:10231000E354FB4F24912093460C1092470C292F35
:1023200030E0F901EE0FFF1F2E0F3F1FF901E554BA
:10233000FB4FE491E093480CF901E454FB4FE49126
:10234000E093490CF901E354FB4F249120934A0C8C
:10235000112331F088E28093420C8093430C04C037
:102360001092420C1092430C8091390C8111C3C120
:10237000EBE3FCE090E19E0F8081809581939E13BA
:10238000FBCFB9C1843009F068C488E090E00E94B6
:10239000BD3F6B017C014B015C01B7FAB094B7F80B
:1023A000B09420E030E0A9010E94965587FF09C053
:1023B00027968FAE279728969FAE28973A2C2B2CDE
:1023C00008C02796CFAE27972896DFAE28973E2CD9
:1023D0002F2C03E01AE0812E912C20E03EE34CE10B
:1023E00056E4C701B6010E945D5187FD05C089E032
:1023F00023968FAF23970FC020E030EE49E754ECCF
:10240000C701B6010E94965518167CF08BE0239602
:102410008FAF239789E024968FAF249725968FAFAF
:10242000259726968FAF2697EEC020E030E0A901D1
:10243000C701B6010E949655A82EAA1CAA24AA1C60
:1024400010E060E070E080E09FE3101741F020E0D2
:1024500030E040E251E40E944C501F5FF6CF9B01F8
:10246000AC0127966FAD279728967FAD2897832DCF
:10247000922D0E94864F2B013C010E94B950FB0116
:102480009B0110E0C901B4010E94564FA1E0B0E0E9
:10249000AC0FBD1FA10FB11D8AE0689F2019112448
:1024A0002C931F5F9B01672B69F7812F8A0DB82E34
:1024B000B00E94E09B1518F404E0081B8ECF8CE05E
:1024C00023968FAF239724968FAF249725968FAFAF
:1024D000259726968FAF2697BF0180E090E00E9457
:1024E0009A559B01AC01C301B2010E94854F2B019B
:1024F0003C0184E0F82EFB18AA2059F0E2E4F0E059
:10250000EC0FFD1FEF0DF11D8BE0808385E0F82EB1
:10251000FB18F10E8F2D811B112369F0E2E4F0E02E
:10252000EC0FFD1FE80FF11DDE01A10FB11D8C9115
:1025300080831150EFCF002309F465C0E3E0FE1261
:102540000EC020E030E040E251E4C301B2010E943D
:10255000FB550E94B450672B21F58CE062CFF2E06E
:10256000FF120EC020E030E048EC52E4C301B2019B
:102570000E94FB550E94B450672B99F48CE04ECF1B
:1025800021E0F2120EC020E030E04AE754E4C3013B
:10259000B2010E94FB550E94B450672B11F48CE0ED
:1025A0003ACF11E01F0DE2E4F0E0EC0FFD1FEF0D5C
:1025B000F11D8AE08083015030F120E030E040E2FC
:1025C00051E4C301B2010E94FB554B015C010E9422
:1025D000B450FF24F394F10EE2E4F0E0EC0FFD1FA1
:1025E000E10FF11D6083072E000C880B990B0E94F0
:1025F0009C559B01AC01C501B4010E94854F2B0184
:102600003C011F2DD8CF23968FAD239790E0FC017E
:10261000EE0FFF1F8E0F9F1FFC01E554FB4FE4914F
:10262000E0933B0CFC01E454FB4FE491E0933C0C41
:10263000FC01E354FB4FE491E0933D0C10923E0CFF
:1026400024968FAD249790E0FC01EE0FFF1F8E0FB4
:102650009F1FFC01E554FB4FE491E0933F0CFC010C
:10266000E454FB4FE491E093400CFC01E354FB4F36
:10267000E491E093410C1092420C25968FAD259782
:1026800090E0FC01EE0FFF1F8E0F9F1FFC01E55431
:10269000FB4FE491E093430CFC01E454FB4FE491C5
:1026A000E093440CFC01E354FB4FE491E093450CB0
:1026B0001092460C26968FAD269790E0FC01EE0F07
:1026C000FF1F8E0F9F1FFC01E554FB4FE491E09329
:1026D000470CFC01E454FB4FE491E093480CFC01EF
:1026E000E354FB4FE491E093490C10924A0C809123
:1026F000390C882329F08BE39CE00E943330ADC273
:10270000EBE3FCE090E19E0F8081809581939E1326
:10271000FBCFF1CF8091660C8D1529F06D2D84E6ED
:102720009CE00E94263787E090E00E946A3E182FC6
:1027300061E08091640C0E94643461E0111118C062
:1027400060E016C08091660C8D1529F06D2D84E631
:102750009CE00E94263787E090E00E946A3E182F96
:1027600061E0823050F48091640C0E946434612FE7
:102770008091640C0E94353470C2823009F460E0AC
:1027800084E69CE00E944A3768C261E00E9464349B
:1027900087E090E00E946A3E682F70E08D2D0E94D5
:1027A000A0345BC287E090E00E946A3E182F853B10
:1027B00008F053C26D2D70E0E5EEF3E020E030E06C
:1027C000819191918617970789F0892B41F4F9013E
:1027D000EE0FFF1FEB51FC4F7183608307C02F5F2B
:1027E0003F4F2C30310561F720E030E0D901AA0FCE
:1027F000BB1F2A0F3B1FD901A756B34F2C9111962F
:102800009C91119712968C9129839A838B8330E047
:10281000D901AA0FBB1F2A0F3B1FD901AC50B84FDB
:102820008C9187FD04C0CE0101960E94991C612FF6
:1028300070E0CE010196FAD710C267D40E949A5573
:1028400020E030E04AE754E40E944C5060934F048B
:10285000709350048093510490935204FEC18111EF
:10286000FCC187E090E00E94DB3F8C0189E090E0B2
:102870000E94DB3FBC01990F880B990B0E949C556D
:1028800090582AE939E949E15EE30E94FB556B0162
:102890007C0160930D0470930E0480930F04909359
:1028A0001004B801110F880B990B0E949C552DEC58
:1028B0003CEC4CE45EE30E94FB5560932D04709366
:1028C0002E0480932F0490933004C701B6010E9418
:1028D000B4509B0177FF04C022273327261B370BF8
:1028E000223031050CF4B9C181E080930004B5C1F8
:1028F00087E090E00E946A3E182F61E0D61248C03F
:1029000088E090E00E949B3F6B017C018CE090E0AE
:102910000E94DB3F97FF03C091958195910911308B
:1029200069F4BC01990F880B990B0E949C558B018F
:102930009C01B701A60181E19AE049C1123049F436
:10294000BC01990F880B990B0E949C558B019C012F
:102950003AC1133069F4BC01990F880B990B0E949E
:102960009C558B019C01B701A60181E199E02FC123
:10297000143009F072C1BC01990F880B990B0E94A9
:102980009C558B019C01B701A60181E998E01FC10C
:1029900072E0D71264C088E090E00E94DB3F113003
:1029A000A9F4BC01990F880B990B0E949C551093B8
:1029B000110A1093120A60931F0A7093200A8093E1
:1029C000210A9093220A10927B0A47C11230B1F477
:1029D000BC01990F880B990B0E949C5521E0209314
:1029E00091092093920960939F097093A0098093A5
:1029F000A1099093A2091092FB092FC11330B1F4E1
:102A0000BC01990F880B990B0E949C5521E02093E3
:102A100011092093120960931F0970932009809374
:102A200021099093220910927B0917C1143009F0F3
:102A300014C1BC01990F880B990B0E949C5521E091
:102A4000209391082093920860939F087093A008A8
:102A50008093A1089093A2081092FB08FEC083E027
:102A6000D8121CC088E090E00E94DB3FBC0111300E
:102A700021F0123031F40C94960B81E19AE00C9421
:102A8000980B133021F481E199E00C94980B1430E9
:102A900009F0E3C081E998E00C94980B94E0D91216
:102AA0002DC0113049F41092370A1092380A109252
:102AB000390A10923A0AD1C0123049F41092B7097B
:102AC0001092B8091092B9091092BA09C6C0133011
:102AD00049F410923709109238091092390910926E
:102AE0003A09BBC0143009F0B8C01092B708109270
:102AF000B8081092B9081092BA08AFC0E5E0DE122B
:102B0000ACC088E090E00E949B3F6B017C018CE0B0
:102B100090E00E94DB3F1130D1F4BC01990F880B8B
:102B2000990B0E949C554B015C018B019C01B701E4
:102B3000A60181E19AE00E94044F44275527BA017B
:102B40004C195D096E097F09950184013EC0123060
:102B500091F4BC01990F880B990B0E949C554B0175
:102B60005C0144275527BA014C195D096E097F099C
:102B70009501840122C0133049F4BC01990F880BE0
:102B8000990B0E949C554B015C0113C0143009F055
:102B900064C0BC01990F880B990B0E949C554B0196
:102BA0005C01F094E094D094C094C11CD11CE11C51
:102BB000F11C95018401B701A60181E19AE00E9410
:102BC000044F95018401B701A60181E999E00E94B3
:102BD000044F43C0D092740CC092750CED2DF0E000
:102BE000EE0FFF1FE250FD4F81818093730C8081B7
:102BF0008093720C40E060E080E00E947F2140E022
:102C000050E092E081E02091760C3091770C4217F1
:102C1000530710F00C94A30C242F220F240F30E044
:102C2000E0917A0CF0917B0CE20FF31F9083E0911E
:102C30007A0CF0917B0CE20FF31F118260917A0CF9
:102C400070917B0CFB01E20FF31F82834F5F5F4F9C
:102C5000DACF8091720C0C94A90CC55BDF4F0FB6D4
:102C6000F894DEBF0FBECDBFDF91CF911F910F91C2
:102C7000FF90EF90DF90CF90BF90AF909F908F909C
:102C80007F906F905F904F903F902F9008950895A0
:102C90002091A5043091A6042817390771F490916A
:102CA000A4048091A304981741F0E091A404F0E0FB
:102CB000EE50FB4F808190E008958FEF9FEF0895D5
:102CC00008951F93CF93DF93DC015C962D913C9187
:102CD0005D972115310539F481E090E013969C93BE
:102CE0008E9312973DC05196ED91FC91529750965C
:102CF0009C915097892F80951FB75E964C915E9757
:102D000041FB772770F941FD6095F8944081772366
:102D100011F0492B01C048234083E9012197F1F7C5
:102D200048E0508160FF02C0592B01C058235083F6
:102D3000E9012197F1F76695415099F7772321F042
:102D400090818923808303C08081982B90831FBF4B
:102D50005C968D919C915D970197F1F721E030E0B1
:102D6000C901DF91CF911F9108952091A504309161
:102D7000A6042817390769F48091A3042091A404BC
:102D800090E0805C9F4F821B910960E470E00C949E
:102D90006A4F80E090E008952091A5043091A60448
:102DA00028173907B9F49091A4048091A3049817C7
:102DB00089F0E091A404F0E0EE50FB4F8081209177
:102DC000A40430E02F5F3F4F2F7333272093A404D8
:102DD00090E008958FEF9FEF089585ED8093BC00FC
:102DE0008091BC0084FDFCCF1092A2050895409113
:102DF000CD04262F30E0240F311D21323105DCF4C3
:102E00002091A2052430C9F4FC0180E090E08617EF
:102E100058F43091CD042191DC01A555BB4FA30F8F
:102E2000B11D2C930196F3CF8091CD04680F609370
:102E3000CD0480E0089581E0089582E0089508952A
:102E4000E091370580913805E81730F4F0E0E45A56
:102E5000FA4F808190E008958FEF9FEF0895909151
:102E6000370580913805981750F4E92FF0E0E45ABF
:102E7000FA4F208130E09F5F9093370502C02FEF1B
:102E80003FEFC90108958091380590E02091370502
:102E9000821B91090895CF92DF92EF92FF920F93D8
:102EA0001F93CF93DF937C01262F972F8A01809168
:102EB0003905882391F0C62FD72F6E01C40ED51E79
:102EC000CC15DD0569F06991D701ED91FC91019078
:102ED000F081E02DC7011995F3CF642F822F87DF92
:102EE000C801DF91CF911F910F91FF90EF90DF907C
:102EF000CF900895CF93DF931F92CDB7DEB769834C
:102F0000209139052223D1F020915B05203240F039
:102F100021E030E0FC013383228380E090E014C0A4
:102F200080913A05E82FF0E0E55CFA4F99819083B3
:102F30008F5F80933A0580935B0504C061E0CE010A
:102F4000019655DF81E090E00F90DF91CF910895D9
:102F5000CF92DF92EF92FF920F931F93CF93DF9365
:102F60006C018B017A01EC01C955DB4F888187FF29
:102F700004C0FB011182108224C08CE08C9D900162
:102F80008D9D300D11248881A901480F511D87FDA9
:102F90005A958091840890E04817590794F48881E5
:102FA000A901480F511D87FD5A95CA01FA01EE0F7C
:102FB000FF1F8E0F9F1FFC01EC50F84F808187FD93
:102FC00019C088818F5F88838CE08C9D90018D9DD6
:102FD000300D11248881A901480F511D87FD5A9594
:102FE0008091840890E048175907BCF488818C30A0
:102FF00044F113C08881280F311D87FD3A95F901EE
:10300000EE0FFF1F2E0F3F1FF901EC50F84F80818C
:1030100060E08F770E943534D4CFF80180819181B0
:10302000049680349C4918F480E49CE904C0F801BB
:10303000808191810496F701918380838FEF88834B
:1030400045C0F801408151818881B901680F711D27
:1030500087FD7A95CB01FB01EE0FFF1F8E0F9F1F9F
:10306000FC01EC50F84F81819281840F951FF7018C
:10307000918380838881A901480F511D87FD5A954E
:10308000CA01FA01EE0FFF1F8E0F9F1FFC01EC50CB
:10309000F84F808187FF1AC08881280F311D87FD76
:1030A0003A95F901EE0FFF1F2E0F3F1FF901EC506B
:1030B000F84F808161E08F77DF91CF911F910F9161
:1030C000FF90EF90DF90CF900C943534DF91CF914B
:1030D0001F910F91FF90EF90DF90CF900895CF93C5
:1030E000DF93EC018B85813011F460E001C061E079
:1030F0008A810E94353461E08B810E94353460E022
:103100008B81DF91CF910C9435342FB7F894609177
:1031100033057091340580913505909136052FBFA8
:1031200008951F920F920FB60F9211242F933F9381
:103130008F939F93AF93BF93809133059091340504
:10314000A0913505B09136053091320523E0230F6B
:103150002D3720F40196A11DB11D05C026E8230FCF
:103160000296A11DB11D20933205809333059093E3
:103170003405A0933505B09336058091DD0D90910F
:10318000DE0DA091DF0DB091E00D0196A11DB11DE6
:103190008093DD0D9093DE0DA093DF0DB093E00DD5
:1031A000BF91AF919F918F913F912F910F900FBE43
:1031B0000F901F9018951F920F920FB60F92112427
:1031C0000BB60F922F933F934F935F936F937F9321
:1031D0008F939F93AF93BF93EF93FF93E09114026C
:1031E000F09115021995FF91EF91BF91AF919F91C9
:1031F0008F917F916F915F914F913F912F910F90A0
:103200000BBE0F900FBE0F901F9018951F920F923C
:103210000FB60F9211240BB60F922F933F934F933B
:103220005F936F937F938F939F93AF93BF93EF932E
:10323000FF93E0911202F09113021995FF91EF9123
:10324000BF91AF919F918F917F916F915F914F91BE
:103250003F912F910F900BBE0F900FBE0F901F90BC
:1032600018951F920F920FB60F9211240BB60F9262
:103270002F933F934F935F936F937F938F939F937E
:10328000AF93BF93EF93FF93E0910802F09109028F
:103290001995FF91EF91BF91AF919F918F917F9180
:1032A0006F915F914F913F912F910F900BBE0F90B7
:1032B0000FBE0F901F9018951F920F920FB60F928E
:1032C00011240BB60F922F933F934F935F936F93FD
:1032D0007F938F939F93AF93BF93EF93FF93E0916F
:1032E0000602F09107021995FF91EF91BF91AF91FE
:1032F0009F918F917F916F915F914F913F912F910E
:103300000F900BBE0F900FBE0F901F9018951F923D
:103310000F920FB60F9211240BB60F922F933F937B
:103320004F935F936F937F938F939F93AF93BF93CD
:10333000EF93FF93E0911002F09111021995FF9124
:10334000EF91BF91AF919F918F917F916F915F911D
:103350004F913F912F910F900BBE0F900FBE0F908A
:103360001F9018951F920F920FB60F9211240BB653
:103370000F922F933F934F935F936F937F938F930E
:103380009F93AF93BF93EF93FF93E0910E02F09161
:103390000F021995FF91EF91BF91AF919F918F917E
:1033A0007F916F915F914F913F912F910F900BBE45
:1033B0000F900FBE0F901F9018951F920F920FB68F
:1033C0000F9211240BB60F922F933F934F935F935D
:1033D0006F937F938F939F93AF93BF93EF93FF93DD
:1033E000E0910C02F0910D021995FF91EF91BF91C0
:1033F000AF919F918F917F916F915F914F913F918D
:103400002F910F900BBE0F900FBE0F901F9018952D
:103410001F920F920FB60F9211240BB60F922F939B
:103420003F934F935F936F937F938F939F93AF934C
:10343000BF93EF93FF93E0910A02F0910B0219956D
:10344000FF91EF91BF91AF919F918F917F916F917C
:103450005F914F913F912F910F900BBE0F900FBE38
:103460000F901F9018951F920F920FB60F92112474
:103470000BB60F922F933F934F935F936F937F936E
:103480008F939F93AF93BF93EF93FF93E091A50426
:10349000F091A604309709F451C0968DA685B785A2
:1034A000858591FF04C09C91892329F447C09C9194
:1034B000892309F043C0A389B4899C9185898095AB
:1034C00089238C93868997890197F1F7608D718D97
:1034D000A685B785558538E020E0CB010197F1F747
:1034E000822F90E095958795282F4C91452309F0E0
:1034F0002068315091F7868D81FD20958091A3043D
:1035000090E001968F7399273091A404381749F001
:10351000A091A304B0E0AE50BB4F2C938093A304C2
:1035200003C0868D8160868F828D938D0197F1F720
:10353000A389B4899C918589892B8C93FF91EF9104
:10354000BF91AF919F918F917F916F915F914F91BB
:103550003F912F910F900BBE0F900FBE0F901F90B9
:103560001895E091A504F091A604E817F90769F40D
:10357000A389B4899C918589809589238C93109225
:10358000A6041092A50481E0089580E008951F929A
:103590000F920FB60F9211240BB60F922F933F93F9
:1035A0004F935F936F937F938F939F93AF93BF934B
:1035B000EF93FF938091B900887F803609F49CC017
:1035C00068F5883209F45BC090F4803109F454C086
:1035D00038F4882309F4F6C0883009F44DC0F5C0EA
:1035E000883109F44CC0803209F45DC0EEC08034EB
:1035F00009F468C048F4803309F455C0883309F0F1
:10360000E4C08093A005D8C0803509F44FC0883548
:1036100009F45DC0883409F0D8C0D6C0883909F4EF
:10362000C7C0A8F4883709F467C038F4883609F4AD
:1036300063C0803709F460C0C8C0883809F4B8C0D6
:10364000803909F45FC0803809F0BFC05BC0803B9F
:1036500009F486C038F4803A09F466C0883A09F45F
:103660007FC0B3C0803C09F4A7C0883C09F4A4C063
:10367000883B09F48AC0A9C080919D0510C0909133
:103680009F0580919E05981770F5E0919F0581E058
:103690008E0F80939F05F0E0E458FA4F808180936D
:1036A000BB0085EC86C08093A0058EC0E0919F058D
:1036B00081E08E0F80939F058091BB00F0E0E4587D
:1036C000FA4F808390919F0580919E056EC0E09196
:1036D0009F0581E08E0F80939F058091BB00F0E0F5
:1036E000E458FA4F80838091A10581116DC081E07B
:1036F00080939C0584EA61C083E08093A2051092C8
:10370000F104CFCF8091F104803208F051C0E091F4
:10371000F10481E08E0F8093F1048091BB00F0E012
:10372000EF52FB4F8083BDCF85EC8093BC0010929D
:10373000A2058091F104803230F4E091F104F0E0D0
:10374000EF52FB4F10826091F10470E0E091CF04E2
:10375000F091D00481ED94E019951092F10435C0F8
:1037600084E08093A2051092CE041092CD04E091E3
:10377000CB04F091CC0419958091CD04811105C042
:1037800081E08093CD041092AB04E091CE0481E0FF
:103790008E0F8093CE04F0E0E555FB4F808180933F
:1037A000BB009091CE048091CD04981708F479CF96
:1037B00085E88093BC0009C085EC8093BC00109222
:1037C000A20503C01092A00508DBFF91EF91BF9105
:1037D000AF919F918F917F916F915F914F913F91A9
:1037E0002F910F900BBE0F900FBE0F901F9018954A
:1037F0001092A20581E08093A10510929C0561E0E2
:1038000084E10E94353461E085E10E943534E9EBC2
:10381000F0E080818E7F808380818D7F808388E44B
:103820008093B80085E48093BC000895CF92DF9226
:10383000EF92FF92CF93DF93EC01603282E0780742
:103840000CF03DC077FD06C0653B71052CF064EBC4
:1038500070E002C060E070E0898128E830E0690132
:10386000C81AD10887FDD394CC0CDD1CCC0CDD1C10
:103870000D2C000CEE08FF088A8128E532E0281B99
:10388000310987FD3395220F331F220F331FC901E2
:10389000330FAA0BBB0B9C01AD012C193D094E093E
:1038A0005F09DB010E94EB5624EB30E040E050E082
:1038B0000E94C556C20ED31EE41EF51EB6018881B5
:1038C000803380F5998148E850E0491B510997FD04
:1038D0005395440F551F440F551F6417750784F007
:1038E0009A8128E532E0291B310997FD3395220F93
:1038F000331F220F331FAB01261737070CF4A90122
:1039000042505109440F551F2FB7F89490E0FC0125
:10391000EE0FFF1F8E0F9F1FFC01EC50F84F5283DC
:1039200041832FBFDF91CF91FF90EF90DF90CF9039
:1039300008951F93CF93DF93EC01162F8881803376
:1039400008F04EC061E0812F0E9464348881E82F26
:10395000F0E09F01220F331FE20FF31FEC50F84FEE
:103960001F7790819078192B108319821A826CE04E
:103970000E944A4F9CE0899FB001112440E050E032
:103980009A01260F371FF901EE0FFF1F2E0F3F1F61
:10399000F901EC50F84F908197FD16C04F5F5F4FD3
:1039A0004C30510569F7813001F51092800082E0BA
:1039B000809381001092850010928400B19A8091CA
:1039C0006F00826080936F00E881F0E0CF01880F84
:1039D000991FE80FF91FEC50F84F808180688083B1
:1039E0008881DF91CF911F910895823061F4109208
:1039F000900080939100109295001092940088BBE3
:103A000080937100E1CF833069F41092A00082E0CE
:103A10008093A1001092A5001092A40089BB80930E
:103A20007200D2CF8111D0CF1092200182E080931A
:103A3000210110922501109224018ABB809373000A
:103A4000C3CF1F920F920FB60F9211240BB60F9295
:103A50002F933F934F935F936F937F938F939F9396
:103A6000AF93BF93EF93FF9348E251E064E271E0BC
:103A700080E090E06DDAFF91EF91BF91AF919F915F
:103A80008F917F916F915F914F913F912F910F9007
:103A90000BBE0F900FBE0F901F9018951F920F92A4
:103AA0000FB60F9211240BB60F922F933F934F93A3
:103AB0005F936F937F938F939F93AF93BF93EF9396
:103AC000FF9348EA50E064EA70E083E090E040DA77
:103AD000FF91EF91BF91AF919F918F917F916F91E6
:103AE0005F914F913F912F910F900BBE0F900FBEA2
:103AF0000F901F9018951F920F920FB60F921124DE
:103B00000BB60F922F933F934F935F936F937F93D7
:103B10008F939F93AF93BF93EF93FF9348E950E048
:103B200064E970E082E090E013DAFF91EF91BF91D9
:103B3000AF919F918F917F916F915F914F913F9145
:103B40002F910F900BBE0F900FBE0F901F901895E6
:103B50001F920F920FB60F9211240BB60F922F9354
:103B60003F934F935F936F937F938F939F93AF9305
:103B7000BF93EF93FF9348E850E064E870E081E082
:103B800090E0E6D9FF91EF91BF91AF919F918F9116
:103B90007F916F915F914F913F912F910F900BBE4D
:103BA0000F900FBE0F901F90189560E0FC0184816C
:103BB0000C94353461E0FC0184810C9435340F930E
:103BC0001F93CF93DF93EC01488959896A897B89D8
:103BD0008C859D85AE85BF85481759076A077B0789
:103BE00011F480E046C084179507A607B7071CF4B8
:103BF00081E08B8701C01B8688A199A1AAA1BBA1E6
:103C0000892B8A2B8B2B69F30E9486350CA11DA171
:103C10002EA13FA1DC01CB01801B910BA20BB30BAA
:103C200008A119A12AA13BA1081719072A073B07D8
:103C3000C0F62B858C859D85AE85BF85213021F40E
:103C40000196A11DB11D03C00197A109B1098C877F
:103C50009D87AE87BF87E881F9810190F081E02DD3
:103C6000CE0119950E9486356CA37DA38EA39FA3D8
:103C700081E0DF91CF911F910F9108954F925F9254
:103C80006F927F92AF92BF92CF92DF92EF92FF92AC
:103C90000F931F93CF93DF93EC015A018B01FC012B
:103CA000FF961182108281E08EAF2C893D894E896A
:103CB0005F89B501C8010E949655882309F44CC05C
:103CC000C88CD98CEA8CFB8C2601370177FA70946A
:103CD00077F87094A3019201B501C8010E9496552E
:103CE00087FD0BC0A7019601B501C8010E945D5177
:103CF00018162CF06501780102C07301620120E002
:103D000030E0A901C701B6010E949655811105C096
:103D100018A219A21AA21BA21BC0A701960160E05B
:103D200074E284E799E40E944C509F770E94B95056
:103D300068A379A38AA39BA311E020E030E0A90146
:103D4000C701B6010E945D5118160CF010E01B87E8
:103D5000CC8ADD8AEE8AFF8ADF91CF911F910F9185
:103D6000FF90EF90DF90CF90BF90AF907F906F90DB
:103D70005F904F9008952F923F924F925F926F9273
:103D80007F928F929F92AF92BF92CF92DF92EF92EB
:103D9000FF920F931F93CF93DF9300D01F92CDB765
:103DA000DEB71C01FC01C088D188E288F3888485D5
:103DB0009585A685B785C81AD90AEA0AFB0A6489D7
:103DC0007589868997899B01AC010E94FB554B013F
:103DD0005C01F101648D758D868D978D9B01AC0121
:103DE0000E94864F9B01AC01C501B4010E944C505A
:103DF0000E94B450C114D104E104F104A1F4623072
:103E00007105810591050CF07CC0F10110A211A291
:103E100012A213A2148A158A168A178A10A611A64E
:103E200012A613A6FDC0F10100A511A522A533A578
:103E30001C141D041E041F0404F51016110612069E
:103E400013064CF46C157D058E059F055CF52385E6
:103E5000211157C027C0011511052105310509F4AD
:103E600050C06C157D058E059F050CF04AC0F10110
:103E70008385813009F045C039C01016110612063D
:103E80001306FCF40027112798010C191D092E09AF
:103E90003F09601771078207930724F4F101238516
:103EA000213079F59B01AC0188279927DC01821B21
:103EB000930BA40BB50BF10180A791A7A2A7B3A701
:103EC00020C00115110521053105D9F08824992458
:103ED00054018C189D08AE08BF08681579058A053D
:103EE0009B057CF4F101838581110BC030952095F1
:103EF000109501951F4F2F4F3F4F00A711A722A7E5
:103F000033A7F10180A491A4A2A4B3A481149104C5
:103F1000A104B10491F484A595A5A6A5B7A580AB8D
:103F200091ABA2ABB3AB81E01C141D041E041F04B3
:103F30000CF080E0F10183873FC0F101C0A8D1A857
:103F4000E2A8F3A8A7019601C701B6010E94864F17
:103F50002B013C01C501B4010E949C5520E030E0DA
:103F600040E850E40E94FB5520E030E040E85FE389
:103F70000E94864F9B01AC01C301B2010E944C50CC
:103F80009B01AC01C701B6010E94854F7B018C01EA
:103F9000F10164A875A8C6A8D7A89301A6010E943C
:103FA0005D51181614F073018601A701B801F101E3
:103FB00040AB51AB62AB73ABFFEF8F1A9F0AAF0AF6
:103FC000BF0AF10180A691A6A2A6B3A620A931A995
:103FD00042A953A9CA01B90129833A834B835C835F
:103FE0000E94B950F10160A371A382A393A3298118
:103FF0003A814B815C8160E074E284E799E40E943D
:104000004C50F101648B758B868B978B2385211126
:1040100007C0DC01CB01B058848B958BA68BB78B86
:104020000F900F900F900F90DF91CF911F910F91F4
:10403000FF90EF90DF90CF90BF90AF909F908F90C8
:104040007F906F905F904F903F902F900895CF9208
:10405000DF92EF92FF92CF93DF93EC016A017B0135
:104060009A01AB01688D798D8A8D9B8D0E94965542
:10407000882309F43FC0C88ED98EEA8EFB8EA70133
:10408000960160E074E284E799E40E944C506CABC6
:104090007DAB8EAB9FAB88A599A5AAA5BBA518162D
:1040A00019061A061B0634F56C897D898E899F894D
:1040B0009B01AC010E94FB556B017C016C8D7D8DD9
:1040C0008E8D9F8D9B01AC010E94864F9B01AC01A0
:1040D000C701B6010E944C500E94B45068A779A74E
:1040E0008AA79BA7CE01DF91CF91FF90EF90DF9041
:1040F000CF9041CEDF91CF91FF90EF90DF90CF90A6
:1041000008959091A2059111FCCF91E09093A205A2
:104110009093A1052FEF2093A00510929F05260FE5
:1041200020939E0590939D0590919D05880F892B66
:1041300080939D0580919C05813061F410929C05CF
:1041400080919D058093BB008091BC0083FDF8CFDA
:1041500085EC01C085EE8093BC008091A205813082
:10416000E1F380919F05861710F460919F05ACE7FD
:10417000B5E02CE535E0F9018E2F821B861718F487
:104180008D918193F9CF862F0895382F20915B056B
:104190009091A305213208F049C08091A2058111B8
:1041A000FCCF42E04093A2053093A1053FEF30934E
:1041B000A00510929F0520939E05ABE3B5E04CE768
:1041C00055E0FA013E2F341B321718F43D9131931C
:1041D000F9CF10929D0520919D05990F922B9093F8
:1041E0009D0590919C05913061F410929C059091F1
:1041F0009D059093BB009091BC0093FDF8CF95EC8A
:1042000001C095EE9093BC009091A2059230E1F32D
:104210009091A0059F3F79F08091A005803241F0F8
:104220008091A005803331F084E005C081E003C0B7
:1042300082E001C083E010923A0510925B05109273
:1042400039050895CF93DF93C8E6DCE061E0888507
:104250000E94353461E089850E94353460E08985AB
:104260000E94353460E08885DF91CF910C9435341D
:10427000CF93DF9300D01F92CDB7DEB79C01DE0154
:104280001196AD0194E09A0FF90181919F01FA0115
:104290008193AF019E13F8CF80E22C91223208F077
:1042A0008C93EC91F0E0E857FA4FE491ED939A1378
:1042B000F4CFC8DF80E40E94C4300E94B230C2DF75
:1042C00080916D0C0E94C43089810E94C4308A8123
:1042D0000E94C4308B810E94C4308C810E94C43003
:1042E0000E94B230AFDF80916E0C0E94C4300F90FC
:1042F0000F900F900F90DF91CF910C94B230E0E0CF
:10430000F0E02091760C3091770CE217F30710F56E
:10431000DF01BB27A217B307D8F42E2F220F2E0FD1
:1043200030E0A091780CB091790CA20FB31F6C9380
:10433000A091780CB091790CA20FB31F11968C93B9
:10434000A091780CB091790CA20FB31F12964C93E8
:104350003196D7CF81E00895CF93DF93EC0180E1D0
:104360008A8760E08D810E94353460E08E810E94F2
:10437000353461E08F81DF91CF910C9435348F9289
:104380009F92AF92BF92CF92DF92EF92FF92CF9324
:10439000DF93EC01CC8CDD8CEE8CFF8C20E030E4E4
:1043A0004CE956E4C701B6010E9496558823C1F135
:1043B00068A579A58AA59BA50E949C554B015C0127
:1043C00020E030E44CE956E4C701B6010E944C50AD
:1043D0009B01AC01C501B4010E94FB550E94B45081
:1043E00068A779A78AA79BA78AE898EFACEDB5E400
:1043F0008CA79DA7AEA7BFA780E090E4ACE9B6E488
:104400008C8F9D8FAE8FBF8FCE01DF91CF91FF90AC
:10441000EF90DF90CF90BF90AF909F908F90ABCCFC
:10442000DF91CF91FF90EF90DF90CF90BF90AF9052
:104430009F908F900895CF93DF938F3F910519F050
:1044400014F08FEF90E0EC01C1308FEFD80714F437
:10445000C1E0DFEF8091970C9091980C8C179D072D
:1044600009F442C0D093980CC093970C1C161D06FB
:1044700094F48091950C60E00E9435348FE090E0D8
:104480000197F1F78091940C61E00E94353480919E
:10449000960CBE0125C02097A9F08091940C60E095
:1044A0000E9435348FE090E00197F1F78091950CF0
:1044B00061E00E9435348091960C662777276C1B4B
:1044C0007D0B0EC08091950C60E00E943534809188
:1044D000940C60E00E9435348091960C60E070E0AE
:1044E000DF91CF910C94A034DF91CF910895CF93B9
:1044F000DF9390E0FC01EE0FFF1F8E0F9F1FFC016A
:10450000E85AFD4F8081C4E9DCE08883818189839A
:1045100082818A83888161E00E946434898161E0BC
:104520000E94643484EF91E09C838B83DF91CF9170
:104530000895EF92FF920F931F93CF93DF93162F5F
:10454000D72FC42F9091320C21E0209339059093FE
:10455000A30510923A0510925B05682F88EE97E04C
:104560000E947A17813039F580E00FDE81112BC06F
:104570006C2FC13208F060E28091320CC2DD1092E3
:10458000370580933805E12EFD2E00E010E0D0E0E5
:104590009091380580913705981779F00C171D0711
:1045A00064F40F5F1F4F88EE97E00E942F17F7010A
:1045B00081937F01EDCF8FEF06C081E00C171D07BF
:1045C00009F480E08195DF91CF911F910F91FF90C9
:1045D000EF900895CF93DF93EB019091320C21E09F
:1045E000209339059093A30510923A0510925B052C
:1045F000682F88EE97E00E947A17813059F441E0E5
:1046000050E0BE0188EE97E00E944B1781E0DF91F9
:10461000CF91BBCD8FEFDF91CF910895E82FF0E0E0
:10462000EE0FFF1FEA5FFD4F7183608390E08830DB
:104630009105F0F5FC018827E055FF4F8F4F0C9452
:104640007D4F80916900836080936900E89A0895A6
:10465000809169008C6080936900E99A0895809147
:104660006900806380936900EA9A089580916900E7
:10467000806C80936900EB9A089580916A00836052
:1046800080936A00EC9A089580916A008C60809310
:104690006A00ED9A089580916A00806380936A00B1
:1046A000EE9A089580916A00806C80936A00EF9A78
:1046B00008950F931F9390E0FC01EE5BFA4FA491D5
:1046C000FC01E450FB4FE491F0E0EE0FFF1FEE51D0
:1046D000FB4F859194918A019B013F704A2F6A2F6D
:1046E0000E947240611571058105910549F0DC0158
:1046F000CB010196A11DB11DBC01CD019F7003C06E
:1047000060E070E0CB011F910F910895CF93DF938C
:10471000EB019091D40B21E0209339059093A305F0
:1047200010923A0510925B05682F88EE97E00E9480
:104730007A17813059F441E050E0BE0188EE97E0ED
:104740000E944B1781E0DF91CF911FCD8FEFDF915A
:10475000CF910895EF92FF920F931F93CF93DF9322
:10476000162FD72FC42F9091D40B21E02093390519
:104770009093A30510923A0510925B05682F88EE7E
:1047800097E00E947A17813039F580E0FEDC8111D4
:104790002BC06C2FC13208F060E28091D40BB1DCE9
:1047A0001092370580933805E12EFD2E00E010E0D1
:1047B000D0E09091380580913705981779F00C1763
:1047C0001D0764F40F5F1F4F88EE97E00E942F17BC
:1047D000F70181937F01EDCF8FEF06C081E00C17C9
:1047E0001D0709F480E08195DF91CF911F910F9112
:1047F000FF90EF9008952F923F924F925F926F92A9
:104800007F928F929F92AF92BF92CF92DF92EF9260
:10481000FF920F931F93CF93DF93CDB7DEB7A69789
:104820000FB6F894DEBF0FBECDBF62E089EC9BE00F
:104830000E94583781112EC26AE070E080E090E05B
:104840000E94AB3562E089EC9BE00E9458378111F1
:1048500021C243E06EEC7BE08AE07CDF81111AC26A
:104860008091CE0B883409F015C28091CF0B843330
:1048700009F010C28091D00B833309F00BC20E9463
:1048800085184B015C01F12C11E062E089EC9BE0A2
:104890000E945837811119C00E948518DC01CB0194
:1048A00088199909AA09BB09893C9105A105B10597
:1048B00060F3A8950E9485184B015C01F1266F2DCD
:1048C00089EC9BE00E944A37E0CF64E670E080E02C
:1048D00090E00E94AB350E9485182B013C012FEF20
:1048E0003FE73C872B8740E050E85E874D878FEF9E
:1048F0009FE798878F83A0E0B0E8BA87A987222432
:104900002A948FE7382E00E010E8EE24E3940E940A
:104910008518DC01CB0188199909AA09BB09893CD2
:104920009105A105B10558F0A8950E9485184B0185
:104930005C01FE246F2D89EC9BE00E944A370E94A7
:104940008518DC01CB0184199509A609B7090B97D5
:10495000A105B105C0F1A895AE014F5F5F4FBE0143
:104960006D5F7F4FCE0105960E9462388D819E81DA
:10497000821593052CF0081719071CF48C0101C04F
:104980001C018B819C812F8138858217930744F00D
:1049900049855A85481759072CF49A87898702C098
:1049A00098878F8389819A81AB85BC858A179B07FD
:1049B00044F02D853E85281739072CF49E878D8776
:1049C00002C09C878B8762E089EC9BE00E9458378D
:1049D00081119DCF60E089EC9BE00E944A37B801CD
:1049E000012E000C880B990B0E949C554B015C0119
:1049F000B101032C000C880B990B0E949C556F870A
:104A0000788B898B9A8B9B01AC01C501B4010E9404
:104A1000864F905820E030E040E05FE30E94FB5575
:104A20006B8B7C8B8D8B9E8B6093D60B7093D70B8F
:104A30008093D80B9093D90B49855A85BA01550FAD
:104A4000880B990B0E949C556B017C01AF81B88546
:104A5000BD01BB0F880B990B0E949C556F8B788F03
:104A6000898F9A8F9B01AC01C701B6010E94864FC6
:104A7000905820E030E040E05FE30E94FB556B8FF0
:104A80007C8F8D8F9E8F6093DA0B7093DB0B8093FE
:104A9000DC0B9093DD0B2D853E85B901330F880B20
:104AA000990B0E949C552B013C014B855C85BA01FA
:104AB000550F880B990B0E949C556F8F78A389A383
:104AC0009AA39B01AC01C301B2010E94864F90588A
:104AD00020E030E040E05FE30E94FB556BA37CA345
:104AE0008DA39EA36093DE0B7093DF0B8093E00B8E
:104AF0009093E10B80E090E0A0E8BFE38093E20BAD
:104B00009093E30BA093E40BB093E50B2F853889CA
:104B100049895A89C501B4010E94854F4B015C0146
:104B20002F89388D498D5A8DC701B6010E94854F56
:104B3000A50194010E944C506B017C016093E60B2F
:104B40007093E70B8093E80B9093E90B2F8D38A1BE
:104B500049A15AA1C301B2010E94854FA501940148
:104B60000E944C504B015C016093EA0B7093EB0B7D
:104B70008093EC0B9093ED0B0219130917FF03C000
:104B800011950195110989859A85AF81B8858A1B90
:104B90009B0B97FF03C09195819591092D853E85CB
:104BA0004B855C85241B350B37FF03C03195219560
:104BB0003109801791072CF02017310714F081E09C
:104BC00009C0081719072CF02817390714F082E0DC
:104BD00001C083E08093EE0B2B8D3C8D4D8D5E8D5F
:104BE0006B897C898D899E890E94864F2BA13CA16F
:104BF0004DA15EA10E94864F20E030E040E85FE3D7
:104C00000E94864FA70196010E94864FA50194013C
:104C10000E94864F6B017C018091EE0B682F70E043
:104C200080E090E00E949C559B01AC01C701B60159
:104C30000E94864F20E030E04AE253E40E94864F13
:104C40000E94B9506093EF0B00E010E0F801E753C9
:104C5000F44F6585C8010E94B7560F5F1F4F0A3198
:104C60001105A1F781E08093CD0B61E089EC9BE019
:104C70000E944A3762E089EC9BE00E94583781111C
:104C800002C0A895F7CFA89564E670E080E090E0B8
:104C90000E94AB35A6960FB6F894DEBF0FBECDBF0F
:104CA000DF91CF911F910F91FF90EF90DF90CF9008
:104CB000BF90AF909F908F907F906F905F904F903C
:104CC0003F902F900895CF93DF93EC0188E690E01A
:104CD0009FA38EA38BA18823A1F089A140E855E270
:104CE00060E070E08F3019F481E196E004C080311B
:104CF00029F48BE497E00E94BC2F9DC08EEA96E0D9
:104D0000FACF1B8E1A8E198E188E1F8A1E8A8DE975
:104D100091E09D8F8C8F8C8596EF980F943048F0A2
:104D20002EEC280F243028F022EC280F283008F031
:104D300062C02DEB30E03F8B2E8B2BE931E0398FB9
:104D4000288F2CE231E03B8F2A8F943060F02EECDC
:104D5000280F243040F022EC280F283008F471C0CE
:104D6000A0E0B0E070C0A8E6B0E0E8E6F0E02081A6
:104D7000943018F08E53883010F081E001C084E048
:104D8000822B8C938C8596EF980F943058F02EECF4
:104D9000280F243038F022EC280F283030F020E0A3
:104DA00030E005C02BE630E002C02DE630E03C8B61
:104DB0002B8B943010F49AEF0BC0823381F0833345
:104DC00081F0843381F092EC980F983070F492EC7B
:104DD000980F81E001C0880F9A95EAF707C088E034
:104DE00005C084E003C082E001C081E08D8B8C8D22
:104DF0009D8D0197F1F78A8D9B8D892BE1F0809134
:104E0000A5049091A6048C179D07A9F0009711F0B6
:104E10000E94B11A8E8D8E7F8E8F1092A3041092F5
:104E2000A404D093A604C093A504EB89FC899081C7
:104E30008D89892B808360E08F8DDF91CF910C94D9
:104E40006434A8E6B0E0283008F48FCFE0E0F0E06A
:104E50008ECF1F920F920FB60F9211240BB60F92A6
:104E60000F931F932F933F934F935F936F937F9372
:104E70008F939F93AF93BF93CF93EF93FF9382E072
:104E80000E940D34C82F8091AA059091AB05019620
:104E90009093AB058093AA0580911006843618F094
:104EA00085E08093A5059091A505933079F018F4DD
:104EB000923039F072C0943011F1953009F44AC043
:104EC0006CC0C1116AC01092100629C0C13009F02F
:104ED00064C0E091100681E08E0F80931006F0E030
:104EE0008091AA059091AB05EC55FA4F80871092FE
:104EF000AB051092AA0584E08093A5054EC0C111B0
:104F000014C0E091100681E08E0F80931006F0E04F
:104F10008091AA059091AB05EC55FA4F80871092CD
:104F2000AB051092AA0583E0E7CF8091AA05909186
:104F3000AB058536910588F185E08093A5050E9433
:104F400085186093A6057093A7058093A805909394
:104F5000A90523C00E9485180091A6051091A705F8
:104F60002091A8053091A905DC01CB01801B910B94
:104F7000A20BB30B893C9105A105B10540F010923D
:104F800010061092AB051092AA0582E0B5CFC111B0
:104F900004C01092AB051092AA05FF91EF91CF913A
:104FA000BF91AF919F918F917F916F915F914F9141
:104FB0003F912F911F910F910F900BBE0F900FBE3D
:104FC0000F901F901895EF92FF920F931F93CF931E
:104FD000DF93FC016F3F710519F014F06FEF70E083
:104FE000EB0161307F4F14F4C1E0DFEF80859185E4
:104FF0008C179D07D1F1D187C087D583C483DF018A
:10500000A059BF4FCF018F589F4F7C018F0101598D
:105010001F4FD7FF12C060E08C910E9435348FE0A3
:1050200090E00197F1F761E0F70180810E9435344B
:10503000662777276C1B7D0B0EC061E08C910E9468
:1050400035348FE090E00197F1F760E0F70180815F
:105050000E943534BE01F8018081DF91CF911F910C
:105060000F91FF90EF900C94A034DF91CF911F919E
:105070000F91FF90EF9008952F923F924F925F9281
:105080006F927F928F929F92AF92BF92CF92DF9258
:10509000EF92FF920F931F93CF93DF93CDB7DEB7BD
:1050A0002A970FB6F894DEBF0FBECDBF9A878987C7
:1050B000DC0196966D917D918D919C9199971296B8
:1050C0000D911C91139756962D913D914D915C91A8
:1050D00059972D833E834F8358870E949C556B01BF
:1050E0007C01B801110F880B990B0E949C552D81F2
:1050F0003E814F8158850E94FB559B01AC01C70141
:10510000B6010E944C5020E030E044EB53E40E9492
:10511000FB550E94B450E985FA85628F738F848FA6
:10512000958F0E94851809851A850A581F4FD80146
:10513000CD90DD90ED90FC90DC01CB018C199D09A8
:10514000AE09BF094597A105B10508F467C00E94E3
:1051500085186B017C01E985FA8586A097A0A0A43B
:10516000B1A482A193A1A4A1B5A1228033802689F4
:105170003789408D518D29833A834B835C83A50108
:105180009401281B390B4A0B5B0BCA01B9010E9421
:105190009C552B013C01D8018D919C91C81AD90ACC
:1051A000B60180E090E00E949A559B01AC0160E05E
:1051B00070E08AE794E40E944C509B01AC01C3016B
:1051C000B2010E94FB5520E030E040E752E40E942B
:1051D000FB556B017C01B101330C880B990B0E94CC
:1051E0009C5529813A814B815C810E94FB559B0132
:1051F000AC01C701B6010E944C50E985FA8562876F
:1052000073878487958782A293A2A4A2B5A20E94E5
:105210008518F8016083718382839383A985BA8599
:105220009C90B1E09B1278C30E94851809851A856D
:1052300006581F4FF801C080D180E280F380DC0166
:10524000CB018C199D09AE09BF098997A105B1054C
:1052500008F433C40E948518D8016D937D938D9313
:105260009C931397E985FA858181811179C2868D96
:10527000978DA0A1B1A1028D138D248D358DBC0118
:10528000CD01601B710B820B930B0E949C556B012F
:105290007C01A984BA84FAE6AF0EB11CD5018C91C9
:1052A00009851A850C581F4F8111B4C1E985FA850B
:1052B000E559FF4F808120E030E0A901882339F0D3
:1052C000C701B6010E94965587FF33C006C0C701CB
:1052D000B6010E945D51181664F5E985FA852285AC
:1052E000338544855585EE5AFF4F608171818281F7
:1052F00093810E94FB55DC01CB01B058E985FA850A
:10530000E65AFF4F80839183A283B38360817181CA
:10531000828193810E94B4509B01D8016D937C934C
:10532000F5019082A985BA8515967C936E931497A2
:10533000EEC220E030E0A901C701B6010E945D5134
:1053400026013701181624F077FA709477F87094D4
:10535000E985FA85668577858089918920E030E046
:1053600040EC50E40E94FB559B01AC01C301B2012B
:105370000E945D5187FFC1C320E030E0A901C70151
:10538000B6010E945D5118165CF420E030E040E266
:1053900051E4C701B6010E945D5118165CF03AC194
:1053A00020E030E040E251ECC701B6010E94965582
:1053B00087FF30C1E985FA85468457846088718803
:1053C00020E030E040E251E4C701B6010E94854F81
:1053D0004B015C0120E030E040EC50E4C301B2013D
:1053E0000E94FB55A50194010E94FB5520E030E08E
:1053F000A9010E945D5118169CF4A985BA851E96D4
:105400006D917D918D919C91519720E030E040EC21
:1054100050E40E94FB55A50194010E94FB5511C068
:10542000E985FA85668577858089918920E030E075
:1054300040EC50E40E94FB55A50194010E94FB55ED
:1054400090580E94B85120E030E040EC50E40E94B7
:105450004C502B013C01A985BA851A968D909D90E0
:10546000AD90BC901D9720E030E0A901C701B601C6
:105470000E945D51A701960118160CF05058E9855D
:10548000FA85EE5AFF4F80819181A281B381898391
:105490009A83AB83BC83C701B6010E944C509B0129
:1054A000AC01C301B2010E94FB559B01AC01C501D7
:1054B000B4010E94854F9B01AC0169817A818B8187
:1054C0009C810E94FB552B013C0120E030E040EA2A
:1054D00051EC0E94965587FD11C020E030E040EA73
:1054E00051E4C301B2010E945D5118166CF4412CC5
:1054F000512C40EA642E41E4742E06C0412C512CFC
:1055000050EA652E51EC752ED8016D917C91072ED5
:10551000000C880B990B0E949C55A984BA84BAE5AB
:10552000AB0EB11CF501608371838283938360812C
:10553000718182819381A30192010E94854FD501DF
:105540006D937D938D939C93139720E030E0A90198
:10555000C701B6010E945D5187FD24C0F50160813D
:1055600071818281938120E030E048EC51E40E9417
:10557000965587FD12C0D5016D917D918D919C91BD
:1055800020E030E04FE753E40E945D51181624F507
:1055900080E090E0AFE7B3E42EC080E090E0A8ECBC
:1055A000B1E429C0D5016D917D918D919C9120E050
:1055B00030E04FE753EC0E94965587FD13C0F5018C
:1055C000608171818281938120E030E048EC51EC70
:1055D0000E945D5118165CF0F50180819181A281D5
:1055E000B38109C080E090E0AFE7B3EC04C080E095
:1055F00090E0A8ECB1ECF50180839183A283B383A2
:1056000060817181828193810E94B450F80171831D
:105610006083A2C081E0D5018C93E985FA85E258C8
:10562000FF4F0190F081E02D309769F0A985BA8590
:10563000A459BF4F6C9170E0A985BA85AD58BF4F92
:105640008C9190E01995E985FA852285338544850A
:105650005585EE5AFF4F60817181828193810E944E
:10566000FB554B015C0120E030E040EA51EC0E9428
:10567000965587FD11C020E030E040EA51E4C501B5
:10568000B4010E945D5118166CF4812C912C20EA13
:10569000A22E21E4B22E06C0812C912C30EAA32E3A
:1056A00031ECB32EE985FA85E65BFF4F208131812D
:1056B00042815381C701B6010E94FB55E984FA84F7
:1056C000FAE5EF0EF11CD7016D937D938D939C93BA
:1056D00013976D917D918D919C91A50194010E94EC
:1056E000854FF70160837183828393836081718129
:1056F0008281938120E030E04FE753EC0E94965581
:1057000087FD13C0D7016D917D918D919C9120E013
:1057100030E04FE753E40E945D5118165CF0F7014A
:1057200080819181A281B38109C080E090E0AFE7E0
:10573000B3EC04C080E090E0AFE7B3E4F70180830E
:105740009183A283B38360817181828193810E945E
:10575000B450D8016D937C93F80120813181D7C07A
:10576000A985BA8511968C911197813009F0CDC029
:105770001A966D917D918D919C911D971E962D91FC
:105780003D914D915C9151979A96CD90DD90ED9021
:10579000FC909D970E94854F9B01AC01C701B6010B
:1057A0000E94FB556B017C0120E030E048EC51EC9D
:1057B0000E94965587FD11C020E030E048EC51E48E
:1057C000C701B6010E945D5118166CF4C12CD12C92
:1057D00088ECE82E81E4F82E06C0C12CD12C98EC80
:1057E000E92E91ECF92E09851A850C581F4FF80106
:1057F00060817181072E000C880B990B0E949C55CB
:10580000A985BA85DA966D937D938D939C93DD97E8
:10581000DA966D917D918D919C91DD97A70196010E
:105820000E94854FE985FA8562AF73AF84AF95AF6B
:105830005F01FAE6AF0EB11CD5018C91E985FA85BE
:10584000882329F012AE13AE14AE15AE1FC06685C4
:1058500077858089918920E030E0A9010E949655E2
:10586000811114C020E030E0A901C701B6010E94F7
:105870005D5118160CF0FBC120E030E040E751E428
:10588000C701B6010E94965587FDFCC1A985BA855E
:10589000DA966D917D918D919C91DD9720E030E0BD
:1058A0004FE753EC0E94965587FD15C0E985FA85B0
:1058B00062AD73AD84AD95AD20E030E04FE753E4C9
:1058C0000E945D51181664F0E985FA8582AD93ADAA
:1058D000A4ADB5AD09C080E090E0AFE7B3EC04C083
:1058E00080E090E0AFE7B3E4E985FA8582AF93AF5B
:1058F000A4AFB5AF62AD73AD84AD95AD0E94B450A9
:105900009B01D8016D937C9302C020E030E0E985D3
:10591000FA8535832483D1C0E985FA858081823078
:1059200009F0C3C10E94851809851A8506581F4FC2
:10593000D801CD90DD90ED90FC90DC01CB018C196D
:105940009D09AE09BF098997A105B10508F4B5C045
:105950000E948518F8016083718382839383A985EF
:10596000BA8514966D917C91159716960D911C91A0
:105970001797072E000C880B990B0E949C552DEC55
:105980003CEC4CE45FE30E94FB556B017C01B801E9
:10599000110F880B990B0E949C552DEC3CEC4CE4AC
:1059A0005EE30E94FB559B01AC01C701B6010E945A
:1059B000864F20E030E0A9010E945D5187FD2DC097
:1059C000E985FA856481758106811781072E000CAF
:1059D000880B990B0E949C552DEC3CEC4CE45FE34A
:1059E0000E94FB556B017C01B801110F880B990BCC
:1059F0000E949C552DEC3CEC4CE45EE30E94FB5570
:105A00009B01AC01C701B6010E94864F20E030E047
:105A100040E05FE30E94864F30C0A985BA851496A6
:105A20006D917C91159716960D911C911797072EE5
:105A3000000C880B990B0E949C552DEC3CEC4CE41F
:105A40005FE30E94FB556B017C01B801110F880BCD
:105A5000990B0E949C552DEC3CEC4CE45EE30E94BB
:105A6000FB559B01AC01C701B6010E94864F20E0A7
:105A700030E040E05FE30E94854F0E94B450E9852A
:105A8000FA857583648384819581181619061CF440
:105A90008481958109C0A985BA8514968D919C91C0
:105AA00015979195819591090B973CF4E985FA85B5
:105AB00086819781892B09F4F1C0A985BA8514964E
:105AC0006D917C911597CD012A960FB6F894DEBFA3
:105AD0000FBECDBFDF91CF911F910F91FF90EF903F
