:100000000C94E9000C9411010C9411010C94C10B97
:100010000C94C10B0C94C10B0C9411010C940B0BA0
:100020000C9411010C9411010C9411010C942407EF
:100030000C9411010C9411010C9411010C941101F8
:100040000C94FB050C9411010C94B0030C948A03DE
:100050000C9411010C9411010C9411010C941101D8
:100060000C94510C0C9411018917E7140315AF156A
:10007000AF15C4155618AF155618561856185618F9
:10008000561856185618F71556180C1656185618AE
:1000900056183A163E1874163B175E17561856181F
:1000A00056185618C517D1175618561856185618F8
:1000B000F417DF17561856185618561856185618AB
:1000C00056185618561856185618561822182D181D
:1000D00007634236B79BD8A71A39685618AEBAAB31
:1000E000558C1D3CB7CC5763BD6DEDFD753EF617C5
:1000F0007231BF000000803F08000000BE9224491A
:10010000123EABAAAA2ABECDCCCC4C3E0000008049
:10011000BEABAAAAAA3E00000000BF000000803FBC
:100120000000000000084178D3BB4387D1133D197C
:100130000E3CC3BD4282AD2B3E68EC8276BED98FA9
:10014000E1A93E4C80EFFFBE01C4FF7F3F000000ED
:10015000000000000000240027002A000000000822
:10016000000201000003040700000000000000007E
:100170003F065B4F666D7D077F6F777C395E7971D7
:10018000BF86DBCFE6EDFD87FFEFF7FCB9DEF9F1C7
:10019000004000000000250028002B0000000000A7
:1001A00023002600290004040404040404040202B9
:1001B00002020202030303030303010204081020E6
:1001C0004080010204081020010204081020401F92
:1001D000171F11241FBECFEFD8E0DEBFCDBF11E047
:1001E000A0E0B1E0E2EDF1E502C005900D92A03D86
:1001F000B107D9F726E0A0EDB1E001C01D92A33E02
:10020000B207E1F710E0C8EED0E004C02197FE018C
:100210000E946F21C73ED107C9F70E94B8120C9403
:10022000DC280C940000CF92DF92EF92FF920F93A4
:100230001F93CF93DF936C017A018B01C0E0D0E074
:10024000CE15DF0589F0D8016D918D01D601ED91B4
:10025000FC910190F081E02DC6010995892B11F4E4
:100260007E0102C02196ECCFC701DF91CF911F9193
:100270000F91FF90EF90DF90CF900895FC01918D4A
:10028000828D981761F0828DDF01A80FB11D5D96F8
:100290008C91928D9F5F9F73928F90E008958FEF66
:1002A0009FEF0895FC01918D828D981731F0828D1A
:1002B000E80FF11D858D90E008958FEF9FEF089571
:1002C000FC01918D228D892F90E0805C9F4F821BD5
:1002D00091098F73992708958DE693E00E9460013C
:1002E00021E0892B09F420E0822F0895FC01848D00
:1002F000DF01A80FB11DA35ABF4F2C91848D90E050
:1003000001968F739927848FA689B7892C93A0892A
:10031000B1898C9180648C93938D848D981306C0E1
:100320000288F389E02D80818F7D80830895EF928C
:10033000FF920F931F93CF93DF93EC0181E0888F9F
:100340009B8D8C8D981305C0E889F989808185FD86
:1003500024C0F62E0B8D10E00F5F1F4F0F73112777
:10036000E02E8C8DE8120CC00FB607FCFACFE8899E
:10037000F989808185FFF5CFCE010E947601F1CF0A
:100380008B8DFE01E80FF11DE35AFF4FF0820B8FBA
:10039000EA89FB898081806207C0EE89FF896083DA
:1003A000E889F98980818064808381E090E0DF9131
:1003B000CF911F910F91FF90EF900895CF93DF930E
:1003C000EC01888D8823C9F0EA89FB89808185FD4D
:1003D00005C0A889B9898C9186FD0FC00FB607FCAE
:1003E000F5CF808185FFF2CFA889B9898C9185FFEF
:1003F000EDCFCE010E947601E7CFDF91CF91089536
:1004000080E090E0892B29F00E946C0181110C940E
:1004100000000895833081F028F4813099F0823013
:10042000A1F008958730A9F08830B9F08430D1F474
:10043000809180008F7D03C0809180008F778093B2
:100440008000089584B58F7702C084B58F7D84BD08
:1004500008958091B0008F7703C08091B0008F7DA8
:100460008093B000089520916B0330916C0328179E
:10047000390771F49091690380916A03981741F0EC
:10048000E0916903F0E0EE54FD4F808190E0089523
:100490008FEF9FEF089508951F93CF93DF93DC01B3
:1004A0005C962D913C915D972115310539F481E0E1
:1004B00090E013969C938E9312973DC05196ED91C8
:1004C000FC91529750969C915097892F80951FB719
:1004D0005E964C915E9741FB772770F941FD6095E0
:1004E000F8944081772311F0492B01C048234083C1
:1004F000E9012197F1F748E0508160FF02C0592BD4
:1005000001C058235083E9012197F1F766954150C6
:1005100099F7772321F090818923808303C080811C
:10052000982B90831FBF5C968D919C915D9701974E
:10053000F1F721E030E0C901DF91CF911F910895DB
:10054000FC0123A1222321F08DE693E00C94970176
:100550000C944C0220916B0330916C0328173907DF
:1005600071F480916A032091690390E0805C9F4F51
:10057000821B910960E470E00E945B21089580E095
:1005800090E0089520916B0330916C032817390790
:10059000B9F49091690380916A03981789F0E0910A
:1005A0006903F0E0EE54FD4F80812091690330E053
:1005B0002F5F3F4F2F7333272093690390E00895F7
:1005C0008FEF9FEF089585ED8093BC008091BC0074
:1005D00084FDFCCF10928C02089540916602262F74
:1005E00030E0240F311D21323105DCF420918C02E2
:1005F0002430C9F4FC0180E090E0861758F4309173
:1006000066022191DC01AC5BBD4FA30FB11D2C93A1
:100610000196F3CF80916602680F6093660280E0D6
:10062000089581E0089582E0089508958FEF9FEF87
:1006300008958FEF9FEF08958091430290E0919588
:10064000819591090895CF93DF9300D0CDB7DEB7A0
:10065000CB01642F49835A830E94ED024981842F84
:100660005A81952F0F900F90DF91CF910895CF93DE
:10067000DF931F92CDB7DEB7698361E0CE010196AB
:100680000E94ED0281E090E00F90DF91CF910895FC
:100690000E947026EF92FF920F931F93CF93DF93E8
:1006A000EC017B018A0188819981009729F02A81D8
:1006B0003B8124173507F8F4B8016F5F7F4F0E9424
:1006C000A625009759F0998388831B830A832C8180
:1006D0003D81232B81F4FC0110820DC0888199811A
:1006E000009711F00E940E25198218821D821C822B
:1006F0001B821A8207C01D830C83B70188819981F0
:100700000E948B26CE01DF91CF911F910F91FF9018
:10071000EF9008951F920F920FB60F9211242F930E
:100720003F934F935F936F937F938F939F93AF9379
:10073000BF93EF93FF938DE693E00E947601FF91C4
:10074000EF91BF91AF919F918F917F916F915F9149
:100750004F913F912F910F900FBE0F901F901895C2
:100760001F920F920FB60F9211242F938F939F9386
:10077000EF93FF93E0917D03F0917E038081E09100
:100780008303F091840382FD12C0908180918603DF
:100790008F5F8F7320918703821751F0E09186035A
:1007A000F0E0E359FC4F958F8093860301C0808170
:1007B000FF91EF919F918F912F910F900FBE0F900E
:1007C0001F901895CF93DF93282F30E0F901E45A5A
:1007D000FE4F8491F901E654FE4FD491F901EA5598
:1007E000FE4FC491CC2391F081110E940A02EC2F9C
:1007F000F0E0EE0FFF1FE456FE4FA591B491EC918F
:10080000ED2381E090E021F480E002C080E090E000
:10081000DF91CF9108951F93CF93DF93282F30E07E
:10082000F901E45AFE4F8491F901E654FE4FD49148
:10083000F901EA55FE4FC491CC23C9F0162F81115E
:100840000E940A02EC2FF0E0EE0FFF1FEE56FE4F63
:10085000A591B4918FB7F894111105C09C91ED2F1B
:10086000E095E92302C0EC91ED2BEC938FBFDF9173
:10087000CF911F910895CF93DF93EC018E8181304A
:1008800011F460E001C061E08A810E940B0461E024
:100890008B810E940B0460E08B81DF91CF910C94DF
:1008A0000B04CF93DF9390E0FC01E654FE4F2491BC
:1008B000FC01EA55FE4F8491882361F190E0880F96
:1008C000991FFC01EE5AFE4FC591D491FC01EE56E2
:1008D000FE4FA591B491611109C09FB7F89488812A
:1008E000209582238883EC912E230BC0623061F423
:1008F0009FB7F8943881822F809583238883EC9169
:100900002E2B2C939FBF06C08FB7F894E8812E2B17
:1009100028838FBFDF91CF9108951F93CF93DF93EB
:10092000182FEB0161E00E945104209711F460E060
:1009300004C0CF3FD10539F461E0812FDF91CF9121
:100940001F910C940B04E12FF0E0E45AFE4FE49168
:10095000E330F9F048F4E130B9F0E230A1F584B5C4
:10096000806284BDC8BD34C0E730E9F0E83019F1D9
:10097000E43049F580918000806280938000D093BC
:100980008B00C0938A0024C084B5806884BDC7BD35
:100990001FC080918000806880938000D093890080
:1009A000C093880015C08091B00080688093B0002B
:1009B000C093B3000DC08091B00080628093B000FE
:1009C000C093B40005C0C038D1050CF0B5CFAFCF8F
:1009D000DF91CF911F9108958E3008F08E5087706F
:1009E000806480937C0080917A00806480937A0098
:1009F00080917A0086FDFCCF80917800209179006B
:100A000090E0922B08958230910538F0880F991F5D
:100A1000880F991F05970197F1F70895CF92DF92FC
:100A2000EF92FF920F931F93CF93DF93FC01C6A029
:100A3000D7A0F3E0CF1AD1088C010A581F4FF80154
:100A400080810E94E203892B01F5E12CF12CC0E0AA
:100A5000D0E0C6010E940305F80180810E94E203F4
:100A60000E2C02C0880F991F0A94E2F7C82BD92BCD
:100A7000FFEFEF1AFF0A28E0E216F10451F7C60172
:100A80000E940305CE01992702C08FEF9FEFDF91EF
:100A9000CF911F910F91FF90EF90DF90CF9008952D
:100AA000CF93DF93FC0124A1222371F0EC010E947B
:100AB0000E0588A799A79095991F9927991F892FA7
:100AC00090E0DF91CF910895FC0123A1222331F022
:100AD0008DE693E0DF91CF910C946001DF91CF918F
:100AE0000C94AA02FC0124A1222351F020A531A5D7
:100AF0004FEF5FEF51A740A737FF0CC00C940E05D6
:100B0000FC0123A1222321F08DE693E00C943E0109
:100B10000C94C202C90108950E9472059927089594
:100B20003FB7F8948091650390916603A0916703A5
:100B3000B091680326B5A89B05C02F3F19F0019618
:100B4000A11DB11D3FBFBA2FA92F982F8827820F53
:100B5000911DA11DB11DBC01CD0142E0660F771FA3
:100B6000881F991F4A95D1F708958F929F92AF924F
:100B7000BF92CF92DF92EF92FF926B017C010E94B5
:100B800090054B015C01C114D104E104F104F1F0C2
:100B90000E949005DC01CB0188199909AA09BB09BB
:100BA000883E9340A105B10570F321E0C21AD10837
:100BB000E108F10888EE880E83E0981EA11CB11CA4
:100BC000C114D104E104F10419F7DDCFFF90EF90D7
:100BD000DF90CF90BF90AF909F908F9008952FB7E8
:100BE000F894609161037091620380916303909126
:100BF00064032FBF08951F920F920FB60F92112416
:100C00002F933F938F939F93AF93BF9380916103F3
:100C100090916203A0916303B091640330916003EB
:100C200023E0230F2D3720F40196A11DB11D05C02F
:100C300026E8230F0296A11DB11D20936003809327
:100C4000610390936203A0936303B0936403809164
:100C5000650390916603A0916703B09168030196C4
:100C6000A11DB11D8093650390936603A093670354
:100C7000B0936803BF91AF919F918F913F912F9156
:100C80000F900FBE0F901F901895CF92DF92EF92AA
:100C9000FF92CF93DF93EC01603282E078070CF093
:100CA0003DC077FD06C0653B71052CF064EB70E03C
:100CB00002C060E070E0898128E830E06901C81A6C
:100CC000D10887FDD394CC0CDD1CCC0CDD1C0D2C85
:100CD000000CEE08FF088A8128E532E0281B310964
:100CE00087FD3395220F331F220F331FC901330FA6
:100CF000AA0BBB0B9C01AD012C193D094E095F09E4
:100D0000DB010E946C2824EB30E040E050E00E94C0
:100D10004228C20ED31EE41EF51EB60188818C3017
:100D200080F5998148E850E0491B510997FD53959A
:100D3000440F551F440F551F6417750784F09A819F
:100D400028E532E0291B310997FD3395220F331F27
:100D5000220F331FAB01261737070CF4A9014250AD
:100D60005109440F551F2FB7F89490E0FC01EE0F86
:100D7000FF1F8E0F9F1FFC01E55FFB4F52834183D6
:100D80002FBFDF91CF91FF90EF90DF90CF9008952C
:100D90001F93CF93DF93EC01162F88818C3008F0DE
:100DA0004EC061E0812F0E9451048881E82FF0E05D
:100DB0009F01220F331FE20FF31FE55FFB4F1F77E9
:100DC00090819078192B108319821A826CE00E940E
:100DD0004F219CE0899FB001112440E050E09A012E
:100DE000260F371FF901EE0FFF1F2E0F3F1FF901CE
:100DF000E55FFB4F908197FD16C04F5F5F4F4C3012
:100E0000510569F781110FC01092800082E0809334
:100E100081001092850010928400B19A80916F0039
:100E2000826080936F00E881F0E0CF01880F991F06
:100E3000E80FF91FE55FFB4F808180688083888120
:100E4000DF91CF911F9108951F920F920FB60F92CD
:100E500011242F933F934F935F936F937F938F93BF
:100E60009F93AF93BF93EF93FF9380915F0387FFAF
:100E700005C010928500109284001BC020915F0372
:100E8000022E000C330B80912F0490E028173907B5
:100E900084F480915F03082E000C990BFC01EE0F87
:100EA000FF1F8E0F9F1FFC01E55FFB4F808187FDB9
:100EB00015C080915F038F5F80935F0320915F0374
:100EC000022E000C330B80912F0490E02817390775
:100ED000C4F480915F038C3064F113C080915F0390
:100EE000082E000C990BFC01EE0FFF1F8E0F9F1FA9
:100EF000FC01E55FFB4F808160E08F770E940B046F
:100F0000D8CF8091840090918500049680349C49CC
:100F100018F480E49CE905C08091840090918500DC
:100F2000049690938900809388008FEF80935F03ED
:100F30003BC0209184003091850080915F03082E92
:100F4000000C990BFC01EE0FFF1F8E0F9F1FFC0181
:100F5000E55FFB4F81819281820F931F90938900FF
:100F60008093880080915F03082E000C990BFC0190
:100F7000EE0FFF1F8E0F9F1FFC01E55FFB4F80816F
:100F800087FF12C080915F03082E000C990BFC01B3
:100F9000EE0FFF1F8E0F9F1FFC01E55FFB4F80814F
:100FA00061E08F770E940B04FF91EF91BF91AF91A9
:100FB0009F918F917F916F915F914F913F912F9171
:100FC0000F900FBE0F901F9018950F931F93CF9304
:100FD000DF93EC014B855C856D857E858F819885DF
:100FE000A985BA85481759076A077B0711F480E07D
:100FF00046C084179507A607B7071CF481E08E83C7
:1010000001C01E828B8D9C8DAD8DBE8D892B8A2B50
:101010008B2B69F30E9490050F8D18A129A13AA18D
:10102000DC01CB01801B910BA20BB30B0B8D1C8D34
:101030002D8D3E8D081719072A073B07C0F62E8114
:101040008F819885A985BA85213021F40196A11D4B
:10105000B11D03C00197A109B1098F839887A987A2
:10106000BA87E881F9810190F081E02DCE010995E0
:101070000E9490056F8F78A389A39AA381E0DF91E6
:10108000CF911F910F9108954F925F926F927F922F
:10109000AF92BF92CF92DF92EF92FF920F931F9386
:1010A000CF93DF93EC015A018B012F853889498951
:1010B0005A89B501C8010E941E27882309F44CC033
:1010C000CB88DC88ED88FE882601370177FA70949A
:1010D00077F87094A3019201B501C8010E941E2700
:1010E00087FD0BC0A7019601B501C8010E94FD2232
:1010F00018162CF06501780102C07301620120E02E
:1011000030E0A901C701B6010E941E27811105C068
:101110001B8E1C8E1D8E1E8E1BC0A701960160E0CB
:1011200074E284E799E40E94FD219F770E94762271
:101130006B8F7C8F8D8F9E8F11E020E030E0A901B6
:10114000C701B6010E94FD2218160CF010E01E83A4
:10115000CF86D88AE98AFA8ADF91CF911F910F91C1
:10116000FF90EF90DF90CF90BF90AF907F906F9007
:101170005F904F9008952F923F924F925F926F929F
:101180007F928F929F92AF92BF92CF92DF92EF9217
:10119000FF920F931F93CF93DF9300D000D0CDB772
:1011A000DEB71C01FC01C384D484E584F684878106
:1011B0009085A185B285C81AD90AEA0AFB0A678513
:1011C0007089818992899B01AC010E9484274B011F
:1011D0005C01F1016789708D818D928D9B01AC015D
:1011E0000E9491219B01AC01C501B4010E94FD2127
:1011F0000E946F22C114D104E104F104A1F4623011
:101200007105810591050CF07CC0F101138E148EDF
:10121000158E168E1786108A118A128A13A214A2AE
:1012200015A216A2FDC0F10103A114A125A136A1AA
:101230001C141D041E041F0404F5101611061206CA
:1012400013064CF46C157D058E059F055CF5268113
:10125000211157C027C0011511052105310509F4D9
:1012600050C06C157D058E059F050CF04AC0F1013C
:101270008681813009F045C039C01016110612066A
:101280001306FCF40027112798010C191D092E09DB
:101290003F09601771078207930724F4F101268143
:1012A000213079F59B01AC0188279927DC01821B4D
:1012B000930BA40BB50BF10183A394A3A5A3B6A331
:1012C00020C00115110521053105D9F08824992484
:1012D00054018C189D08AE08BF08681579058A0569
:1012E0009B057CF4F101868181110BC0309520951E
:1012F000109501951F4F2F4F3F4F03A314A325A314
:1013000036A3F10183A094A0A5A0B6A081149104F6
:10131000A104B10491F487A190A5A1A5B2A583A7CA
:1013200094A7A5A7B6A781E01C141D041E041F04E2
:101330000CF080E0F10186833FC0F101C3A4D4A486
:10134000E5A4F6A4A7019601C701B6010E94912168
:101350002B013C01C501B4010E94252720E030E0AB
:1013600040E850E40E94842720E030E040E85FE35A
:101370000E9491219B01AC01C301B2010E94FD2199
:101380009B01AC01C701B6010E9490217B018C0139
:10139000F10167A470A8C1A8D2A89301A6010E9478
:1013A000FD22181614F073018601A701B801F1019E
:1013B00043A754A765A776A7FFEF8F1A9F0AAF0A26
:1013C000BF0AF10183A294A2A5A2B6A223A534A5C7
:1013D00045A556A5CA01B90129833A834B835C838D
:1013E0000E947622F101638F748F858F968F2981F9
:1013F0003A814B815C8160E074E284E799E40E9469
:10140000FD21F1016787708B818B928B26812111E1
:1014100007C0DC01CB01B0588787908BA18BB28BC2
:101420000F900F900F900F90DF91CF911F910F9120
:10143000FF90EF90DF90CF90BF90AF909F908F90F4
:101440007F906F905F904F903F902F900895CF9234
:10145000DF92EF92FF92CF93DF93EC016A017B0161
:101460009A01AB016B897C898D899E890E941E2718
:10147000882309F440C0CB8ADC8AED8AFE8AA70162
:10148000960160E074E284E799E40E94FD216FA771
:1014900078AB89AB9AAB8BA19CA1ADA1BEA118166C
:1014A00019061A061B063CF56F85788989899A8981
:1014B0009B01AC010E9484276B017C016F89788DB0
:1014C000898D9A8D9B01AC010E9491219B01AC01F9
:1014D000C701B6010E94FD210E946F226BA37CA36D
:1014E0008DA39EA3CE01DF91CF91FF90EF90DF906F
:1014F000CF900C94BB08DF91CF91FF90EF90DF90DD
:10150000CF900895DC01E62FF0E0EE0FFF1FE55BC2
:10151000FE4F80818C93818111968C931197129646
:101520006C930895CF93DF93EC0160E089810E9472
:1015300051048981DF91CF910C94EC04CF93DF9318
:10154000EC0160E088810E9451048881DF91CF9195
:101550000C94EC041F93CF93DF93EC01162F61E002
:1015600089810E945104612F8981DF91CF911F9160
:101570000C940B04DC01E62FF0E0EE0FFF1FE55B9F
:10158000FE4F80818C93818111968C9311971296D6
:101590006C930895CF93DF93EC0102960E94BA0AF0
:1015A00089E491E0998388831F82188619861A86B8
:1015B0001B861C861D861E861F8A188E198E1A8E03
:1015C0000E9490056F8F78A389A39AA31F86188A1B
:1015D000198A1A8A81E08E831F82188619861A86D4
:1015E0001B861C861D861E861BA21CA21DA21EA277
:1015F0001B8E1C8E1D8E1E8E61E08A810E945104FE
:1016000061E08B81DF91CF910C945104FC01108239
:101610001182128208951F920F920FB60F92112419
:101620000F931F932F933F934F935F936F937F93EA
:101630008F939F93AF93BF93CF93EF93FF9382E0EA
:101640000E94E203C82F8091F8029091F90201965E
:101650009093F9028093F80280915E03843618F02B
:1016600085E08093F3029091F302933079F018F4BF
:10167000923039F072C0943011F1953009F44AC0BB
:101680006CC0C1116AC010925E0329C0C13009F05C
:1016900064C0E0915E0381E08E0F80935E03F0E012
:1016A0008091F8029091F902EE50FD4F80871092E0
:1016B000F9021092F80284E08093F3024EC0C11147
:1016C00014C0E0915E0381E08E0F80935E03F0E032
:1016D0008091F8029091F902EE50FD4F80871092B0
:1016E000F9021092F80283E0E7CF8091F80290911E
:1016F000F9028536910588F185E08093F3020E9416
:10170000EF056093F4027093F5028093F6029093D4
:10171000F70223C00E94EF050091F4021091F50238
:101720002091F6023091F702DC01CB01801B910B76
:10173000A20BB30B893C9105A105B10540F01092B5
:101740005E031092F9021092F80282E0B5CFC11147
:1017500004C01092F9021092F802FF91EF91CF911C
:10176000BF91AF919F918F917F916F915F914F91B9
:101770003F912F911F910F910F900FBE0F901F90CF
:1017800018951F920F920FB60F9211242F933F932B
:101790004F935F936F937F938F939F93AF93BF9379
:1017A000EF93FF93E0916B03F0916C03309709F492
:1017B00051C0968DA685B785858591FF04C09C9103
:1017C000892329F447C09C91892309F043C0A38948
:1017D000B4899C918589809589238C938689978982
:1017E0000197F1F7608D718DA685B785558538E035
:1017F00020E0CB010197F1F7822F90E09595879536
:10180000282F4C91452309F02068315091F7868D9F
:1018100081FD209580916A0390E001968F7399274E
:1018200030916903381749F0A0916A03B0E0AE54D3
:10183000BD4F2C9380936A0303C0868D8160868F91
:10184000828D938D0197F1F7A389B4899C91858945
:10185000892B8C93FF91EF91BF91AF919F918F91C5
:101860007F916F915F914F913F912F910F900FBE9C
:101870000F901F901895E0916B03F0916C03E8179F
:10188000F90769F4A389B4899C9185898095892396
:101890008C9310926C0310926B0381E0089580E0AA
:1018A00008951F920F920FB60F9211242F933F931A
:1018B0004F935F936F937F938F939F93AF93BF9358
:1018C000EF93FF938091B900887F803609F49CC024
:1018D00068F5883209F45BC090F4803109F454C093
:1018E00038F4882309F4F6C0883009F44DC0F6C0F6
:1018F000883109F44CC0803209F45DC0EFC08034F7
:1019000009F468C048F4803309F455C0883309F0FD
:10191000E5C080938B02D8C0803509F44FC088356C
:1019200009F45DC0883409F0D9C0D6C0883909F4FB
:10193000C7C0A8F4883709F467C038F4883609F4BA
:1019400063C0803709F460C0C9C0883809F4B8C0E2
:10195000803909F45FC0803809F0C0C05BC0803BAB
:1019600009F486C038F4803A09F466C0883A09F46C
:101970007FC0B4C0803C09F4A7C0883C09F4A4C06F
:10198000883B09F48AC0AAC08091B10210C090912E
:10199000B0028091AF02981770F5E091B00281E03B
:1019A0008E0F8093B002F0E0E157FD4F808180936D
:1019B000BB0085EC86C080938B028EC0E091B002A4
:1019C00081E08E0F8093B0028091BB00F0E0E15780
:1019D000FD4F80839091B0028091AF026EC0E09184
:1019E000B00281E08E0F8093B0028091BB00F0E0E6
:1019F000E157FD4F808380918E0281116DC081E09F
:101A000080938D0284EA61C083E080938C021092FF
:101A10008A02CFCF80918A02803208F051C0E091D3
:101A20008A0281E08E0F80938A028091BB00F0E0F1
:101A3000E659FD4F8083BDCF85EC8093BC001092AA
:101A40008C0280918A02803230F4E0918A02F0E0C8
:101A5000E659FD4F108260918A0270E0E0916802C1
:101A6000F09169028AE692E0099510928A0236C0E6
:101A700084E080938C021092670210926602E091DB
:101A80006402F0916502099580916602811105C09A
:101A900081E08093660210924402E091670281E047
:101AA0008E0F80936702F0E0EC5BFD4F80818093A6
:101AB000BB009091670280916602981708F479CF75
:101AC00085E88093BC000AC085EC8093BC0010922E
:101AD0008C0204C010928B020E94E302FF91EF91EE
:101AE000BF91AF919F918F917F916F915F914F9136
:101AF0003F912F910F900FBE0F901F901895E1E42A
:101B0000F2E0DC01AC52BE4F8C91808311968C9137
:101B1000818380914102909142020895682F8DE661
:101B200093E00C949701CF92DF92EF92FF926B01BA
:101B30007C0183E00E948E0DC701B6010E946F22D6
:101B4000862F262F372F30934202209341020E9486
:101B50008E0D80914202FF90EF90DF90CF900C9419
:101B60008E0DCF92DF92FF920F931F93CF93DF934F
:101B70001F92CDB7DEB7162FF72E082F82E099837C
:101B80000E948E0D80EDC82E81E0D82E412F5F2D52
:101B9000602F9981792FF60140835183628373838B
:101BA000812F0E948E0DF60181810E948E0DF6011B
:101BB00082810E948E0DF60183810F90DF91CF917B
:101BC0001F910F91FF90DF90CF900C948E0D8FEFAF
:101BD0000E948E0D85E50E948E0D87EA91E00C949F
:101BE000630F89E00E94671280E090E00E942A1251
:101BF0008AE00E94671280E090E00C942A1289E04B
:101C00000E94671280910101909102019195819546
:101C100091090E942A128AE00E94671280910101B4
:101C2000909102019195819591090C942A1289E075
:101C30000E94671280910101909102010E942A1274
:101C40008AE00E94671280910101909102010C9438
:101C50002A1289E00E94671280910101909102018D
:101C60009195819591090E942A128AE00E9467123B
:101C700080910101909102010C942A12CF93DF937D
:101C8000CCEDD4E060E088850E940B0460E089859B
:101C90000E940B0461E088850E940B0461E0898545
:101CA000DF91CF910C940B04CF93DF93CCEDD4E074
:101CB00061E088850E940B0461E089850E940B0425
:101CC00060E089850E940B0460E08885DF91CF91F8
:101CD0000C940B04CF93DF93D82FC8E060E0809181
:101CE000E4040E940B04D0FF02C061E001C060E088
:101CF0008091E5040E940B04D69561E08091E40494
:101D00000E940B04C15051F760E08091E4040E94EE
:101D10000B0461E08091E5040E940B0461E0809176
:101D2000E4040E940B0460E08091E5040E945104E9
:101D3000C8EC8091E5040E94E203892B69F0C15050
:101D4000C1F761E08091E5040E94510460E0809158
:101D5000E5040E940B04ECCF61E08091E504DF9183
:101D6000CF910C9451040F931F9390E0FC01E65423
:101D7000FE4FA491FC01EA55FE4FE491F0E0EE0F16
:101D8000FF1FE456FE4F859194918A019B013F709D
:101D90004A2F6A2F0E947312611571058105910502
:101DA00049F0DC01CB010196A11DB11DBC01CD01A3
:101DB0009F7003C060E070E0CB011F910F91089508
:101DC000CF92DF92EF92FF920E94EF05C090EC0459
:101DD000D090ED04E090EE04F090EF04DC01CB0134
:101DE0008C199D09AE09BF094897A105B10518F0E6
:101DF00081E08093EB048091EB04882309F43DC0DB
:101E00000E94EF056093EC047093ED048093EE0460
:101E10009093EF041092EB0460E086EE94E00E9451
:101E2000AA0A83E090E00197F1F761E086EE94E082
:101E30000E94AA0A83E290E00197F1F760E086EE43
:101E400094E00E94AA0A60E08091E7040E94510495
:101E500048EB56E560E070E08091E7040E94B30E25
:101E60006B017C010E9425276093F0047093F104BC
:101E70008093F2049093F3040CC06091F00470918D
:101E8000F1048091F2049091F3040E946F226B019F
:101E90007C01C114D104E104F10431F480EAC82EBC
:101EA0008AE5D82EE12CF12CC701B6010E94252726
:101EB00020E030E048E652E40E94FD21FF90EF90E0
:101EC000DF90CF900895009769F0FC010190002009
:101ED000E9F73197AF01481B590BBC018DE693E040
:101EE0000C94130180E090E00895CF93DF9300D02D
:101EF00000D0CDB7DEB79C01DE011196AD0194E0B4
:101F00009A0FF90181919F01FA018193AF019E130C
:101F1000F8CF80E22C91223208F08C93EC91F0E023
:101F2000E059FE4FE491ED939A13F4CF0E94540EC2
:101F300080E40E946A0E0E943E0E0E94540E809120
:101F4000E1040E946A0E89810E946A0E8A810E94C1
:101F50006A0E8B810E946A0E8C810E946A0E0E941A
:101F60003E0E0E94540E8091E2040E946A0E0F9071
:101F70000F900F900F90DF91CF910C943E0EE0E008
:101F8000F0E02091F8043091F904E217F30710F51E
:101F9000DF01BB27A217B307D8F42E2F220F2E0F75
:101FA00030E0A091FA04B091FB04A20FB31F6C9330
:101FB000A091FA04B091FB04A20FB31F11968C9369
:101FC000A091FA04B091FB04A20FB31F12964C9398
:101FD0003196D7CF81E0089588E690E0909345054B
:101FE0008093440580914105882339F060E875E2CB
:101FF00080E090E00E94B81198C0109239051092CC
:10200000380510923705109236051092350510925A
:1020100034058DE991E090933B0580933A059091CA
:102020002A05963108F057C02DEB30E03093350586
:10203000209334052BE931E03093370520933605A2
:102040002CE231E030933905209338052091680067
:10205000983050F031E09E3008F430E081E001C06B
:10206000880F3A95EAF701C084E0822B80936800DC
:10207000983038F09E3040F0963148F020E030E063
:1020800008C02DE630E005C02BE630E002C02CE6AB
:1020900030E03093320520933105983030F481E000
:1020A00001C0880F9A95EAF70EC0292F30E09E30C4
:1020B00018F42850310902C02E50310981E001C0C6
:1020C000880F2A95EAF78093330580913A0590911D
:1020D0003B050197F1F78091380590913905892BDF
:1020E00021F180916B0390916C0325E08E31920772
:1020F000E1F0009711F00E943B0C80913C058E7F2F
:1021000080933C0510926A03109269038EE195E07A
:1021100090936C0380936B03E0913105F09132054D
:10212000908180913305892B808360E080913D050B
:102130000C945104CF93DF9380914105882321F1C2
:102140008DE693E00E94DE01E0917F03F091800331
:1021500080818F7E8083E0917F03F0918003808176
:10216000877F8083E0917F03F091800380818F7768
:102170008083E0917F03F091800380818F7D808355
:10218000809187038093860360E080913D050E94E3
:10219000510480913D050E94E203EC0180914105CC
:1021A00081110E94EC0F81E0CD2B09F080E0DF91DE
:1021B000CF9108950E949A108823D1F08EE195E086
:1021C0000E94500518161906BCF48EE195E00E9495
:1021D0008C058F3F910584F4009729F4809199052F
:1021E00080939805089580939805809399050895A4
:1021F00010929805109299050895CF93DF93EC0102
:1022000060E089810E94510489810E94E20321E0FB
:10221000892B09F420E0822FDF91CF910895CF928E
:10222000DF92EF92FF920F931F93CF93DF9328E0FB
:1022300030E041E06FEF70E09FE0C92ED12CC3E2A7
:10224000D0E007ED10E090910705E0910805F091CE
:102250000905592F5095F42EF82281F0F894F28058
:102260005F2152835181592B5183DE011197F1F780
:102270005281952B92837894F8010FC0F894F280E4
:102280005F2152835181592B5183DB011197F1F763
:102290005281952B92837894F6013197F1F7440F90
:1022A0002150310981F6F894E0910805F091090573
:1022B000918180910705809589238183E0910805AC
:1022C000F0910905928180910705892B8283E09125
:1022D0000805F09109059281809107058095892371
:1022E00082837894DF91CF911F910F91FF90EF90AF
:1022F000DF90CF90089590910705E0910805F09147
:102300000905F8948181292F209582238183828178
:10231000892B828378948DE743E050E0815039F136
:10232000DA011197F1F730813923C1F3F8948281F2
:10233000822382838181892B81837894ABE7B7E004
:102340001197F1F7F8948181282321838281892BC9
:102350008283A3E1B1E01197F1F78081982381E0B6
:1023600009F080E07894E3E6F6E03197F1F708951C
:10237000CF92DF92EF92FF926B017C01E0917D039F
:10238000F0917E0382E08083C11481EED806E104DF
:10239000F104B1F060E079E08DE390E0A7019601EF
:1023A0000E94AB28DA01C9010197A109B109B695CC
:1023B000A795979587959C01211580E13807B8F07E
:1023C000E0917D03F0917E03108260E874E88EE175
:1023D00090E0A70196010E94AB28DA01C90101979C
:1023E000A109B109B695A795979587959C01E091AC
:1023F0007903F0917A033083E0917B03F0917C03C1
:10240000208310928503E0918103F091820386E09E
:102410008083E0917F03F0918003808180618083DD
:10242000E0917F03F0918003808188608083E09158
:102430007F03F0918003808180688083E0917F0337
:10244000F091800380818F7D8083FF90EF90DF90FB
:10245000CF900895CF93DF938F3F910519F014F03B
:102460008FEF90E0EC01C1308FEFD80714F4C1E09A
:10247000DFEF80911C0590911D058C179D0721F1C0
:10248000D0931D05C0931C05D7FD0BC061E086E10C
:1024900095E00E94AA0A8FE090E00197F1F7BE0153
:1024A0000DC060E086E195E00E94AA0A8FE090E00E
:1024B0000197F1F7662777276C1B7D0B8091160536
:1024C000DF91CF910C948D04DF91CF910895682F07
:1024D00086E195E00E94820A84EF91E090931D05C9
:1024E00080931C050895CF92DF92EF92FF920F9395
:1024F0001F93E82FF92F05C0015011092109310957
:1025000061F1908196239417B9F305C00150110928
:102510002109310911F1908196239413F7CFC12C31
:10252000D12CE12CF12C0AC08FEFC81AD80AE80A86
:10253000F80A0C151D052E053F0579F080818623CC
:10254000841791F36C2D7D2D8E2D9F2D1F910F9152
:10255000FF90EF90DF90CF90089560E070E080E012
:1025600090E01F910F91FF90EF90DF90CF90089532
:10257000CF93DF93CDB7DEB7EF970FB6F894DEBFFA
:102580000FBECDBF789484B5826084BD84B5816070
:1025900084BD85B5826085BD85B5816085BD80912E
:1025A0006E00816080936E001092810080918100A6
:1025B000826080938100809181008160809381009E
:1025C000809180008160809380008091B100846060
:1025D0008093B1008091B00081608093B0008091C1
:1025E0007A00846080937A0080917A008260809380
:1025F0007A0080917A00816080937A0080917A00DD
:10260000806880937A001092C10061E08DE00E94A2
:10261000510461E08DE00E940B046CE271E080E007
:1026200090E00E94B50560E08DE00E940B0460E040
:1026300072EC81E090E00E94B81164EF71E080E0FC
:1026400090E00E94B50561E083E10E94510461E0E1
:1026500083E10E940B0464E670E080E090E00E9459
:10266000B50561E083E10E94510460E083E10E94CE
:102670000B0464EF71E080E090E00E94B50580E01B
:102680000E94EC04BC01990F880B990B6115710530
:102690008105910511F00E9415270E94F10D0E94FD
:1026A000EC0F8DE991E00E94630F4091340450914A
:1026B000350460913004709131048DE693E00E94FE
:1026C000130187EA91E00E94630F9E012F5F3F4F45
:1026D000190135E0320D3EAF00914A0410914B04D0
:1026E0000E94EF05C0903A04D0903B04E0903C0477
:1026F000F0903D049B01AC012C193D094E095F0986
:1027000069017A0139E0C316D104E104F10408F447
:102710005CC060933A0470933B0480933C049093B4
:102720003D0486E394E00E94920A40913E04509159
:102730003F046091400470914104452B462B472B88
:1027400069F4AC01092E000C660B770B409346042C
:1027500050934704609348047093490440914604A1
:10276000509147046091480470914904841B950B73
:1027700097FF03C091958195910944979CF48091AE
:10278000420490914304A0914404B0914504019601
:10279000A11DB11D8093420490934304A09344046F
:1027A000B093450480913E0490913F04A091400471
:1027B000B09141040196A11DB11D80933E049093F8
:1027C0003F04A0934004B093410480913E04909153
:1027D0003F04A0914004B09141040597A105B105C3
:1027E00071F510923E0410923F0410924004109232
:1027F00041048091420490914304A0914404B0911B
:1028000045040397A105B10570F0809146049091AD
:102810004704A0914804B09149048C0190934B0463
:1028200080934A0404C000914A0410914B04109212
:102830004204109243041092440410924504C801CB
:1028400064E670E00E945B216830710528F4FB01AA
:10285000E35FFE4F808101C080E0809334020E94DC
:10286000EF050E94232720E030E04AE754E40E946D
:10287000FD2120913002309131024091320250917D
:1028800033020E94902160932C0270932D0280935A
:102890002E0290932F0210922B028DE693E00E945D
:1028A0006001181619064CF481E080932B028DE626
:1028B00093E00E943E0180932A028AE694E00E94FF
:1028C000E5078FE994E00E94E50780912B028823B9
:1028D00011F40C94621D80912A0290912902853591
:1028E00061F491110AC0809128028F3FE1F481E0E8
:1028F000809327028093290216C08093280299238F
:1029000091F0E0912702E23019F48093260207C08B
:10291000E33028F090912602915090932602F0E047
:10292000EC52FE4F8083809127028F5F843318F42E
:102930008093270204C010922702109229028091EE
:102940002902882311F40C94621D809126028111C2
:102950000C94621D80912702843010F40C94621D47
:10296000109229021091D70110931C024091D901B5
:102970009091D801923009F49EC320F4913061F017
:102980000C94601D943011F40C94421D953011F498
:102990000C945E1D0C94601D413059F08FEF4FAFC9
:1029A0000E948E0D85E50E948E0D812F0E948E0D56
:1029B0004FAD0091DA01802F90E050E04433510593
:1029C00008F074C3FA01EC5CFF4F0C946F21209166
:1029D000E80430E02817390729F0602F86EE94E0EC
:1029E0000E94820A0E94E00E6B017C018FEF0E9420
:1029F0008E0D85E50E948E0D80911C020E948E0D29
:102A0000C701B60127C32091DB014091050550E0C5
:102A10004817590741F44091060550E0622F70E0D5
:102A20004617570741F1880F991FFC01E55BFE4FE0
:102A3000908190930305818180930405009305059F
:102A400020930605223009F0892F90E0FC01E6541E
:102A5000FE4FE491E0930705FC01EA55FE4FE49137
:102A6000F0E0EE0FFF1FE456FE4F85919491909396
:102A70000905809308050E947B118CEC0E940F11C0
:102A800084E40E940F110E94EF056B017C012091EC
:102A90000705E0910805F09109058181922F909535
:102AA000892381838281822B828383E290E0019754
:102AB000F1F78081822311F40C94B41E0E947B11E3
:102AC0008CEC0E940F118EEB0E940F11710147E0F8
:102AD00050E088E090E011E070E060910705E0913F
:102AE0000805F0910905F8942181262B2183228184
:102AF000062F009520232283DA011197F1F7218117
:102B0000022301832281262B228323E230E0D90194
:102B10001197F1F720817894EFECF0E03197F1F71D
:102B2000622309F0712B110F0197B9F6F701719328
:102B30007F01FEADFE11CDCF6A8170E0762F662752
:102B40008981682B072E000C880B990B0E94252782
:102B500020E030E040E85DE30E9484277BC22091C2
:102B6000DA0430E02817390751F0602F88ED94E03F
:102B70000E94820A60E08091D9040E94510488ED8D
:102B800094E00E94920A08C21091DB012091D604C1
:102B900030E02817390729F0602F84ED94E00E9477
:102BA000820A113059F484ED94E00E949E0A20912B
:102BB0000802309109028A5E91400CC0123071F413
:102BC00084ED94E00E94920A8A5E914020910A026C
:102BD00030910B02BC01620F731F02C060E070E015
:102BE000072E000C880B990B0E94252733C22091D9
:102BF000DA0430E02817390751F0602F88ED94E0AF
:102C00000E94820A60E08091D9040E94510488EDFC
:102C100094E00E94FD1061C02091DA0430E0281792
:102C2000390779F0602F88ED94E00E94820A60E015
:102C30008091D8040E94510460E08091D9040E94E0
:102C4000510460E08091D8040E9451048091D8041E
:102C50000E94E2038C0188ED94E00E94FD1061E087
:102C600070E0012B11F460E070E0660F771F680FD1
:102C7000711DB6CF2091DB014091DA0450E0481776
:102C8000590711F00C94C51E4091DB0450E0622FEF
:102C900070E04617570711F00C94C51E62E0213012
:102CA00091F48091D8040E94510460E08091D8048E
:102CB0000E9451048091D8040E94E20361E0892BB4
:102CC00069F060E00BC08091D9040E94510488ED46
:102CD00094E00E94FD1061E08627682F70E080E09C
:102CE00090E00E942327B6C1F090DB01209161049F
:102CF00030E02817390729F0602F8FE594E00E9413
:102D0000820A85E0D1011D928A95E9F760E08FE59E
:102D100094E00E94AA0A64E170E080E090E00E94E2
:102D2000B50561E08FE594E00E94AA0A8BE990E086
:102D30000197F1F760E08FE594E00E94AA0A0E94F3
:102D4000EF054B015C018FE594E00E94FD108111BD
:102D500010C00E94EF05DC01CB0188199909AA096E
:102D6000BB090397A105B10570F31092630410929B
:102D700064040E94EF054B015C018FE594E00E9422
:102D8000FD10882361F00E94EF05DC01CB0188195A
:102D90009909AA09BB090397A105B10570F300E0E1
:102DA00010E00E94EF054B015C018FE594E00E946A
:102DB000FD1081110CC00E94EF05DC01CB018819C8
:102DC0009909AA09BB090397A105B10570F30E94EF
:102DD00090054B015C010E94EF052B013C018FE542
:102DE00094E00E94FD10882361F00E94EF05DC0151
:102DF000CB0184199509A609B7090397A105B10567
:102E000070F30E949005DC01CB0188199909AA0989
:102E1000BB09F80123E0F595E7952A95E1F7899735
:102E2000A105B10530F0E20DF31D8081880F8160AE
:102E300004C0E20DF31D8081880F80830F5F1F4F58
:102E40000832110509F0ADCF59814B81242F30E0B4
:102E5000250F311D8D8190E02817390721F45093FB
:102E6000630440936404F11003C01091630418C11B
:102E70001091640415C120915B0430E028173907D4
:102E8000D1F0602F89E594E00E94820A8091590474
:102E900090915A0490935D0480935E0480915D0448
:102EA00060E00E94510480915E04809359048091F7
:102EB0005D0480935A0489E594E022C02091550472
:102EC00030E028173907D1F0602F83E594E00E94A5
:102ED000820A8091530490915404909357048093F4
:102EE00058048091570460E00E9451048091580476
:102EF00080935304809157048093540483E594E0B5
:102F00000E949E0ABC01990F880B990B0E942527ED
:102F100068C01A8219821C821B821E821D826091E7
:102F20003004709131046115710539F04091340419
:102F300050913504C1010E944A03FD800F2D1E816E
:102F400084E00E948E0D8F2D0E948E0DE12CF12CBD
:102F5000E016F106ACF48D819E81E816F90648F47E
:102F600089819A81009729F0FC01EE0DFF1D808177
:102F700001C080E00E948E0DBFEFEB1AFB0AE8CF84
:102F800089819A810E940E2591C060E0802F0E9465
:102F90005104802F0E94E203BC01990F880B990B0A
:102FA00023CE880F991FFC01EB5EFE4F108160E07D
:102FB000812F0E945104812F0E94EC04EDCF87E005
:102FC00090E00E947F0D7C0160E0802F0E94510400
:102FD000A701FF0C660B770B802F0E94B30E0E9497
:102FE00023270E94930D62C01091DB0161E0802FC6
:102FF0000E94510460E0802F0E940B0483E090E067
:103000000197F1F761E0802F0E940B0483E290E0CA
:103010000197F1F760E0802F0E940B0460E0812FA0
:103020000E94510440E355E760E070E0812F0E9468
:10303000B30E0E94232720E030E048E652E40E94CD
:10304000FD2108C060912C0270912D0280912E020A
:1030500090912F020E94B10D29C020914F0430E0C1
:103060002817390729F0602F8DE494E00E94820A26
:103070008DE494E00E94FD10182F12C020913804B6
:1030800030E02817390729F0602F86E394E00E948A
:10309000820A11E0909134028091DB01981310E0D4
:1030A00081E00E948E0D812F0E948E0D87EA91E0B3
:1030B0000E94630F05C59090DA01692D70E04431DC
:1030C00009F4FEC330F5483009F4F4C1D0F44330BC
:1030D00009F4E3C3453009F0F1C41092000186E021
:1030E00090E00E947F0D8C0189E00E946712C80168
:1030F0000E942A1288E090E00E947F0D8C018AE0F5
:103100002EC04A3021F108F4C8C24B3009F4A4C2E1
:10311000D5C4423209F4FFC380F4403209F4F0C34D
:1031200008F05BC44E3109F0C9C461E0892D0E94EA
:1031300051046091DB01892D4DC4423309F48FC4E1
:103140004C3309F472C2483209F0B8C40CC0109272
:10315000000187E090E00E947F0D8C01892D0E9484
:103160006712C801A9C487E090E00E947F0D8C011E
:103170008091DD018093D0018091DE018093D101A7
:103180008091DF018093D2018091E0018093D3018F
:10319000C090D001D090D101E090D201F090D30145
:1031A000E1E09E12C1C061E0C1010E94CA0A8B81A8
:1031B0009C81AD81BE8180936C0490936D04A0933B
:1031C0006E04B0936F048F81809370048885998515
:1031D000AA85BB858093710490937204A0937304B5
:1031E000B09374048C859D85AE85BF8580937504EE
:1031F00090937604A0937704B09378044889598912
:103200006A897B894093790450937A0460937B04A4
:1032100070937C044C895D896E897F8940937D041D
:1032200050937E0460937F0470938004488D598D81
:103230006A8D7B8D40938104509382046093830454
:10324000709384044C8D5D8D6E8D7F8D40938504CD
:1032500050938604609387047093880448A159A111
:103260006AA17BA14093890450938A0460938B04E4
:1032700070938C044CA15DA16EA17FA140938D043D
:1032800050938E0460938F047093900448A559A5C1
:103290006AA57BA540939104509392046093930494
:1032A000709394044CA55DA56EA57FA540939504ED
:1032B00050939604609397047093980448A959A971
:1032C0006AA97BA94093990450939A0460939B0444
:1032D00070939C042CA920939D042DA920939E04F7
:1032E0008C159D05AE05BF0561F0C0927504D092A6
:1032F0007604E0927704F09278048AE694E00E94E3
:10330000BB08B801110F880B990B0E9425276B0190
:103310007C01AB01BC018AE694E00E94270AB70158
:10332000A6018AE694E0C3C0F2E09F12C7C362E040
:10333000C1010E94CA0A8B819C81AD81BE818093AC
:10334000A1049093A204A093A304B093A4048F813A
:103350008093A50488859985AA85BB858093A6045A
:103360009093A704A093A804B093A9048C859D858D
:10337000AE85BF858093AA049093AB04A093AC0460
:10338000B093AD04488959896A897B894093AE041A
:103390005093AF046093B0047093B1044C895D897D
:1033A0006E897F894093B2045093B3046093B40450
:1033B0007093B504488D598D6A8D7B8D4093B6040A
:1033C0005093B7046093B8047093B9044C8D5D8D2D
:1033D0006E8D7F8D4093BA045093BB046093BC0400
:1033E0007093BD0448A159A16AA17BA14093BE047A
:1033F0005093BF046093C0047093C1044CA15DA1BD
:103400006EA17FA14093C2045093C3046093C4048F
:103410007093C50448A559A56AA57BA54093C60429
:103420005093C7046093C8047093C9044CA55DA56C
:103430006EA57FA54093CA045093CB046093CC043F
:103440007093CD0448A959A96AA97BA94093CE04D9
:103450005093CF046093D0047093D1042CA920938F
:10346000D2042DA92093D3048C159D05AE05BF056C
:1034700061F0C092AA04D092AB04E092AC04F09246
:10348000AD048FE994E00E94BB08B801110F880BCE
:10349000990B0E9425276B017C01AB01BC018FE9D0
:1034A00094E00E94270AB701A6018FE994E00E94E8
:1034B000440804C30091DB011091DC01F090DD01B0
:1034C000E090DE01D090DF018091F60490E0861755
:1034D000970709F06BC48091F70490E0202F30E04B
:1034E0008217930709F062C41FC0023009F09CC420
:1034F0008091F504282F30E0F901E654FE4FE49165
:10350000E0930205F901EA55FE4FE491F0E0EE0F79
:10351000FF1FEE56FE4F259134913093FF04209308
:10352000FE0461E00E945104112331F11150212F5A
:1035300030E08091F8049091F9042817390708F5D4
:10354000E12FEE0F1E0FE12FF0E0A091FA04B091F1
:10355000FB04AE0FBF1FEC92A091FA04B091FB04E4
:10356000AE0FBF1F1196FC928091FA049091FB045C
:10357000E80FF91FD28205C04D2D6E2D8F2D0E94B0
:10358000BF0F8091F8049091F9048C01000F111F76
:10359000080F191FE090FA04F090FB04A801B7018E
:1035A0008091FC049091FD040E947526892B09F4FA
:1035B00085C2A091FE04B091FF04809102052FB74F
:1035C000F8943C91982F90959323832BF7010E0F3D
:1035D0001F1FE017F10781F0319148E08C9300C084
:1035E00037FF9C93330F00C000C000C008F49C93C9
:1035F00000C04A9599F7EDCF2FBF4091F804509144
:10360000F904CA01880F991F480F591F6091FA04E5
:103610007091FB048091FC049091FD040E9482262D
:103620008BEC97E00197F1F749C21091DD01809191
:10363000DC01803109F042C20E94F10D123038F4F1
:10364000812F90E0909325028093240237C210923C
:1036500025021092240232C28091DB01660F771F8F
:10366000FB01E55BFE4F813011F4608101C0618197
:1036700070E01091DC01ECE0F2E080E090E021915C
:1036800031912617370709F4C3C1232B09F4B2C1BE
:1036900001968830910599F7B9C18091DE0490E0D8
:1036A0008617970751F19092DE04660F771FFB0192
:1036B000E55BFE4F81818093DD0490819093DC0473
:1036C0008093E4049093E50461E00E94510461E07A
:1036D0008091E5040E94510480E48093E00480EC32
:1036E0008093E1048AE88093E20480E289838A83FC
:1036F0008B838C83C1010E94750F8091DB018093C5
:10370000D0018091DC018093D1018091DD01809313
:10371000D2018091DE018093D3014090D00150907E
:10372000D1016090D2017090D30119821A821B825C
:103730001C8220E030E0A901C301B2010E941E27D3
:1037400087FF08C077FA709477F8709481E28983D4
:1037500011E001C010E09DEF892E99249A9423E096
:10376000A22EB12C00E0B7FC4CC0B5016F5F7F4FBB
:10377000072E000C880B990B0E9425279B01AC019A
:1037800060E070E080E291E40E9402236B017C0122
:103790009B01AC01C301B2010E94FD210E94A52240
:1037A0006EAB7FAB88AF99AFB5010B2C000C880BCB
:1037B000990B0E9425279B01AC0160E070E080E23C
:1037C00091E40E9402236AAF7BAF8CAF9DAFA7014B
:1037D00096016EA97FA988AD99AD0E9484279B01AF
:1037E000AC01C301B2010E9490212AAD3BAD4CADAA
:1037F0005DAD0E94FD210E94A5220E946F22CB0197
:1038000023C020E030E040E251E4C301B2010E9455
:10381000842722E08216910484F020E030E040E228
:1038200051E40E94842732E08316910431F020E0B5
:1038300030E040E251E40E9484270E946F22CB01D5
:103840006AE070E00E945B21181619062CF0AA208D
:1038500019F0002381F009C0A11007C0F101E10FA8
:10386000F11D60E1680F608304C0F101E10FF11DFB
:1038700080831F5F01E0143060F441E0A41AB108B6
:103880005FEF851A950A8CEFA8168FEFB80609F03E
:103890006ACFC1010E94750F11C18091DA0490E0D6
:1038A0008617970729F0692D88ED94E00E94820A17
:1038B00011E08091DB01811101C010E061E010C0D6
:1038C0008091DA0490E08617970729F0692D88ED3A
:1038D00094E00E94820A1091DB0161E0123040F412
:1038E0008091D8040E945104612F8091D80472C045
:1038F000123009F460E088ED94E00E94AA0ADEC06C
:1039000061E0892D0E9451046091DB0170E0892DF6
:103910000E948D04D3C061E0892D0E94510487E08C
:1039200090E00E947F0D8C0189E090E00E947F0D65
:103930005C0190920A04181619060CF044C0980114
:1039400040E050E060E472E48FE090E00E944228A2
:1039500069017A01890137FF02C00F5F1F4F15957A
:10396000079561E0892D0E94510428EE33E0D501CE
:103970000E9475214B015C010D2C000CEE08FF0824
:1039800080E090E0DC012C013D014C0C5D1C6E1CC4
:103990007F1C88159905AA05BB0508F08FC061E05A
:1039A00080910A040E940B04C8010E94030560E094
:1039B00080910A040E940B04C8010E940305A89587
:1039C000D301C201E0CF61E0892D0E94510460E083
:1039D00080910A040E940B0471C01091DB01ECE09D
:1039E000F2E080E090E0219131912617370781F0D5
:1039F000232B41F4FC01EE0FFF1FE45FFD4F7183A9
:103A0000608306C001968830910569F780E090E0F8
:103A1000FC01EE0FFF1F8E0F9F1FFC01E656FA4FB1
:103A200080819181A28189839A83AB83153B08F0C1
:103A300045C0898190E0FC01EE0FFF1F8E0F9F1F94
:103A4000FC01E55FFB4F808187FD03C0C1010E943F
:103A5000C806612F70E0C1010E9445062FC00E9478
:103A6000EF050E94232720E030E04AE754E40E945B
:103A7000FD21609330027093310280933202909363
:103A800033021CC089E00E94671280E090E00E942F
:103A90002A128AE00E94671280E090E00E942A12B7
:103AA00081E00E94671280E090E00E942A1282E08A
:103AB0000E94671280E090E00E942A120E94E70DA7
:103AC000109227020E94DA108091980580931D02BF
:103AD000843409F491C02091240230912502232BD3
:103AE00009F0ABC08C3109F471C0F0F4893009F4ED
:103AF00055C060F4873009F457C0883009F097C08A
:103B000081E08093000189E890E071C0883109F478
:103B100069C0893161F18C3009F089C081E08093FE
:103B2000000184E490E063C08A3409F443C058F48F
:103B30008034B9F0823409F07AC081E080930001CA
:103B40008EEC90E054C08A35D9F18E3509F444C02A
:103B5000823509F06CC081E08093000185EE90E031
:103B600046C081E0809300010E94290E66C081E07A
:103B70008093000189E00E94671200910101109179
:103B80000201C8010E942A128AE00E946712882757
:103B90009927801B910B0E942A124FC081E08093CD
:103BA00000010E94FF0D49C081E0809300010E9446
:103BB000170E43C081E0809300018CEF90E017C0A6
:103BC00081E08093000187EB90E011C081E0809359
:103BD000000180EA90E00BC081E08093000182E761
:103BE00090E005C081E0809300018BE590E0909328
:103BF00002018093010121C00E94F10D0E949A10E0
:103C0000882319F00E94DA10F9CF80912402909154
:103C1000250201968230910529F090932502809328
:103C200024020BC0109225021092240206C080913B
:103C30000001813011F40E94F10D809124029091D5
:103C40002502019709F08CC00E94E00E0E946F22AD
:103C5000709323026093220282E10E94EC04BC0173
:103C6000990F880B990B611571058105910511F06C
:103C70000E94152780912202909123029C012B50D3
:103C800031092D31310508F50E9410272CE231E071
:103C900040E050E00E94422870932102609320028D
:103CA0006F3B71058105910554F080911E028111D1
:103CB00006C081E080931F020E94170E51C081E070
:103CC00080931E020E94FF0D4BC00A970CF042C069
:103CD0000E9410272CE231E040E050E00E94422890
:103CE00070932102609320026F3B7105810591055D
:103CF000B4F089E00E946712009101011091020165
:103D0000C80117FD0196959587950E942A128AE0B1
:103D10000E94671288279927801B910B18C089E0A1
:103D20000E9467120091010110910201C8010E94D6
:103D30002A128AE00E946712980137FF02C02F5FA3
:103D40003F4FC901959587959195819591090E945D
:103D50002A1206C010921F0210921E020E94290E03
:103D60000E9400020C946C130E94EF05DC01CB0151
:103D70008C199D09AE09BF098E3E9240A105B1057F
:103D800010F40C9447150C945E15880F991FFC01D4
:103D9000E55BFE4F80818093D80481818093D904B4
:103DA0000093DA042093DB040C944E169092F604F0
:103DB0000093F704660F771FFB01E55BFE4F8181DF
:103DC0008093F50480818093F40440E060E080E01B
:103DD0000E94BF0FE0E0F0E092E081E02091F80463
:103DE0003091F904E217F30708F07FCB2E2F220F52
:103DF0002E0F30E0A091FC04B091FD04A20FB31F80
:103E00009C93A091FC04B091FD04A20FB31F1196E6
:103E10001C924091FC045091FD04DA01A20FB31FE3
:103E200012968C933196DACF8091F40463CBCF93C2
:103E3000DF9380913004909131040E940E25C4EFED
:103E4000D4E08E819F810E940E251F821E8288856C
:103E500099850E940E25CEE1D5E081E891E0998315
:103E6000888380918C0590918D050E940E2581E7B5
:103E700091E099838883CE01DF91CF910C943B0C24
:103E8000CF93DF931092700310926F0388EE93E04C
:103E9000A0E0B0E08093710390937203A09373034A
:103EA000B093740329E231E030936E0320936D03E5
:103EB00025EC30E030937A032093790324EC30E052
:103EC00030937C0320937B0320EC30E030937E031F
:103ED00020937D0321EC30E03093800320937F0317
:103EE00022EC30E0309382032093810326EC30E013
:103EF00030938403209383031092860310928703E8
:103F0000109288031092890321E030E03093BF05BE
:103F10002093BE051092C0061092C1061092C206F0
:103F20001092C3061092C4061092C5061092C606DF
:103F30001092C7061092C8061092C9061092CA06BF
:103F40001092CB061092CC061092CD061092CF069E
:103F50001092CE061092D0061092D1061092D20680
:103F60001092D3061092D4061092D5061092D6065F
:103F70001092D7061092D8061092B5051092B4058B
:103F80008093B6059093B705A093B805B093B90593
:103F900089E391E09093B3058093B20580912F045B
:103FA000AAE9B5E09FEF48EB5BE08C3078F48C93A6
:103FB000282F30E0F901EE0FFF1F2E0F3F1FF901F0
:103FC000E55FFB4F528341838F5F01C09C93139643
:103FD00025E0A23BB20749F780932F0466E08DE30A
:103FE00095E00E94BA0A109221051092200588EEF1
:103FF00093E0A0E0B0E08093220590932305A09386
:104000002405B093250581E791E090931F058093E7
:104010001E05109235051092340510923705109246
:104020003605109239051092380510923B05109212
:104030003A0560913C056E7F6D7F60933C05669507
:10404000617081E0682780E10E940B0461E080E1FB
:104050000E945104EAECF1E0E491E0932E05E6EBD6
:10406000F1E0E491F0E0EE0FFF1FEE56FE4F859178
:1040700094919093300580932F0560E081E10E9438
:10408000510480913C0581FD04C061E081E10E9402
:104090000B0481E180932A05EBECF1E0E491E093DD
:1040A0002B05E7EBF1E0E491F0E0EE0FFF1FE456A3
:1040B000FE4F8591949190932D0580932C0581E876
:1040C00091E090931F0580931E0510928D0510922C
:1040D0008C0510928F0510928E051092910510920A
:1040E000900540E050E069EA71E08CE895E00E94BC
:1040F0004A03109243051092420590913E05909319
:10410000940580913D058093950521E030913F0510
:10411000353009F020E02093410521E931E030936A
:104120001F0520931E05909396058093970560E0E8
:1041300086E195E00E94BA0A83E095E00E94060BB2
:1041400084EF94E00E94060B80E290E09093F904E3
:104150008093F80480E690E00E9479249093FB0419
:104160008093FA04892B21F48AEA91E00E94922636
:1041700020E030E08091F8049091F904AC01440F04
:10418000551F840F951F2817390750F4E091FA0442
:10419000F091FB04E20FF31F10822F5F3F4FEACF35
:1041A0000E9479249093FD048093FC04892B21F4D0
:1041B0008AEA91E00E94922620E030E08091F804A3
:1041C0009091F904AC01440F551F840F951F2817D7
:1041D000390750F4E091FC04F091FD04E20FF31F65
:1041E00010822F5F3F4FEACF63E086EE94E00E949B
:1041F000BA0A8CED94E00E94060B88ED94E00E94D0
:10420000060B60E084ED94E00E94BA0A60E08CE660
:1042100094E00E94BA0AC9E4D1E0D0936B04C09341
:104220006A0460E081EA94E00E94BA0AD093A00494
:10423000C0939F0486E694E00E94060B88E080937A
:104240000A0460E08FE594E00E94BA0A60E089E524
:1042500094E00E94BA0A60E083E594E00E94BA0A02
:1042600060E08DE494E00E94BA0A86E394E00E9444
:10427000060B109231041092300410923304109205
:104280003204109235041092340449E050E066EC98
:1042900071E080E394E0DF91CF910C944A03991B85
:1042A00079E004C0991F961708F0961B881F7A952D
:1042B000C9F78095089597FB072E16F4009407D050
:1042C00077FD09D00E947C2107FC05D03EF4909533
:1042D00081959F4F0895709561957F4F0895EE0FDA
:1042E000FF1F0590F491E02D09940E94CD28B7FF9F
:1042F0000895821B930B0895AA1BBB1B51E107C0B5
:10430000AA1FBB1FA617B70710F0A61BB70B881F65
:10431000991F5A95A9F780959095BC01CD010895F4
:104320005058BB27AA270E94A8210C9408280E9455
:10433000FA2738F00E94012820F039F49F3F19F441
:1043400026F40C94F7270EF4E095E7FB0C94F12784
:10435000E92F0E94192858F3BA17620773078407D8
:10436000950720F079F4A6F50C943B280EF4E0951F
:104370000B2EBA2FA02D0B01B90190010C01CA011F
:10438000A0011124FF27591B99F0593F50F4503ECA
:1043900068F11A16F040A22F232F342F4427585FBC
:1043A000F3CF469537952795A795F0405395C9F7D4
:1043B0007EF41F16BA0B620B730B840BBAF091508C
:1043C000A1F0FF0FBB1F661F771F881FC2F70EC02B
:1043D000BA0F621F731F841F48F4879577956795FE
:1043E000B795F7959E3F08F0B0CF9395880F08F0EA
:1043F0009927EE0F9795879508950E9411220C94A6
:1044000008280E94012858F00E94FA2740F029F459
:104410005F3F29F00C94F12751110C943C280C9427
:10442000F7270E94192868F39923B1F3552391F3D4
:10443000951B550BBB27AA2762177307840738F013
:104440009F5F5F4F220F331F441FAA1FA9F335D070
:104450000E2E3AF0E0E832D091505040E695001C24
:10446000CAF72BD0FE2F29D0660F771F881FBB1FDE
:10447000261737074807AB07B0E809F0BB0B802DBC
:10448000BF01FF2793585F4F3AF09E3F510578F0E8
:104490000C94F1270C943C285F3FE4F3983ED4F34E
:1044A000869577956795B795F7959F5FC9F7880FBC
:1044B000911D9695879597F90895E1E0660F771F0E
:1044C000881FBB1F621773078407BA0720F0621B9F
:1044D000730B840BBA0BEE1F88F7E09508950E94CA
:1044E00076226894B1110C943C2808950E942128EA
:1044F00088F09F5798F0B92F9927B751B0F0E1F0A5
:10450000660F771F881F991F1AF0BA95C9F714C054
:10451000B13091F00E943B28B1E008950C943B2803
:10452000672F782F8827B85F39F0B93FCCF386958D
:1045300077956795B395D9F73EF4909580957095EA
:1045400061957F4F8F4F9F4F08950E94E52290F015
:104550009F3748F4911116F00C943C2860E070E00D
:1045600080E89FEB089526F41B16611D711D811DC7
:104570000C94BC220C94D722882371F4772321F069
:104580009850872B762F07C0662311F499270DC00A
:104590009051862B70E060E02AF09A95660F771FA5
:1045A000881FDAF7880F9695879597F908959F3FAA
:1045B00031F0915020F4879577956795B795880FDE
:1045C000911D9695879597F908950E942128A0F04E
:1045D000BEE7B91788F4BB279F3860F41616B11DE3
:1045E000672F782F8827985FF7CF869577956795FF
:1045F000B11D93959639C8F308950E94602708F479
:104600008FEF0895FA01EE0FFF1F30962105310557
:10461000A1F16115710561F48038BFE39B0749F191
:1046200068949038810561F08038BFEF9B0741F0B6
:1046300099234AF5FF3FE1053105210519F1E89479
:104640000894E795D901AA2329F4AB2FBE2FF85F70
:10465000D0F310C0FF5F70F4A695E0F7F73950F083
:1046600019F0FF3A38F49F779F930DD00F9007FC15
:104670009058089546F00C94F72760E070E080E8C9
:104680009FE308954FE79F775F934F933F932F9357
:104690000E94FD232F913F914F915F910E948427AB
:1046A0000C945A2329F416F00C94F1270C943B280F
:1046B0000C94F7270E942128A8F39638A0F707F852
:1046C0000F92E8942BE33AEA48EB5FE70E949A27BF
:1046D0000F920F920F924DB75EB70F920E94452432
:1046E000E0EDF0E00E948C234F915F91EF91FF91FC
:1046F000E595EE1FFF1F49F0FE57E0684427EE0FD7
:10470000441FFA95E1F74195550B0E94BF230F9086
:1047100007FE0C94B3230895DF93CF931F930F9359
:10472000FF92EF92DF927B018C01689406C0DA2E33
:10473000EF010E949727FE01E894A59125913591FC
:1047400045915591A6F3EF010E94A821FE01970122
:10475000A801DA9469F7DF90EF90FF900F911F9115
:10476000CF91DF9108959B01AC0160E070E080E89B
:104770009FE30C94FD210C94F1270C94D7220E9406
:104780002128D8F39923C9F3940F511DA3F3915015
:10479000504094F059F0882332F0660F771F881F3D
:1047A00091505040C1F79E3F51052CF7880F911D45
:1047B0009695879597F908955F3FACF0983E9CF0E9
:1047C000BB27869577956795B79508F4B160939563
:1047D000C1F7BB0F58F711F460FFE8CF6F5F7F4F51
:1047E0008F4F9F4FE3CF0C943C2816F00C94D722A8
:1047F0000C94F72768940C94F1270E942128A8F3C1
:104800009923C1F3AEF3DF93CF931F930F93FF92DE
:10481000C92FDD2788232AF02197660F771F881F6D
:10482000DAF720E030E040E85FEB9FE3883920F0E2
:10483000803E38F021968F770E949121E8EFF0E0DA
:1048400004C00E949121E5E2F1E00E948C238B01DB
:10485000BE01EC01FB2E6F5771097595771F880B10
:10486000990B0E94252728E132E741E35FE30E948C
:104870009727AF2D9801AE01FF900F911F91CF9117
:10488000DF910E94A8210C940828FA01DC01AA0FEC
:10489000BB1F9B01AC01BF5728F4222733274427B5
:1048A000507820C0B75190F4AB2F0024469537952F
:1048B0002795011CA395D2F3002071F0220F331F1E
:1048C000441FB395DAF30ED00C949021613071053A
:1048D000A0E88A07B94630F49B01AC016627772728
:1048E00088279078309621F0208331834283538348
:1048F0000895CF93DF938230910510F482E090E029
:10490000E091DB06F091DC0620E030E0C0E0D0E092
:10491000309711F14081518148175907C0F048176D
:10492000590761F482819381209719F09B838A83D0
:104930002BC09093DC068093DB0626C02115310541
:1049400019F04217530718F49A01BE01DF01EF0175
:104950000280F381E02DDCCF2115310509F1281B00
:10496000390B2430310590F412968D919C91139758
:104970006115710521F0FB019383828304C090933C
:10498000DC068093DB06FD01329644C0FD01E20F98
:10499000F31F81939193225031092D933C933AC098
:1049A0002091D9063091DA06232B41F4209105019C
:1049B000309106013093DA062093D9062091030145
:1049C000309104012115310541F42DB73EB74091D6
:1049D000070150910801241B350BE091D906F09195
:1049E000DA06E217F307A0F42E1B3F0B281739074E
:1049F00078F0AC014E5F5F4F2417350748F04E0F3B
:104A00005F1F5093DA064093D9068193919302C0B9
:104A1000E0E0F0E0CF01DF91CF9108950F931F9375
:104A2000CF93DF93009709F48CC0FC013297138277
:104A300012820091DB061091DC060115110581F44C
:104A400020813181820F931F2091D9063091DA069F
:104A50002817390779F5F093DA06E093D90671C083
:104A6000D80140E050E0AE17BF0750F412962D91E8
:104A70003C911397AD012115310509F1D901F3CF0F
:104A80009D01DA013383228360817181860F971F34
:104A90008217930769F4EC0128813981260F371FAB
:104AA0002E5F3F4F318320838A819B819383828352
:104AB000452B29F4F093DC06E093DB0642C0139605
:104AC000FC93EE931297ED01499159919E01240FA9
:104AD000351FE217F30771F480819181840F951FD0
:104AE000029611969C938E938281938113969C9348
:104AF0008E931297E0E0F0E0D80112968D919C9190
:104B00001397009719F0F8018C01F6CF8D919C91C5
:104B100098012E5F3F4F820F931F2091D90630914D
:104B2000DA062817390769F4309729F41092DC0661
:104B30001092DB0602C0138212821093DA060093F1
:104B4000D906DF91CF911F910F910895A0E0B0E0B9
:104B5000ECEAF5E20C947828EC01009721F4CB0103
:104B60000E947924B8C0FC01E60FF71F9C01225077
:104B70003109E217F30708F4ACC0D9010D911C917B
:104B8000119706171707B0F00530110508F49FC0FC
:104B9000C80104978617970708F499C002501109B5
:104BA000061B170B019311936D937C93CF010E9409
:104BB0000E258DC05B01A01AB10A4C01800E911E1A
:104BC000A091DB06B091DC0640E050E0E12CF12C36
:104BD000109709F44AC0A815B905D1F56D907C90DD
:104BE0001197630182E0C80ED11CCA14DB0480F166
:104BF000A3014A195B096A0182E0C80ED11C129612
:104C0000BC9012971396AC91B5E0CB16D10440F04E
:104C1000B282A38351834083D9016D937C930AC0F0
:104C20000E5F1F4FC301800F911FF9019183808395
:104C3000EB2DFA2FE114F10431F0D7011396FC9318
:104C4000EE93129744C0F093DC06E093DB063FC07E
:104C50008D919C9111974817590708F4AC017D017B
:104C600012960D90BC91A02DB3CF8091D906909152
:104C7000DA0688159905E1F446175707C8F48091BC
:104C8000030190910401009741F48DB79EB74091C4
:104C9000070150910801841B950BE817F907C8F428
:104CA000F093DA06E093D906F901718360830FC0AF
:104CB000CB010E9479247C01009759F0A801BE0124
:104CC0000E948226CE010E940E25C70104C0CE019B
:104CD00002C080E090E0CDB7DEB7EEE00C949428FF
:104CE00081E090E0F8940C94DC28FB01DC0104C026
:104CF0008D910190801921F441505040C8F7881BD4
:104D0000990B0895FB01DC0102C001900D92415006
:104D10005040D8F70895FB01DC0101900D9200206E
:104D2000E1F708950F931F93CF93DF93E091DF0690
:104D3000F091E006238121FF1BC08C01D0E0C0E090
:104D4000F80181918F016091DF067091E006DB012F
:104D50001896ED91FC911997882331F00995892BCC
:104D600079F3DFEFCFEFECCF8AE00995892B19F0CB
:104D70008FEF9FEF02C08D2F9C2FDF91CF911F915E
:104D80000F9108958F929F92AF92BF92CF92DF9230
:104D9000EF92FF92CF93DF93EC01688179818A8152
:104DA0009B81611571058105910521F464E279ED1E
:104DB0008BE597E02DE133EF41E050E00E9442287F
:104DC00049015A019B01AC01A7EAB1E40E946128A4
:104DD0006B017C01ACEEB4EFA50194010E946F2839
:104DE000DC01CB018C0D9D1DAE1DBF1DB7FF03C0A7
:104DF0000197A109B04888839983AA83BB83BC012A
:104E0000CD019F77DF91CF91FF90EF90DF90CF9012
:104E1000BF90AF909F908F9008950E94C2260895F2
:104E200089E091E00E94C226089560930901709381
:104E30000A0180930B0190930C0108950E94602752
:104E400008F481E00895E89409C097FB3EF490953A
:104E50008095709561957F4F8F4F9F4F9923A9F053
:104E6000F92F96E9BB279395F695879577956795E2
:104E7000B795F111F8CFFAF4BB0F11F460FF1BC026
:104E80006F5F7F4F8F4F9F4F16C0882311F096E9B9
:104E900011C0772321F09EE8872F762F05C0662367
:104EA00071F096E8862F70E060E02AF09A95660F20
:104EB000771F881FDAF7880F9695879597F90895D9
:104EC000990F0008550FAA0BE0E8FEEF161617061B
:104ED000E807F907C0F012161306E407F50798F083
:104EE000621B730B840B950B39F40A2661F0232B9C
:104EF000242B252B21F408950A2609F4A140A69518
:104F00008FEF811D811D08950E9497270C9408281A
:104F10000E94FA2738F00E94012820F0952311F012
:104F20000C94F1270C94F72711240C943C280E9430
:104F3000192870F3959FC1F3950F50E0551F629F9C
:104F4000F001729FBB27F00DB11D639FAA27F00DE2
:104F5000B11DAA1F649F6627B00DA11D661F829F09
:104F60002227B00DA11D621F739FB00DA11D621FEE
:104F7000839FA00D611D221F749F3327A00D611D0B
:104F8000231F849F600D211D822F762F6A2F1124ED
:104F90009F5750409AF0F1F088234AF0EE0FFF1F20
:104FA000BB1F661F771F881F91505040A9F79E3F77
:104FB000510580F00C94F1270C943C285F3FE4F3FA
:104FC000983ED4F3869577956795B795F795E795CD
:104FD0009F5FC1F7FE2B880F911D9695879597F9D6
:104FE000089597F99F6780E870E060E008959FEF6B
:104FF00080EC089500240A94161617061806090670
:10500000089500240A94121613061406050608953E
:10501000092E0394000C11F4882352F0BB0F40F4C6
:10502000BF2B11F460FF04C06F5F7F4F8F4F9F4F06
:10503000089557FD9058440F551F59F05F3F71F088
:105040004795880F97FB991F61F09F3F79F08795EF
:105050000895121613061406551FF2CF4695F1DF78
:1050600008C0161617061806991FF1CF8695710508
:10507000610508940895E894BB2766277727CB013C
:1050800097F90895052E97FB1EF400940E94592865
:1050900057FD07D00E94AB2807FC03D04EF40C94B8
:1050A000592850954095309521953F4F4F4F5F4F70
:1050B000089590958095709561957F4F8F4F9F4F84
:1050C00008950E94CD28A59F900DB49F900DA49F98
:1050D000800D911D11240895B7FF0C9461280E9442
:1050E0006128821B930B08952F923F924F925F92FB
:1050F0006F927F928F929F92AF92BF92CF92DF92E8
:10510000EF92FF920F931F93CF93DF93CDB7DEB74C
:10511000CA1BDB0B0FB6F894DEBF0FBECDBF0994E0
:105120002A88398848885F846E847D848C849B8437
:10513000AA84B984C884DF80EE80FD800C811B8145
:10514000AA81B981CE0FD11D0FB6F894DEBF0FBE74
:10515000CDBFED010895A1E21A2EAA1BBB1BFD01D4
:105160000DC0AA1FBB1FEE1FFF1FA217B307E40746
:10517000F50720F0A21BB30BE40BF50B661F771F9E
:10518000881F991F1A9469F760957095809590957E
:105190009B01AC01BD01CF010895A29FB001B39F57
:1051A000C001A39F700D811D1124911DB29F700D30
:1051B000811D1124911D089510E0C8EED0E004C0B7
:1051C000FE010E946F212196C93ED107C9F7F894CC
:0251D000FFCF0F
:1051D20001BE000000E306800001000000010000A3
:1051E20000020203040E000F00100011001200134F
:1051F2000014001500000000009701130160013E39
:10520200015201DE0100000000370323031C0319D1
:105212000316031503000000003B0400000B0A0301
:10522200090C0D080200001011140F150E060705D7
:105232000400000000000000000000000000000068
:10524200004C021301AA02C20233024B0200000008
:1052520000A00213015005720533024B0200000048
:1052620000A002130150058C0533024B02566572F1
:1052720073696F6E3A20000D0A00546865726520EA
:105282006973206E6F7420656E6F75676820737026
:10529200616365210D0030612E30312E30303700D0
:00000001FF
